{
	"contracts/FunctionsReturns.sol": {
		"FunctionReturns": {
			"abi": [
				{
					"inputs": [],
					"name": "returnMany",
					"outputs": [
						{
							"internalType": "uint256",
							"name": "",
							"type": "uint256"
						},
						{
							"internalType": "bool",
							"name": "",
							"type": "bool"
						},
						{
							"internalType": "string",
							"name": "",
							"type": "string"
						}
					],
					"stateMutability": "pure",
					"type": "function"
				},
				{
					"inputs": [],
					"name": "returnNamed",
					"outputs": [
						{
							"internalType": "uint256",
							"name": "a",
							"type": "uint256"
						},
						{
							"internalType": "bool",
							"name": "b",
							"type": "bool"
						}
					],
					"stateMutability": "pure",
					"type": "function"
				}
			],
			"devdoc": {
				"kind": "dev",
				"methods": {},
				"version": 1
			},
			"evm": {
				"assembly": "    /* \"contracts/FunctionsReturns.sol\":62:307  contract FunctionReturns {... */\n  mstore(0x40, 0x80)\n  callvalue\n  dup1\n  iszero\n  tag_1\n  jumpi\n  revert(0x00, 0x00)\ntag_1:\n  pop\n  dataSize(sub_0)\n  dup1\n  dataOffset(sub_0)\n  0x00\n  codecopy\n  0x00\n  return\nstop\n\nsub_0: assembly {\n        /* \"contracts/FunctionsReturns.sol\":62:307  contract FunctionReturns {... */\n      mstore(0x40, 0x80)\n      callvalue\n      dup1\n      iszero\n      tag_1\n      jumpi\n      revert(0x00, 0x00)\n    tag_1:\n      pop\n      jumpi(tag_2, lt(calldatasize, 0x04))\n      shr(0xe0, calldataload(0x00))\n      dup1\n      0x3dece511\n      eq\n      tag_3\n      jumpi\n      dup1\n      0x86887544\n      eq\n      tag_4\n      jumpi\n    tag_2:\n      revert(0x00, 0x00)\n        /* \"contracts/FunctionsReturns.sol\":210:304  function returnNamed() public pure returns(uint a, bool b) {... */\n    tag_3:\n      tag_5\n      tag_6\n      jump\t// in\n    tag_5:\n      mload(0x40)\n      tag_7\n      swap3\n      swap2\n      swap1\n      tag_8\n      jump\t// in\n    tag_7:\n      mload(0x40)\n      dup1\n      swap2\n      sub\n      swap1\n      return\n        /* \"contracts/FunctionsReturns.sol\":94:204  function returnMany() public pure returns(uint, bool, string memory) {... */\n    tag_4:\n      tag_9\n      tag_10\n      jump\t// in\n    tag_9:\n      mload(0x40)\n      tag_11\n      swap4\n      swap3\n      swap2\n      swap1\n      tag_12\n      jump\t// in\n    tag_11:\n      mload(0x40)\n      dup1\n      swap2\n      sub\n      swap1\n      return\n        /* \"contracts/FunctionsReturns.sol\":210:304  function returnNamed() public pure returns(uint a, bool b) {... */\n    tag_6:\n        /* \"contracts/FunctionsReturns.sol\":253:259  uint a */\n      0x00\n        /* \"contracts/FunctionsReturns.sol\":261:267  bool b */\n      0x00\n        /* \"contracts/FunctionsReturns.sol\":288:289  2 */\n      0x02\n        /* \"contracts/FunctionsReturns.sol\":291:295  true */\n      0x01\n        /* \"contracts/FunctionsReturns.sol\":280:296  return (2, true) */\n      swap2\n      pop\n      swap2\n      pop\n        /* \"contracts/FunctionsReturns.sol\":210:304  function returnNamed() public pure returns(uint a, bool b) {... */\n      swap1\n      swap2\n      jump\t// out\n        /* \"contracts/FunctionsReturns.sol\":94:204  function returnMany() public pure returns(uint, bool, string memory) {... */\n    tag_10:\n        /* \"contracts/FunctionsReturns.sol\":136:140  uint */\n      0x00\n        /* \"contracts/FunctionsReturns.sol\":142:146  bool */\n      0x00\n        /* \"contracts/FunctionsReturns.sol\":148:161  string memory */\n      0x60\n        /* \"contracts/FunctionsReturns.sol\":182:183  2 */\n      0x02\n        /* \"contracts/FunctionsReturns.sol\":185:189  true */\n      0x01\n        /* \"contracts/FunctionsReturns.sol\":174:196  return (2, true, \"Hi\") */\n      mload(0x40)\n      dup1\n      0x40\n      add\n      0x40\n      mstore\n      dup1\n      0x02\n      dup2\n      mstore\n      0x20\n      add\n      0x4869000000000000000000000000000000000000000000000000000000000000\n      dup2\n      mstore\n      pop\n      swap3\n      pop\n      swap3\n      pop\n      swap3\n      pop\n        /* \"contracts/FunctionsReturns.sol\":94:204  function returnMany() public pure returns(uint, bool, string memory) {... */\n      swap1\n      swap2\n      swap3\n      jump\t// out\n        /* \"#utility.yul\":7:84   */\n    tag_15:\n        /* \"#utility.yul\":44:51   */\n      0x00\n        /* \"#utility.yul\":73:78   */\n      dup2\n        /* \"#utility.yul\":62:78   */\n      swap1\n      pop\n        /* \"#utility.yul\":7:84   */\n      swap2\n      swap1\n      pop\n      jump\t// out\n        /* \"#utility.yul\":90:208   */\n    tag_16:\n        /* \"#utility.yul\":177:201   */\n      tag_27\n        /* \"#utility.yul\":195:200   */\n      dup2\n        /* \"#utility.yul\":177:201   */\n      tag_15\n      jump\t// in\n    tag_27:\n        /* \"#utility.yul\":172:175   */\n      dup3\n        /* \"#utility.yul\":165:202   */\n      mstore\n        /* \"#utility.yul\":90:208   */\n      pop\n      pop\n      jump\t// out\n        /* \"#utility.yul\":214:304   */\n    tag_17:\n        /* \"#utility.yul\":248:255   */\n      0x00\n        /* \"#utility.yul\":291:296   */\n      dup2\n        /* \"#utility.yul\":284:297   */\n      iszero\n        /* \"#utility.yul\":277:298   */\n      iszero\n        /* \"#utility.yul\":266:298   */\n      swap1\n      pop\n        /* \"#utility.yul\":214:304   */\n      swap2\n      swap1\n      pop\n      jump\t// out\n        /* \"#utility.yul\":310:419   */\n    tag_18:\n        /* \"#utility.yul\":391:412   */\n      tag_30\n        /* \"#utility.yul\":406:411   */\n      dup2\n        /* \"#utility.yul\":391:412   */\n      tag_17\n      jump\t// in\n    tag_30:\n        /* \"#utility.yul\":386:389   */\n      dup3\n        /* \"#utility.yul\":379:413   */\n      mstore\n        /* \"#utility.yul\":310:419   */\n      pop\n      pop\n      jump\t// out\n        /* \"#utility.yul\":425:745   */\n    tag_8:\n        /* \"#utility.yul\":540:544   */\n      0x00\n        /* \"#utility.yul\":578:580   */\n      0x40\n        /* \"#utility.yul\":567:576   */\n      dup3\n        /* \"#utility.yul\":563:581   */\n      add\n        /* \"#utility.yul\":555:581   */\n      swap1\n      pop\n        /* \"#utility.yul\":591:662   */\n      tag_32\n        /* \"#utility.yul\":659:660   */\n      0x00\n        /* \"#utility.yul\":648:657   */\n      dup4\n        /* \"#utility.yul\":644:661   */\n      add\n        /* \"#utility.yul\":635:641   */\n      dup6\n        /* \"#utility.yul\":591:662   */\n      tag_16\n      jump\t// in\n    tag_32:\n        /* \"#utility.yul\":672:738   */\n      tag_33\n        /* \"#utility.yul\":734:736   */\n      0x20\n        /* \"#utility.yul\":723:732   */\n      dup4\n        /* \"#utility.yul\":719:737   */\n      add\n        /* \"#utility.yul\":710:716   */\n      dup5\n        /* \"#utility.yul\":672:738   */\n      tag_18\n      jump\t// in\n    tag_33:\n        /* \"#utility.yul\":425:745   */\n      swap4\n      swap3\n      pop\n      pop\n      pop\n      jump\t// out\n        /* \"#utility.yul\":751:850   */\n    tag_19:\n        /* \"#utility.yul\":803:809   */\n      0x00\n        /* \"#utility.yul\":837:842   */\n      dup2\n        /* \"#utility.yul\":831:843   */\n      mload\n        /* \"#utility.yul\":821:843   */\n      swap1\n      pop\n        /* \"#utility.yul\":751:850   */\n      swap2\n      swap1\n      pop\n      jump\t// out\n        /* \"#utility.yul\":856:1025   */\n    tag_20:\n        /* \"#utility.yul\":940:951   */\n      0x00\n        /* \"#utility.yul\":974:980   */\n      dup3\n        /* \"#utility.yul\":969:972   */\n      dup3\n        /* \"#utility.yul\":962:981   */\n      mstore\n        /* \"#utility.yul\":1014:1018   */\n      0x20\n        /* \"#utility.yul\":1009:1012   */\n      dup3\n        /* \"#utility.yul\":1005:1019   */\n      add\n        /* \"#utility.yul\":990:1019   */\n      swap1\n      pop\n        /* \"#utility.yul\":856:1025   */\n      swap3\n      swap2\n      pop\n      pop\n      jump\t// out\n        /* \"#utility.yul\":1031:1170   */\n    tag_21:\n        /* \"#utility.yul\":1120:1126   */\n      dup3\n        /* \"#utility.yul\":1115:1118   */\n      dup2\n        /* \"#utility.yul\":1110:1113   */\n      dup4\n        /* \"#utility.yul\":1104:1127   */\n      mcopy\n        /* \"#utility.yul\":1161:1162   */\n      0x00\n        /* \"#utility.yul\":1152:1158   */\n      dup4\n        /* \"#utility.yul\":1147:1150   */\n      dup4\n        /* \"#utility.yul\":1143:1159   */\n      add\n        /* \"#utility.yul\":1136:1163   */\n      mstore\n        /* \"#utility.yul\":1031:1170   */\n      pop\n      pop\n      pop\n      jump\t// out\n        /* \"#utility.yul\":1176:1278   */\n    tag_22:\n        /* \"#utility.yul\":1217:1223   */\n      0x00\n        /* \"#utility.yul\":1268:1270   */\n      0x1f\n        /* \"#utility.yul\":1264:1271   */\n      not\n        /* \"#utility.yul\":1259:1261   */\n      0x1f\n        /* \"#utility.yul\":1252:1257   */\n      dup4\n        /* \"#utility.yul\":1248:1262   */\n      add\n        /* \"#utility.yul\":1244:1272   */\n      and\n        /* \"#utility.yul\":1234:1272   */\n      swap1\n      pop\n        /* \"#utility.yul\":1176:1278   */\n      swap2\n      swap1\n      pop\n      jump\t// out\n        /* \"#utility.yul\":1284:1661   */\n    tag_23:\n        /* \"#utility.yul\":1372:1375   */\n      0x00\n        /* \"#utility.yul\":1400:1439   */\n      tag_39\n        /* \"#utility.yul\":1433:1438   */\n      dup3\n        /* \"#utility.yul\":1400:1439   */\n      tag_19\n      jump\t// in\n    tag_39:\n        /* \"#utility.yul\":1455:1526   */\n      tag_40\n        /* \"#utility.yul\":1519:1525   */\n      dup2\n        /* \"#utility.yul\":1514:1517   */\n      dup6\n        /* \"#utility.yul\":1455:1526   */\n      tag_20\n      jump\t// in\n    tag_40:\n        /* \"#utility.yul\":1448:1526   */\n      swap4\n      pop\n        /* \"#utility.yul\":1535:1600   */\n      tag_41\n        /* \"#utility.yul\":1593:1599   */\n      dup2\n        /* \"#utility.yul\":1588:1591   */\n      dup6\n        /* \"#utility.yul\":1581:1585   */\n      0x20\n        /* \"#utility.yul\":1574:1579   */\n      dup7\n        /* \"#utility.yul\":1570:1586   */\n      add\n        /* \"#utility.yul\":1535:1600   */\n      tag_21\n      jump\t// in\n    tag_41:\n        /* \"#utility.yul\":1625:1654   */\n      tag_42\n        /* \"#utility.yul\":1647:1653   */\n      dup2\n        /* \"#utility.yul\":1625:1654   */\n      tag_22\n      jump\t// in\n    tag_42:\n        /* \"#utility.yul\":1620:1623   */\n      dup5\n        /* \"#utility.yul\":1616:1655   */\n      add\n        /* \"#utility.yul\":1609:1655   */\n      swap2\n      pop\n        /* \"#utility.yul\":1376:1661   */\n      pop\n        /* \"#utility.yul\":1284:1661   */\n      swap3\n      swap2\n      pop\n      pop\n      jump\t// out\n        /* \"#utility.yul\":1667:2188   */\n    tag_12:\n        /* \"#utility.yul\":1830:1834   */\n      0x00\n        /* \"#utility.yul\":1868:1870   */\n      0x60\n        /* \"#utility.yul\":1857:1866   */\n      dup3\n        /* \"#utility.yul\":1853:1871   */\n      add\n        /* \"#utility.yul\":1845:1871   */\n      swap1\n      pop\n        /* \"#utility.yul\":1881:1952   */\n      tag_44\n        /* \"#utility.yul\":1949:1950   */\n      0x00\n        /* \"#utility.yul\":1938:1947   */\n      dup4\n        /* \"#utility.yul\":1934:1951   */\n      add\n        /* \"#utility.yul\":1925:1931   */\n      dup7\n        /* \"#utility.yul\":1881:1952   */\n      tag_16\n      jump\t// in\n    tag_44:\n        /* \"#utility.yul\":1962:2028   */\n      tag_45\n        /* \"#utility.yul\":2024:2026   */\n      0x20\n        /* \"#utility.yul\":2013:2022   */\n      dup4\n        /* \"#utility.yul\":2009:2027   */\n      add\n        /* \"#utility.yul\":2000:2006   */\n      dup6\n        /* \"#utility.yul\":1962:2028   */\n      tag_18\n      jump\t// in\n    tag_45:\n        /* \"#utility.yul\":2075:2084   */\n      dup2\n        /* \"#utility.yul\":2069:2073   */\n      dup2\n        /* \"#utility.yul\":2065:2085   */\n      sub\n        /* \"#utility.yul\":2060:2062   */\n      0x40\n        /* \"#utility.yul\":2049:2058   */\n      dup4\n        /* \"#utility.yul\":2045:2063   */\n      add\n        /* \"#utility.yul\":2038:2086   */\n      mstore\n        /* \"#utility.yul\":2103:2181   */\n      tag_46\n        /* \"#utility.yul\":2176:2180   */\n      dup2\n        /* \"#utility.yul\":2167:2173   */\n      dup5\n        /* \"#utility.yul\":2103:2181   */\n      tag_23\n      jump\t// in\n    tag_46:\n        /* \"#utility.yul\":2095:2181   */\n      swap1\n      pop\n        /* \"#utility.yul\":1667:2188   */\n      swap5\n      swap4\n      pop\n      pop\n      pop\n      pop\n      jump\t// out\n\n    auxdata: 0xa2646970667358221220d7286855b9e45c0986f2cf4b1da0f4e1605bf3558e28d6eb43cba3f18d101ade64736f6c634300081e0033\n}\n",
				"bytecode": {
					"linkReferences": {},
					"object": "6080604052348015600e575f5ffd5b506102098061001c5f395ff3fe608060405234801561000f575f5ffd5b5060043610610034575f3560e01c80633dece511146100385780638688754414610057575b5f5ffd5b610040610077565b60405161004e929190610100565b60405180910390f35b61005f610085565b60405161006e93929190610197565b60405180910390f35b5f5f60026001915091509091565b5f5f6060600260016040518060400160405280600281526020017f4869000000000000000000000000000000000000000000000000000000000000815250925092509250909192565b5f819050919050565b6100e0816100ce565b82525050565b5f8115159050919050565b6100fa816100e6565b82525050565b5f6040820190506101135f8301856100d7565b61012060208301846100f1565b9392505050565b5f81519050919050565b5f82825260208201905092915050565b8281835e5f83830152505050565b5f601f19601f8301169050919050565b5f61016982610127565b6101738185610131565b9350610183818560208601610141565b61018c8161014f565b840191505092915050565b5f6060820190506101aa5f8301866100d7565b6101b760208301856100f1565b81810360408301526101c9818461015f565b905094935050505056fea2646970667358221220d7286855b9e45c0986f2cf4b1da0f4e1605bf3558e28d6eb43cba3f18d101ade64736f6c634300081e0033",
					"opcodes": "PUSH1 0x80 PUSH1 0x40 MSTORE CALLVALUE DUP1 ISZERO PUSH1 0xE JUMPI PUSH0 PUSH0 REVERT JUMPDEST POP PUSH2 0x209 DUP1 PUSH2 0x1C PUSH0 CODECOPY PUSH0 RETURN INVALID PUSH1 0x80 PUSH1 0x40 MSTORE CALLVALUE DUP1 ISZERO PUSH2 0xF JUMPI PUSH0 PUSH0 REVERT JUMPDEST POP PUSH1 0x4 CALLDATASIZE LT PUSH2 0x34 JUMPI PUSH0 CALLDATALOAD PUSH1 0xE0 SHR DUP1 PUSH4 0x3DECE511 EQ PUSH2 0x38 JUMPI DUP1 PUSH4 0x86887544 EQ PUSH2 0x57 JUMPI JUMPDEST PUSH0 PUSH0 REVERT JUMPDEST PUSH2 0x40 PUSH2 0x77 JUMP JUMPDEST PUSH1 0x40 MLOAD PUSH2 0x4E SWAP3 SWAP2 SWAP1 PUSH2 0x100 JUMP JUMPDEST PUSH1 0x40 MLOAD DUP1 SWAP2 SUB SWAP1 RETURN JUMPDEST PUSH2 0x5F PUSH2 0x85 JUMP JUMPDEST PUSH1 0x40 MLOAD PUSH2 0x6E SWAP4 SWAP3 SWAP2 SWAP1 PUSH2 0x197 JUMP JUMPDEST PUSH1 0x40 MLOAD DUP1 SWAP2 SUB SWAP1 RETURN JUMPDEST PUSH0 PUSH0 PUSH1 0x2 PUSH1 0x1 SWAP2 POP SWAP2 POP SWAP1 SWAP2 JUMP JUMPDEST PUSH0 PUSH0 PUSH1 0x60 PUSH1 0x2 PUSH1 0x1 PUSH1 0x40 MLOAD DUP1 PUSH1 0x40 ADD PUSH1 0x40 MSTORE DUP1 PUSH1 0x2 DUP2 MSTORE PUSH1 0x20 ADD PUSH32 0x4869000000000000000000000000000000000000000000000000000000000000 DUP2 MSTORE POP SWAP3 POP SWAP3 POP SWAP3 POP SWAP1 SWAP2 SWAP3 JUMP JUMPDEST PUSH0 DUP2 SWAP1 POP SWAP2 SWAP1 POP JUMP JUMPDEST PUSH2 0xE0 DUP2 PUSH2 0xCE JUMP JUMPDEST DUP3 MSTORE POP POP JUMP JUMPDEST PUSH0 DUP2 ISZERO ISZERO SWAP1 POP SWAP2 SWAP1 POP JUMP JUMPDEST PUSH2 0xFA DUP2 PUSH2 0xE6 JUMP JUMPDEST DUP3 MSTORE POP POP JUMP JUMPDEST PUSH0 PUSH1 0x40 DUP3 ADD SWAP1 POP PUSH2 0x113 PUSH0 DUP4 ADD DUP6 PUSH2 0xD7 JUMP JUMPDEST PUSH2 0x120 PUSH1 0x20 DUP4 ADD DUP5 PUSH2 0xF1 JUMP JUMPDEST SWAP4 SWAP3 POP POP POP JUMP JUMPDEST PUSH0 DUP2 MLOAD SWAP1 POP SWAP2 SWAP1 POP JUMP JUMPDEST PUSH0 DUP3 DUP3 MSTORE PUSH1 0x20 DUP3 ADD SWAP1 POP SWAP3 SWAP2 POP POP JUMP JUMPDEST DUP3 DUP2 DUP4 MCOPY PUSH0 DUP4 DUP4 ADD MSTORE POP POP POP JUMP JUMPDEST PUSH0 PUSH1 0x1F NOT PUSH1 0x1F DUP4 ADD AND SWAP1 POP SWAP2 SWAP1 POP JUMP JUMPDEST PUSH0 PUSH2 0x169 DUP3 PUSH2 0x127 JUMP JUMPDEST PUSH2 0x173 DUP2 DUP6 PUSH2 0x131 JUMP JUMPDEST SWAP4 POP PUSH2 0x183 DUP2 DUP6 PUSH1 0x20 DUP7 ADD PUSH2 0x141 JUMP JUMPDEST PUSH2 0x18C DUP2 PUSH2 0x14F JUMP JUMPDEST DUP5 ADD SWAP2 POP POP SWAP3 SWAP2 POP POP JUMP JUMPDEST PUSH0 PUSH1 0x60 DUP3 ADD SWAP1 POP PUSH2 0x1AA PUSH0 DUP4 ADD DUP7 PUSH2 0xD7 JUMP JUMPDEST PUSH2 0x1B7 PUSH1 0x20 DUP4 ADD DUP6 PUSH2 0xF1 JUMP JUMPDEST DUP2 DUP2 SUB PUSH1 0x40 DUP4 ADD MSTORE PUSH2 0x1C9 DUP2 DUP5 PUSH2 0x15F JUMP JUMPDEST SWAP1 POP SWAP5 SWAP4 POP POP POP POP JUMP INVALID LOG2 PUSH5 0x6970667358 0x22 SLT KECCAK256 0xD7 0x28 PUSH9 0x55B9E45C0986F2CF4B SAR LOG0 DELEGATECALL RJUMPI 0x605B RETURN SSTORE DUP15 0x28 0xD6 0xEB NUMBER 0xCB LOG3 CALL DUP14 LT BYTE 0xDE PUSH5 0x736F6C6343 STOP ADDMOD 0x1E STOP CALLER "
				},
				"gasEstimates": {
					"creation": {
						"codeDepositCost": "104200",
						"executionCost": "151",
						"totalCost": "104351"
					},
					"external": {
						"returnMany()": "infinite",
						"returnNamed()": "428"
					}
				},
				"methodIdentifiers": {
					"returnMany()": "86887544",
					"returnNamed()": "3dece511"
				}
			},
			"storageLayout": {
				"storage": [],
				"types": null
			},
			"userdoc": {
				"kind": "user",
				"methods": {},
				"version": 1
			}
		}
	}
}