{
	"contracts/OperatorAndIfElse.sol": {
		"OperatorAndIfElse": {
			"abi": [
				{
					"inputs": [],
					"name": "decrement",
					"outputs": [],
					"stateMutability": "nonpayable",
					"type": "function"
				},
				{
					"inputs": [],
					"name": "increment",
					"outputs": [],
					"stateMutability": "nonpayable",
					"type": "function"
				},
				{
					"inputs": [],
					"name": "rest",
					"outputs": [
						{
							"internalType": "bool",
							"name": "",
							"type": "bool"
						}
					],
					"stateMutability": "view",
					"type": "function"
				}
			],
			"devdoc": {
				"kind": "dev",
				"methods": {},
				"version": 1
			},
			"evm": {
				"assembly": "    /* \"contracts/OperatorAndIfElse.sol\":62:293  contract OperatorAndIfElse {... */\n  mstore(0x40, 0x80)\n    /* \"contracts/OperatorAndIfElse.sol\":127:128  0 */\n  0x00\n    /* \"contracts/OperatorAndIfElse.sol\":117:123  10 % 2 */\n  0x00\n    /* \"contracts/OperatorAndIfElse.sol\":117:128  10 % 2 == 0 */\n  eq\n    /* \"contracts/OperatorAndIfElse.sol\":98:128  bool public rest = 10 % 2 == 0 */\n  0x00\n  exp(0x0100, 0x00)\n  dup2\n  sload\n  dup2\n  0xff\n  mul\n  not\n  and\n  swap1\n  dup4\n  iszero\n  iszero\n  mul\n  or\n  swap1\n  sstore\n  pop\n    /* \"contracts/OperatorAndIfElse.sol\":62:293  contract OperatorAndIfElse {... */\n  callvalue\n  dup1\n  iszero\n  tag_1\n  jumpi\n  revert(0x00, 0x00)\ntag_1:\n  pop\n  dataSize(sub_0)\n  dup1\n  dataOffset(sub_0)\n  0x00\n  codecopy\n  0x00\n  return\nstop\n\nsub_0: assembly {\n        /* \"contracts/OperatorAndIfElse.sol\":62:293  contract OperatorAndIfElse {... */\n      mstore(0x40, 0x80)\n      callvalue\n      dup1\n      iszero\n      tag_1\n      jumpi\n      revert(0x00, 0x00)\n    tag_1:\n      pop\n      jumpi(tag_2, lt(calldatasize, 0x04))\n      shr(0xe0, calldataload(0x00))\n      dup1\n      0x2baeceb7\n      eq\n      tag_3\n      jumpi\n      dup1\n      0xc0ea09d7\n      eq\n      tag_4\n      jumpi\n      dup1\n      0xd09de08a\n      eq\n      tag_5\n      jumpi\n    tag_2:\n      revert(0x00, 0x00)\n        /* \"contracts/OperatorAndIfElse.sol\":234:290  function decrement() external {... */\n    tag_3:\n      tag_6\n      tag_7\n      jump\t// in\n    tag_6:\n      stop\n        /* \"contracts/OperatorAndIfElse.sol\":98:128  bool public rest = 10 % 2 == 0 */\n    tag_4:\n      tag_8\n      tag_9\n      jump\t// in\n    tag_8:\n      mload(0x40)\n      tag_10\n      swap2\n      swap1\n      tag_11\n      jump\t// in\n    tag_10:\n      mload(0x40)\n      dup1\n      swap2\n      sub\n      swap1\n      return\n        /* \"contracts/OperatorAndIfElse.sol\":172:228  function increment() external {... */\n    tag_5:\n      tag_12\n      tag_13\n      jump\t// in\n    tag_12:\n      stop\n        /* \"contracts/OperatorAndIfElse.sol\":234:290  function decrement() external {... */\n    tag_7:\n        /* \"contracts/OperatorAndIfElse.sol\":275:280  count */\n      0x01\n      0x00\n        /* \"contracts/OperatorAndIfElse.sol\":275:282  count-- */\n      dup2\n      sload\n      dup1\n      swap3\n      swap2\n      swap1\n      tag_15\n      swap1\n      tag_16\n      jump\t// in\n    tag_15:\n      swap2\n      swap1\n      pop\n      sstore\n      pop\n        /* \"contracts/OperatorAndIfElse.sol\":234:290  function decrement() external {... */\n      jump\t// out\n        /* \"contracts/OperatorAndIfElse.sol\":98:128  bool public rest = 10 % 2 == 0 */\n    tag_9:\n      0x00\n      0x00\n      swap1\n      sload\n      swap1\n      0x0100\n      exp\n      swap1\n      div\n      0xff\n      and\n      dup2\n      jump\t// out\n        /* \"contracts/OperatorAndIfElse.sol\":172:228  function increment() external {... */\n    tag_13:\n        /* \"contracts/OperatorAndIfElse.sol\":213:218  count */\n      0x01\n      0x00\n        /* \"contracts/OperatorAndIfElse.sol\":213:220  count++ */\n      dup2\n      sload\n      dup1\n      swap3\n      swap2\n      swap1\n      tag_18\n      swap1\n      tag_19\n      jump\t// in\n    tag_18:\n      swap2\n      swap1\n      pop\n      sstore\n      pop\n        /* \"contracts/OperatorAndIfElse.sol\":172:228  function increment() external {... */\n      jump\t// out\n        /* \"#utility.yul\":7:97   */\n    tag_20:\n        /* \"#utility.yul\":41:48   */\n      0x00\n        /* \"#utility.yul\":84:89   */\n      dup2\n        /* \"#utility.yul\":77:90   */\n      iszero\n        /* \"#utility.yul\":70:91   */\n      iszero\n        /* \"#utility.yul\":59:91   */\n      swap1\n      pop\n        /* \"#utility.yul\":7:97   */\n      swap2\n      swap1\n      pop\n      jump\t// out\n        /* \"#utility.yul\":103:212   */\n    tag_21:\n        /* \"#utility.yul\":184:205   */\n      tag_27\n        /* \"#utility.yul\":199:204   */\n      dup2\n        /* \"#utility.yul\":184:205   */\n      tag_20\n      jump\t// in\n    tag_27:\n        /* \"#utility.yul\":179:182   */\n      dup3\n        /* \"#utility.yul\":172:206   */\n      mstore\n        /* \"#utility.yul\":103:212   */\n      pop\n      pop\n      jump\t// out\n        /* \"#utility.yul\":218:428   */\n    tag_11:\n        /* \"#utility.yul\":305:309   */\n      0x00\n        /* \"#utility.yul\":343:345   */\n      0x20\n        /* \"#utility.yul\":332:341   */\n      dup3\n        /* \"#utility.yul\":328:346   */\n      add\n        /* \"#utility.yul\":320:346   */\n      swap1\n      pop\n        /* \"#utility.yul\":356:421   */\n      tag_29\n        /* \"#utility.yul\":418:419   */\n      0x00\n        /* \"#utility.yul\":407:416   */\n      dup4\n        /* \"#utility.yul\":403:420   */\n      add\n        /* \"#utility.yul\":394:400   */\n      dup5\n        /* \"#utility.yul\":356:421   */\n      tag_21\n      jump\t// in\n    tag_29:\n        /* \"#utility.yul\":218:428   */\n      swap3\n      swap2\n      pop\n      pop\n      jump\t// out\n        /* \"#utility.yul\":434:614   */\n    tag_22:\n        /* \"#utility.yul\":482:559   */\n      0x4e487b7100000000000000000000000000000000000000000000000000000000\n        /* \"#utility.yul\":479:480   */\n      0x00\n        /* \"#utility.yul\":472:560   */\n      mstore\n        /* \"#utility.yul\":579:583   */\n      0x11\n        /* \"#utility.yul\":576:577   */\n      0x04\n        /* \"#utility.yul\":569:584   */\n      mstore\n        /* \"#utility.yul\":603:607   */\n      0x24\n        /* \"#utility.yul\":600:601   */\n      0x00\n        /* \"#utility.yul\":593:608   */\n      revert\n        /* \"#utility.yul\":620:697   */\n    tag_23:\n        /* \"#utility.yul\":657:664   */\n      0x00\n        /* \"#utility.yul\":686:691   */\n      dup2\n        /* \"#utility.yul\":675:691   */\n      swap1\n      pop\n        /* \"#utility.yul\":620:697   */\n      swap2\n      swap1\n      pop\n      jump\t// out\n        /* \"#utility.yul\":703:874   */\n    tag_16:\n        /* \"#utility.yul\":742:745   */\n      0x00\n        /* \"#utility.yul\":765:789   */\n      tag_33\n        /* \"#utility.yul\":783:788   */\n      dup3\n        /* \"#utility.yul\":765:789   */\n      tag_23\n      jump\t// in\n    tag_33:\n        /* \"#utility.yul\":756:789   */\n      swap2\n      pop\n        /* \"#utility.yul\":811:815   */\n      0x00\n        /* \"#utility.yul\":804:809   */\n      dup3\n        /* \"#utility.yul\":801:816   */\n      sub\n        /* \"#utility.yul\":798:839   */\n      tag_34\n      jumpi\n        /* \"#utility.yul\":819:837   */\n      tag_35\n      tag_22\n      jump\t// in\n    tag_35:\n        /* \"#utility.yul\":798:839   */\n    tag_34:\n        /* \"#utility.yul\":866:867   */\n      0x01\n        /* \"#utility.yul\":859:864   */\n      dup3\n        /* \"#utility.yul\":855:868   */\n      sub\n        /* \"#utility.yul\":848:868   */\n      swap1\n      pop\n        /* \"#utility.yul\":703:874   */\n      swap2\n      swap1\n      pop\n      jump\t// out\n        /* \"#utility.yul\":880:1113   */\n    tag_19:\n        /* \"#utility.yul\":919:922   */\n      0x00\n        /* \"#utility.yul\":942:966   */\n      tag_37\n        /* \"#utility.yul\":960:965   */\n      dup3\n        /* \"#utility.yul\":942:966   */\n      tag_23\n      jump\t// in\n    tag_37:\n        /* \"#utility.yul\":933:966   */\n      swap2\n      pop\n        /* \"#utility.yul\":988:1054   */\n      0xffffffffffffffffffffffffffffffffffffffffffffffffffffffffffffffff\n        /* \"#utility.yul\":981:986   */\n      dup3\n        /* \"#utility.yul\":978:1055   */\n      sub\n        /* \"#utility.yul\":975:1078   */\n      tag_38\n      jumpi\n        /* \"#utility.yul\":1058:1076   */\n      tag_39\n      tag_22\n      jump\t// in\n    tag_39:\n        /* \"#utility.yul\":975:1078   */\n    tag_38:\n        /* \"#utility.yul\":1105:1106   */\n      0x01\n        /* \"#utility.yul\":1098:1103   */\n      dup3\n        /* \"#utility.yul\":1094:1107   */\n      add\n        /* \"#utility.yul\":1087:1107   */\n      swap1\n      pop\n        /* \"#utility.yul\":880:1113   */\n      swap2\n      swap1\n      pop\n      jump\t// out\n\n    auxdata: 0xa26469706673582212208eb1a5d37a9fc5ff28d5d0a8147d55854cdd3bf5343547988467e34be700616264736f6c634300081e0033\n}\n",
				"bytecode": {
					"linkReferences": {},
					"object": "60806040525f5f145f5f6101000a81548160ff0219169083151502179055503480156028575f5ffd5b506101c5806100365f395ff3fe608060405234801561000f575f5ffd5b506004361061003f575f3560e01c80632baeceb714610043578063c0ea09d71461004d578063d09de08a1461006b575b5f5ffd5b61004b610075565b005b61005561008e565b60405161006291906100d2565b60405180910390f35b61007361009f565b005b60015f81548092919061008790610121565b9190505550565b5f5f9054906101000a900460ff1681565b60015f8154809291906100b190610148565b9190505550565b5f8115159050919050565b6100cc816100b8565b82525050565b5f6020820190506100e55f8301846100c3565b92915050565b7f4e487b71000000000000000000000000000000000000000000000000000000005f52601160045260245ffd5b5f819050919050565b5f61012b82610118565b91505f820361013d5761013c6100eb565b5b600182039050919050565b5f61015282610118565b91507fffffffffffffffffffffffffffffffffffffffffffffffffffffffffffffffff8203610184576101836100eb565b5b60018201905091905056fea26469706673582212208eb1a5d37a9fc5ff28d5d0a8147d55854cdd3bf5343547988467e34be700616264736f6c634300081e0033",
					"opcodes": "PUSH1 0x80 PUSH1 0x40 MSTORE PUSH0 PUSH0 EQ PUSH0 PUSH0 PUSH2 0x100 EXP DUP2 SLOAD DUP2 PUSH1 0xFF MUL NOT AND SWAP1 DUP4 ISZERO ISZERO MUL OR SWAP1 SSTORE POP CALLVALUE DUP1 ISZERO PUSH1 0x28 JUMPI PUSH0 PUSH0 REVERT JUMPDEST POP PUSH2 0x1C5 DUP1 PUSH2 0x36 PUSH0 CODECOPY PUSH0 RETURN INVALID PUSH1 0x80 PUSH1 0x40 MSTORE CALLVALUE DUP1 ISZERO PUSH2 0xF JUMPI PUSH0 PUSH0 REVERT JUMPDEST POP PUSH1 0x4 CALLDATASIZE LT PUSH2 0x3F JUMPI PUSH0 CALLDATALOAD PUSH1 0xE0 SHR DUP1 PUSH4 0x2BAECEB7 EQ PUSH2 0x43 JUMPI DUP1 PUSH4 0xC0EA09D7 EQ PUSH2 0x4D JUMPI DUP1 PUSH4 0xD09DE08A EQ PUSH2 0x6B JUMPI JUMPDEST PUSH0 PUSH0 REVERT JUMPDEST PUSH2 0x4B PUSH2 0x75 JUMP JUMPDEST STOP JUMPDEST PUSH2 0x55 PUSH2 0x8E JUMP JUMPDEST PUSH1 0x40 MLOAD PUSH2 0x62 SWAP2 SWAP1 PUSH2 0xD2 JUMP JUMPDEST PUSH1 0x40 MLOAD DUP1 SWAP2 SUB SWAP1 RETURN JUMPDEST PUSH2 0x73 PUSH2 0x9F JUMP JUMPDEST STOP JUMPDEST PUSH1 0x1 PUSH0 DUP2 SLOAD DUP1 SWAP3 SWAP2 SWAP1 PUSH2 0x87 SWAP1 PUSH2 0x121 JUMP JUMPDEST SWAP2 SWAP1 POP SSTORE POP JUMP JUMPDEST PUSH0 PUSH0 SWAP1 SLOAD SWAP1 PUSH2 0x100 EXP SWAP1 DIV PUSH1 0xFF AND DUP2 JUMP JUMPDEST PUSH1 0x1 PUSH0 DUP2 SLOAD DUP1 SWAP3 SWAP2 SWAP1 PUSH2 0xB1 SWAP1 PUSH2 0x148 JUMP JUMPDEST SWAP2 SWAP1 POP SSTORE POP JUMP JUMPDEST PUSH0 DUP2 ISZERO ISZERO SWAP1 POP SWAP2 SWAP1 POP JUMP JUMPDEST PUSH2 0xCC DUP2 PUSH2 0xB8 JUMP JUMPDEST DUP3 MSTORE POP POP JUMP JUMPDEST PUSH0 PUSH1 0x20 DUP3 ADD SWAP1 POP PUSH2 0xE5 PUSH0 DUP4 ADD DUP5 PUSH2 0xC3 JUMP JUMPDEST SWAP3 SWAP2 POP POP JUMP JUMPDEST PUSH32 0x4E487B7100000000000000000000000000000000000000000000000000000000 PUSH0 MSTORE PUSH1 0x11 PUSH1 0x4 MSTORE PUSH1 0x24 PUSH0 REVERT JUMPDEST PUSH0 DUP2 SWAP1 POP SWAP2 SWAP1 POP JUMP JUMPDEST PUSH0 PUSH2 0x12B DUP3 PUSH2 0x118 JUMP JUMPDEST SWAP2 POP PUSH0 DUP3 SUB PUSH2 0x13D JUMPI PUSH2 0x13C PUSH2 0xEB JUMP JUMPDEST JUMPDEST PUSH1 0x1 DUP3 SUB SWAP1 POP SWAP2 SWAP1 POP JUMP JUMPDEST PUSH0 PUSH2 0x152 DUP3 PUSH2 0x118 JUMP JUMPDEST SWAP2 POP PUSH32 0xFFFFFFFFFFFFFFFFFFFFFFFFFFFFFFFFFFFFFFFFFFFFFFFFFFFFFFFFFFFFFFFF DUP3 SUB PUSH2 0x184 JUMPI PUSH2 0x183 PUSH2 0xEB JUMP JUMPDEST JUMPDEST PUSH1 0x1 DUP3 ADD SWAP1 POP SWAP2 SWAP1 POP JUMP INVALID LOG2 PUSH5 0x6970667358 0x22 SLT KECCAK256 DUP15 0xB1 0xA5 0xD3 PUSH27 0x9FC5FF28D5D0A8147D55854CDD3BF5343547988467E34BE7006162 PUSH5 0x736F6C6343 STOP ADDMOD 0x1E STOP CALLER "
				},
				"gasEstimates": {
					"creation": {
						"codeDepositCost": "90600",
						"executionCost": "24408",
						"totalCost": "115008"
					},
					"external": {
						"decrement()": "24474",
						"increment()": "24519",
						"rest()": "2465"
					}
				},
				"methodIdentifiers": {
					"decrement()": "2baeceb7",
					"increment()": "d09de08a",
					"rest()": "c0ea09d7"
				}
			},
			"storageLayout": {
				"storage": [
					{
						"astId": 8,
						"contract": "contracts/OperatorAndIfElse.sol:OperatorAndIfElse",
						"label": "rest",
						"offset": 0,
						"slot": "0",
						"type": "t_bool"
					},
					{
						"astId": 10,
						"contract": "contracts/OperatorAndIfElse.sol:OperatorAndIfElse",
						"label": "count",
						"offset": 0,
						"slot": "1",
						"type": "t_uint256"
					}
				],
				"types": {
					"t_bool": {
						"encoding": "inplace",
						"label": "bool",
						"numberOfBytes": "1"
					},
					"t_uint256": {
						"encoding": "inplace",
						"label": "uint256",
						"numberOfBytes": "32"
					}
				}
			},
			"userdoc": {
				"kind": "user",
				"methods": {},
				"version": 1
			}
		}
	}
}