{
	"contracts/Function.sol": {
		"HelperFunctions": {
			"abi": [
				{
					"inputs": [
						{
							"internalType": "uint256",
							"name": "x",
							"type": "uint256"
						},
						{
							"internalType": "uint256",
							"name": "y",
							"type": "uint256"
						}
					],
					"name": "soma",
					"outputs": [
						{
							"internalType": "uint256",
							"name": "",
							"type": "uint256"
						}
					],
					"stateMutability": "nonpayable",
					"type": "function"
				},
				{
					"inputs": [
						{
							"internalType": "uint256",
							"name": "x",
							"type": "uint256"
						},
						{
							"internalType": "uint256",
							"name": "y",
							"type": "uint256"
						}
					],
					"name": "sub",
					"outputs": [
						{
							"internalType": "uint256",
							"name": "",
							"type": "uint256"
						}
					],
					"stateMutability": "nonpayable",
					"type": "function"
				}
			],
			"devdoc": {
				"kind": "dev",
				"methods": {},
				"version": 1
			},
			"evm": {
				"assembly": "    /* \"contracts/Function.sol\":62:520  contract HelperFunctions {\r... */\n  mstore(0x40, 0x80)\n  callvalue\n  dup1\n  iszero\n  tag_1\n  jumpi\n  0x00\n  dup1\n  revert\ntag_1:\n  pop\n  dataSize(sub_0)\n  dup1\n  dataOffset(sub_0)\n  0x00\n  codecopy\n  0x00\n  return\nstop\n\nsub_0: assembly {\n        /* \"contracts/Function.sol\":62:520  contract HelperFunctions {\r... */\n      mstore(0x40, 0x80)\n      callvalue\n      dup1\n      iszero\n      tag_1\n      jumpi\n      0x00\n      dup1\n      revert\n    tag_1:\n      pop\n      jumpi(tag_2, lt(calldatasize, 0x04))\n      shr(0xe0, calldataload(0x00))\n      dup1\n      0x15c50663\n      eq\n      tag_3\n      jumpi\n      dup1\n      0xb67d77c5\n      eq\n      tag_4\n      jumpi\n    tag_2:\n      0x00\n      dup1\n      revert\n        /* \"contracts/Function.sol\":94:207  function soma(uint256 x, uint256 y) public returns(uint256) {\r... */\n    tag_3:\n      tag_5\n      0x04\n      dup1\n      calldatasize\n      sub\n      dup2\n      add\n      swap1\n      tag_6\n      swap2\n      swap1\n      tag_7\n      jump\t// in\n    tag_6:\n      tag_8\n      jump\t// in\n    tag_5:\n      mload(0x40)\n      tag_9\n      swap2\n      swap1\n      tag_10\n      jump\t// in\n    tag_9:\n      mload(0x40)\n      dup1\n      swap2\n      sub\n      swap1\n      return\n        /* \"contracts/Function.sol\":215:350  function sub(uint256 x, uint256 y) external returns(uint256) {\r... */\n    tag_4:\n      tag_11\n      0x04\n      dup1\n      calldatasize\n      sub\n      dup2\n      add\n      swap1\n      tag_12\n      swap2\n      swap1\n      tag_7\n      jump\t// in\n    tag_12:\n      tag_13\n      jump\t// in\n    tag_11:\n      mload(0x40)\n      tag_14\n      swap2\n      swap1\n      tag_10\n      jump\t// in\n    tag_14:\n      mload(0x40)\n      dup1\n      swap2\n      sub\n      swap1\n      return\n        /* \"contracts/Function.sol\":94:207  function soma(uint256 x, uint256 y) public returns(uint256) {\r... */\n    tag_8:\n        /* \"contracts/Function.sol\":145:152  uint256 */\n      0x00\n        /* \"contracts/Function.sol\":198:199  y */\n      dup2\n        /* \"contracts/Function.sol\":194:195  x */\n      dup4\n        /* \"contracts/Function.sol\":194:199  x + y */\n      tag_16\n      swap2\n      swap1\n      tag_17\n      jump\t// in\n    tag_16:\n        /* \"contracts/Function.sol\":187:199  return x + y */\n      swap1\n      pop\n        /* \"contracts/Function.sol\":94:207  function soma(uint256 x, uint256 y) public returns(uint256) {\r... */\n      swap3\n      swap2\n      pop\n      pop\n      jump\t// out\n        /* \"contracts/Function.sol\":215:350  function sub(uint256 x, uint256 y) external returns(uint256) {\r... */\n    tag_13:\n        /* \"contracts/Function.sol\":267:274  uint256 */\n      0x00\n        /* \"contracts/Function.sol\":287:296  soma(2,3) */\n      tag_19\n        /* \"contracts/Function.sol\":292:293  2 */\n      0x02\n        /* \"contracts/Function.sol\":294:295  3 */\n      0x03\n        /* \"contracts/Function.sol\":287:291  soma */\n      tag_8\n        /* \"contracts/Function.sol\":287:296  soma(2,3) */\n      jump\t// in\n    tag_19:\n      pop\n        /* \"contracts/Function.sol\":307:319  fnInternal() */\n      tag_20\n        /* \"contracts/Function.sol\":307:317  fnInternal */\n      tag_21\n        /* \"contracts/Function.sol\":307:319  fnInternal() */\n      jump\t// in\n    tag_20:\n        /* \"contracts/Function.sol\":341:342  y */\n      dup2\n        /* \"contracts/Function.sol\":337:338  x */\n      dup4\n        /* \"contracts/Function.sol\":337:342  x - y */\n      tag_22\n      swap2\n      swap1\n      tag_23\n      jump\t// in\n    tag_22:\n        /* \"contracts/Function.sol\":330:342  return x - y */\n      swap1\n      pop\n        /* \"contracts/Function.sol\":215:350  function sub(uint256 x, uint256 y) external returns(uint256) {\r... */\n      swap3\n      swap2\n      pop\n      pop\n      jump\t// out\n        /* \"contracts/Function.sol\":358:445  function fnInternal() internal {\r... */\n    tag_21:\n        /* \"contracts/Function.sol\":400:411  fnPrivate() */\n      tag_25\n        /* \"contracts/Function.sol\":400:409  fnPrivate */\n      tag_26\n        /* \"contracts/Function.sol\":400:411  fnPrivate() */\n      jump\t// in\n    tag_25:\n        /* \"contracts/Function.sol\":422:431  uint256 x */\n      0x00\n        /* \"contracts/Function.sol\":434:437  100 */\n      0x64\n        /* \"contracts/Function.sol\":422:437  uint256 x = 100 */\n      swap1\n      pop\n        /* \"contracts/Function.sol\":389:445  {\r... */\n      pop\n        /* \"contracts/Function.sol\":358:445  function fnInternal() internal {\r... */\n      jump\t// out\n        /* \"contracts/Function.sol\":453:517  function fnPrivate() private  {\r... */\n    tag_26:\n        /* \"contracts/Function.sol\":494:503  uint256 x */\n      0x00\n        /* \"contracts/Function.sol\":506:509  200 */\n      0xc8\n        /* \"contracts/Function.sol\":494:509  uint256 x = 200 */\n      swap1\n      pop\n        /* \"contracts/Function.sol\":483:517  {\r... */\n      pop\n        /* \"contracts/Function.sol\":453:517  function fnPrivate() private  {\r... */\n      jump\t// out\n        /* \"#utility.yul\":7:146   */\n    tag_29:\n        /* \"#utility.yul\":53:58   */\n      0x00\n        /* \"#utility.yul\":91:97   */\n      dup2\n        /* \"#utility.yul\":78:98   */\n      calldataload\n        /* \"#utility.yul\":69:98   */\n      swap1\n      pop\n        /* \"#utility.yul\":107:140   */\n      tag_31\n        /* \"#utility.yul\":134:139   */\n      dup2\n        /* \"#utility.yul\":107:140   */\n      tag_32\n      jump\t// in\n    tag_31:\n        /* \"#utility.yul\":7:146   */\n      swap3\n      swap2\n      pop\n      pop\n      jump\t// out\n        /* \"#utility.yul\":152:626   */\n    tag_7:\n        /* \"#utility.yul\":220:226   */\n      0x00\n        /* \"#utility.yul\":228:234   */\n      dup1\n        /* \"#utility.yul\":277:279   */\n      0x40\n        /* \"#utility.yul\":265:274   */\n      dup4\n        /* \"#utility.yul\":256:263   */\n      dup6\n        /* \"#utility.yul\":252:275   */\n      sub\n        /* \"#utility.yul\":248:280   */\n      slt\n        /* \"#utility.yul\":245:364   */\n      iszero\n      tag_34\n      jumpi\n        /* \"#utility.yul\":283:362   */\n      tag_35\n      tag_36\n      jump\t// in\n    tag_35:\n        /* \"#utility.yul\":245:364   */\n    tag_34:\n        /* \"#utility.yul\":403:404   */\n      0x00\n        /* \"#utility.yul\":428:481   */\n      tag_37\n        /* \"#utility.yul\":473:480   */\n      dup6\n        /* \"#utility.yul\":464:470   */\n      dup3\n        /* \"#utility.yul\":453:462   */\n      dup7\n        /* \"#utility.yul\":449:471   */\n      add\n        /* \"#utility.yul\":428:481   */\n      tag_29\n      jump\t// in\n    tag_37:\n        /* \"#utility.yul\":418:481   */\n      swap3\n      pop\n        /* \"#utility.yul\":374:491   */\n      pop\n        /* \"#utility.yul\":530:532   */\n      0x20\n        /* \"#utility.yul\":556:609   */\n      tag_38\n        /* \"#utility.yul\":601:608   */\n      dup6\n        /* \"#utility.yul\":592:598   */\n      dup3\n        /* \"#utility.yul\":581:590   */\n      dup7\n        /* \"#utility.yul\":577:599   */\n      add\n        /* \"#utility.yul\":556:609   */\n      tag_29\n      jump\t// in\n    tag_38:\n        /* \"#utility.yul\":546:609   */\n      swap2\n      pop\n        /* \"#utility.yul\":501:619   */\n      pop\n        /* \"#utility.yul\":152:626   */\n      swap3\n      pop\n      swap3\n      swap1\n      pop\n      jump\t// out\n        /* \"#utility.yul\":632:750   */\n    tag_39:\n        /* \"#utility.yul\":719:743   */\n      tag_41\n        /* \"#utility.yul\":737:742   */\n      dup2\n        /* \"#utility.yul\":719:743   */\n      tag_42\n      jump\t// in\n    tag_41:\n        /* \"#utility.yul\":714:717   */\n      dup3\n        /* \"#utility.yul\":707:744   */\n      mstore\n        /* \"#utility.yul\":632:750   */\n      pop\n      pop\n      jump\t// out\n        /* \"#utility.yul\":756:978   */\n    tag_10:\n        /* \"#utility.yul\":849:853   */\n      0x00\n        /* \"#utility.yul\":887:889   */\n      0x20\n        /* \"#utility.yul\":876:885   */\n      dup3\n        /* \"#utility.yul\":872:890   */\n      add\n        /* \"#utility.yul\":864:890   */\n      swap1\n      pop\n        /* \"#utility.yul\":900:971   */\n      tag_44\n        /* \"#utility.yul\":968:969   */\n      0x00\n        /* \"#utility.yul\":957:966   */\n      dup4\n        /* \"#utility.yul\":953:970   */\n      add\n        /* \"#utility.yul\":944:950   */\n      dup5\n        /* \"#utility.yul\":900:971   */\n      tag_39\n      jump\t// in\n    tag_44:\n        /* \"#utility.yul\":756:978   */\n      swap3\n      swap2\n      pop\n      pop\n      jump\t// out\n        /* \"#utility.yul\":1065:1370   */\n    tag_17:\n        /* \"#utility.yul\":1105:1108   */\n      0x00\n        /* \"#utility.yul\":1124:1144   */\n      tag_48\n        /* \"#utility.yul\":1142:1143   */\n      dup3\n        /* \"#utility.yul\":1124:1144   */\n      tag_42\n      jump\t// in\n    tag_48:\n        /* \"#utility.yul\":1119:1144   */\n      swap2\n      pop\n        /* \"#utility.yul\":1158:1178   */\n      tag_49\n        /* \"#utility.yul\":1176:1177   */\n      dup4\n        /* \"#utility.yul\":1158:1178   */\n      tag_42\n      jump\t// in\n    tag_49:\n        /* \"#utility.yul\":1153:1178   */\n      swap3\n      pop\n        /* \"#utility.yul\":1312:1313   */\n      dup3\n        /* \"#utility.yul\":1244:1310   */\n      0xffffffffffffffffffffffffffffffffffffffffffffffffffffffffffffffff\n        /* \"#utility.yul\":1240:1314   */\n      sub\n        /* \"#utility.yul\":1237:1238   */\n      dup3\n        /* \"#utility.yul\":1234:1315   */\n      gt\n        /* \"#utility.yul\":1231:1338   */\n      iszero\n      tag_50\n      jumpi\n        /* \"#utility.yul\":1318:1336   */\n      tag_51\n      tag_52\n      jump\t// in\n    tag_51:\n        /* \"#utility.yul\":1231:1338   */\n    tag_50:\n        /* \"#utility.yul\":1362:1363   */\n      dup3\n        /* \"#utility.yul\":1359:1360   */\n      dup3\n        /* \"#utility.yul\":1355:1364   */\n      add\n        /* \"#utility.yul\":1348:1364   */\n      swap1\n      pop\n        /* \"#utility.yul\":1065:1370   */\n      swap3\n      swap2\n      pop\n      pop\n      jump\t// out\n        /* \"#utility.yul\":1376:1567   */\n    tag_23:\n        /* \"#utility.yul\":1416:1420   */\n      0x00\n        /* \"#utility.yul\":1436:1456   */\n      tag_54\n        /* \"#utility.yul\":1454:1455   */\n      dup3\n        /* \"#utility.yul\":1436:1456   */\n      tag_42\n      jump\t// in\n    tag_54:\n        /* \"#utility.yul\":1431:1456   */\n      swap2\n      pop\n        /* \"#utility.yul\":1470:1490   */\n      tag_55\n        /* \"#utility.yul\":1488:1489   */\n      dup4\n        /* \"#utility.yul\":1470:1490   */\n      tag_42\n      jump\t// in\n    tag_55:\n        /* \"#utility.yul\":1465:1490   */\n      swap3\n      pop\n        /* \"#utility.yul\":1509:1510   */\n      dup3\n        /* \"#utility.yul\":1506:1507   */\n      dup3\n        /* \"#utility.yul\":1503:1511   */\n      lt\n        /* \"#utility.yul\":1500:1534   */\n      iszero\n      tag_56\n      jumpi\n        /* \"#utility.yul\":1514:1532   */\n      tag_57\n      tag_52\n      jump\t// in\n    tag_57:\n        /* \"#utility.yul\":1500:1534   */\n    tag_56:\n        /* \"#utility.yul\":1559:1560   */\n      dup3\n        /* \"#utility.yul\":1556:1557   */\n      dup3\n        /* \"#utility.yul\":1552:1561   */\n      sub\n        /* \"#utility.yul\":1544:1561   */\n      swap1\n      pop\n        /* \"#utility.yul\":1376:1567   */\n      swap3\n      swap2\n      pop\n      pop\n      jump\t// out\n        /* \"#utility.yul\":1573:1650   */\n    tag_42:\n        /* \"#utility.yul\":1610:1617   */\n      0x00\n        /* \"#utility.yul\":1639:1644   */\n      dup2\n        /* \"#utility.yul\":1628:1644   */\n      swap1\n      pop\n        /* \"#utility.yul\":1573:1650   */\n      swap2\n      swap1\n      pop\n      jump\t// out\n        /* \"#utility.yul\":1656:1836   */\n    tag_52:\n        /* \"#utility.yul\":1704:1781   */\n      0x4e487b7100000000000000000000000000000000000000000000000000000000\n        /* \"#utility.yul\":1701:1702   */\n      0x00\n        /* \"#utility.yul\":1694:1782   */\n      mstore\n        /* \"#utility.yul\":1801:1805   */\n      0x11\n        /* \"#utility.yul\":1798:1799   */\n      0x04\n        /* \"#utility.yul\":1791:1806   */\n      mstore\n        /* \"#utility.yul\":1825:1829   */\n      0x24\n        /* \"#utility.yul\":1822:1823   */\n      0x00\n        /* \"#utility.yul\":1815:1830   */\n      revert\n        /* \"#utility.yul\":1965:2082   */\n    tag_36:\n        /* \"#utility.yul\":2074:2075   */\n      0x00\n        /* \"#utility.yul\":2071:2072   */\n      dup1\n        /* \"#utility.yul\":2064:2076   */\n      revert\n        /* \"#utility.yul\":2088:2210   */\n    tag_32:\n        /* \"#utility.yul\":2161:2185   */\n      tag_64\n        /* \"#utility.yul\":2179:2184   */\n      dup2\n        /* \"#utility.yul\":2161:2185   */\n      tag_42\n      jump\t// in\n    tag_64:\n        /* \"#utility.yul\":2154:2159   */\n      dup2\n        /* \"#utility.yul\":2151:2186   */\n      eq\n        /* \"#utility.yul\":2141:2204   */\n      tag_65\n      jumpi\n        /* \"#utility.yul\":2200:2201   */\n      0x00\n        /* \"#utility.yul\":2197:2198   */\n      dup1\n        /* \"#utility.yul\":2190:2202   */\n      revert\n        /* \"#utility.yul\":2141:2204   */\n    tag_65:\n        /* \"#utility.yul\":2088:2210   */\n      pop\n      jump\t// out\n\n    auxdata: 0xa2646970667358221220df7c7382d799bc9436d8d675bb58ba7c5fd3516c61ed541e50dacbbca371842064736f6c63430008070033\n}\n",
				"bytecode": {
					"linkReferences": {},
					"object": "608060405234801561001057600080fd5b5061028a806100206000396000f3fe608060405234801561001057600080fd5b50600436106100365760003560e01c806315c506631461003b578063b67d77c51461006b575b600080fd5b6100556004803603810190610050919061010b565b61009b565b604051610062919061015a565b60405180910390f35b6100856004803603810190610080919061010b565b6100b1565b604051610092919061015a565b60405180910390f35b600081836100a99190610175565b905092915050565b60006100bf6002600361009b565b506100c86100dc565b81836100d491906101cb565b905092915050565b6100e46100ed565b60006064905050565b600060c8905050565b6000813590506101058161023d565b92915050565b6000806040838503121561012257610121610238565b5b6000610130858286016100f6565b9250506020610141858286016100f6565b9150509250929050565b610154816101ff565b82525050565b600060208201905061016f600083018461014b565b92915050565b6000610180826101ff565b915061018b836101ff565b9250827fffffffffffffffffffffffffffffffffffffffffffffffffffffffffffffffff038211156101c0576101bf610209565b5b828201905092915050565b60006101d6826101ff565b91506101e1836101ff565b9250828210156101f4576101f3610209565b5b828203905092915050565b6000819050919050565b7f4e487b7100000000000000000000000000000000000000000000000000000000600052601160045260246000fd5b600080fd5b610246816101ff565b811461025157600080fd5b5056fea2646970667358221220df7c7382d799bc9436d8d675bb58ba7c5fd3516c61ed541e50dacbbca371842064736f6c63430008070033",
					"opcodes": "PUSH1 0x80 PUSH1 0x40 MSTORE CALLVALUE DUP1 ISZERO PUSH2 0x10 JUMPI PUSH1 0x0 DUP1 REVERT JUMPDEST POP PUSH2 0x28A DUP1 PUSH2 0x20 PUSH1 0x0 CODECOPY PUSH1 0x0 RETURN INVALID PUSH1 0x80 PUSH1 0x40 MSTORE CALLVALUE DUP1 ISZERO PUSH2 0x10 JUMPI PUSH1 0x0 DUP1 REVERT JUMPDEST POP PUSH1 0x4 CALLDATASIZE LT PUSH2 0x36 JUMPI PUSH1 0x0 CALLDATALOAD PUSH1 0xE0 SHR DUP1 PUSH4 0x15C50663 EQ PUSH2 0x3B JUMPI DUP1 PUSH4 0xB67D77C5 EQ PUSH2 0x6B JUMPI JUMPDEST PUSH1 0x0 DUP1 REVERT JUMPDEST PUSH2 0x55 PUSH1 0x4 DUP1 CALLDATASIZE SUB DUP2 ADD SWAP1 PUSH2 0x50 SWAP2 SWAP1 PUSH2 0x10B JUMP JUMPDEST PUSH2 0x9B JUMP JUMPDEST PUSH1 0x40 MLOAD PUSH2 0x62 SWAP2 SWAP1 PUSH2 0x15A JUMP JUMPDEST PUSH1 0x40 MLOAD DUP1 SWAP2 SUB SWAP1 RETURN JUMPDEST PUSH2 0x85 PUSH1 0x4 DUP1 CALLDATASIZE SUB DUP2 ADD SWAP1 PUSH2 0x80 SWAP2 SWAP1 PUSH2 0x10B JUMP JUMPDEST PUSH2 0xB1 JUMP JUMPDEST PUSH1 0x40 MLOAD PUSH2 0x92 SWAP2 SWAP1 PUSH2 0x15A JUMP JUMPDEST PUSH1 0x40 MLOAD DUP1 SWAP2 SUB SWAP1 RETURN JUMPDEST PUSH1 0x0 DUP2 DUP4 PUSH2 0xA9 SWAP2 SWAP1 PUSH2 0x175 JUMP JUMPDEST SWAP1 POP SWAP3 SWAP2 POP POP JUMP JUMPDEST PUSH1 0x0 PUSH2 0xBF PUSH1 0x2 PUSH1 0x3 PUSH2 0x9B JUMP JUMPDEST POP PUSH2 0xC8 PUSH2 0xDC JUMP JUMPDEST DUP2 DUP4 PUSH2 0xD4 SWAP2 SWAP1 PUSH2 0x1CB JUMP JUMPDEST SWAP1 POP SWAP3 SWAP2 POP POP JUMP JUMPDEST PUSH2 0xE4 PUSH2 0xED JUMP JUMPDEST PUSH1 0x0 PUSH1 0x64 SWAP1 POP POP JUMP JUMPDEST PUSH1 0x0 PUSH1 0xC8 SWAP1 POP POP JUMP JUMPDEST PUSH1 0x0 DUP2 CALLDATALOAD SWAP1 POP PUSH2 0x105 DUP2 PUSH2 0x23D JUMP JUMPDEST SWAP3 SWAP2 POP POP JUMP JUMPDEST PUSH1 0x0 DUP1 PUSH1 0x40 DUP4 DUP6 SUB SLT ISZERO PUSH2 0x122 JUMPI PUSH2 0x121 PUSH2 0x238 JUMP JUMPDEST JUMPDEST PUSH1 0x0 PUSH2 0x130 DUP6 DUP3 DUP7 ADD PUSH2 0xF6 JUMP JUMPDEST SWAP3 POP POP PUSH1 0x20 PUSH2 0x141 DUP6 DUP3 DUP7 ADD PUSH2 0xF6 JUMP JUMPDEST SWAP2 POP POP SWAP3 POP SWAP3 SWAP1 POP JUMP JUMPDEST PUSH2 0x154 DUP2 PUSH2 0x1FF JUMP JUMPDEST DUP3 MSTORE POP POP JUMP JUMPDEST PUSH1 0x0 PUSH1 0x20 DUP3 ADD SWAP1 POP PUSH2 0x16F PUSH1 0x0 DUP4 ADD DUP5 PUSH2 0x14B JUMP JUMPDEST SWAP3 SWAP2 POP POP JUMP JUMPDEST PUSH1 0x0 PUSH2 0x180 DUP3 PUSH2 0x1FF JUMP JUMPDEST SWAP2 POP PUSH2 0x18B DUP4 PUSH2 0x1FF JUMP JUMPDEST SWAP3 POP DUP3 PUSH32 0xFFFFFFFFFFFFFFFFFFFFFFFFFFFFFFFFFFFFFFFFFFFFFFFFFFFFFFFFFFFFFFFF SUB DUP3 GT ISZERO PUSH2 0x1C0 JUMPI PUSH2 0x1BF PUSH2 0x209 JUMP JUMPDEST JUMPDEST DUP3 DUP3 ADD SWAP1 POP SWAP3 SWAP2 POP POP JUMP JUMPDEST PUSH1 0x0 PUSH2 0x1D6 DUP3 PUSH2 0x1FF JUMP JUMPDEST SWAP2 POP PUSH2 0x1E1 DUP4 PUSH2 0x1FF JUMP JUMPDEST SWAP3 POP DUP3 DUP3 LT ISZERO PUSH2 0x1F4 JUMPI PUSH2 0x1F3 PUSH2 0x209 JUMP JUMPDEST JUMPDEST DUP3 DUP3 SUB SWAP1 POP SWAP3 SWAP2 POP POP JUMP JUMPDEST PUSH1 0x0 DUP2 SWAP1 POP SWAP2 SWAP1 POP JUMP JUMPDEST PUSH32 0x4E487B7100000000000000000000000000000000000000000000000000000000 PUSH1 0x0 MSTORE PUSH1 0x11 PUSH1 0x4 MSTORE PUSH1 0x24 PUSH1 0x0 REVERT JUMPDEST PUSH1 0x0 DUP1 REVERT JUMPDEST PUSH2 0x246 DUP2 PUSH2 0x1FF JUMP JUMPDEST DUP2 EQ PUSH2 0x251 JUMPI PUSH1 0x0 DUP1 REVERT JUMPDEST POP JUMP INVALID LOG2 PUSH5 0x6970667358 0x22 SLT KECCAK256 0xDF PUSH29 0x7382D799BC9436D8D675BB58BA7C5FD3516C61ED541E50DACBBCA37184 KECCAK256 PUSH5 0x736F6C6343 STOP ADDMOD SMOD STOP CALLER "
				},
				"gasEstimates": {
					"creation": {
						"codeDepositCost": "130000",
						"executionCost": "177",
						"totalCost": "130177"
					},
					"external": {
						"soma(uint256,uint256)": "infinite",
						"sub(uint256,uint256)": "infinite"
					},
					"internal": {
						"fnInternal()": "59",
						"fnPrivate()": "22"
					}
				},
				"methodIdentifiers": {
					"soma(uint256,uint256)": "15c50663",
					"sub(uint256,uint256)": "b67d77c5"
				}
			},
			"storageLayout": {
				"storage": [],
				"types": null
			},
			"userdoc": {
				"kind": "user",
				"methods": {},
				"version": 1
			}
		}
	}
}