{
	"contracts/Function.sol": {
		"ContractB": {
			"abi": [
				{
					"inputs": [],
					"name": "fool",
					"outputs": [],
					"stateMutability": "nonpayable",
					"type": "function"
				},
				{
					"inputs": [
						{
							"internalType": "uint256",
							"name": "x",
							"type": "uint256"
						},
						{
							"internalType": "uint256",
							"name": "y",
							"type": "uint256"
						}
					],
					"name": "soma",
					"outputs": [
						{
							"internalType": "uint256",
							"name": "",
							"type": "uint256"
						}
					],
					"stateMutability": "nonpayable",
					"type": "function"
				},
				{
					"inputs": [
						{
							"internalType": "uint256",
							"name": "x",
							"type": "uint256"
						},
						{
							"internalType": "uint256",
							"name": "y",
							"type": "uint256"
						}
					],
					"name": "sub",
					"outputs": [
						{
							"internalType": "uint256",
							"name": "",
							"type": "uint256"
						}
					],
					"stateMutability": "nonpayable",
					"type": "function"
				}
			],
			"devdoc": {
				"kind": "dev",
				"methods": {},
				"version": 1
			},
			"evm": {
				"assembly": "    /* \"contracts/Function.sol\":909:1160  contract ContractB is HelperFunctions {\r... */\n  mstore(0x40, 0x80)\n  callvalue\n  dup1\n  iszero\n  tag_1\n  jumpi\n  0x00\n  dup1\n  revert\ntag_1:\n  pop\n  dataSize(sub_0)\n  dup1\n  dataOffset(sub_0)\n  0x00\n  codecopy\n  0x00\n  return\nstop\n\nsub_0: assembly {\n        /* \"contracts/Function.sol\":909:1160  contract ContractB is HelperFunctions {\r... */\n      mstore(0x40, 0x80)\n      callvalue\n      dup1\n      iszero\n      tag_1\n      jumpi\n      0x00\n      dup1\n      revert\n    tag_1:\n      pop\n      jumpi(tag_2, lt(calldatasize, 0x04))\n      shr(0xe0, calldataload(0x00))\n      dup1\n      0x15c50663\n      eq\n      tag_3\n      jumpi\n      dup1\n      0xb67d77c5\n      eq\n      tag_4\n      jumpi\n      dup1\n      0xf082a3a7\n      eq\n      tag_5\n      jumpi\n    tag_2:\n      0x00\n      dup1\n      revert\n        /* \"contracts/Function.sol\":94:207  function soma(uint256 x, uint256 y) public returns(uint256) {\r... */\n    tag_3:\n      tag_6\n      0x04\n      dup1\n      calldatasize\n      sub\n      dup2\n      add\n      swap1\n      tag_7\n      swap2\n      swap1\n      tag_8\n      jump\t// in\n    tag_7:\n      tag_9\n      jump\t// in\n    tag_6:\n      mload(0x40)\n      tag_10\n      swap2\n      swap1\n      tag_11\n      jump\t// in\n    tag_10:\n      mload(0x40)\n      dup1\n      swap2\n      sub\n      swap1\n      return\n        /* \"contracts/Function.sol\":215:350  function sub(uint256 x, uint256 y) external returns(uint256) {\r... */\n    tag_4:\n      tag_12\n      0x04\n      dup1\n      calldatasize\n      sub\n      dup2\n      add\n      swap1\n      tag_13\n      swap2\n      swap1\n      tag_8\n      jump\t// in\n    tag_13:\n      tag_14\n      jump\t// in\n    tag_12:\n      mload(0x40)\n      tag_15\n      swap2\n      swap1\n      tag_11\n      jump\t// in\n    tag_15:\n      mload(0x40)\n      dup1\n      swap2\n      sub\n      swap1\n      return\n        /* \"contracts/Function.sol\":954:1157  function fool() public {\r... */\n    tag_5:\n      tag_16\n      tag_17\n      jump\t// in\n    tag_16:\n      stop\n        /* \"contracts/Function.sol\":94:207  function soma(uint256 x, uint256 y) public returns(uint256) {\r... */\n    tag_9:\n        /* \"contracts/Function.sol\":145:152  uint256 */\n      0x00\n        /* \"contracts/Function.sol\":198:199  y */\n      dup2\n        /* \"contracts/Function.sol\":194:195  x */\n      dup4\n        /* \"contracts/Function.sol\":194:199  x + y */\n      tag_19\n      swap2\n      swap1\n      tag_20\n      jump\t// in\n    tag_19:\n        /* \"contracts/Function.sol\":187:199  return x + y */\n      swap1\n      pop\n        /* \"contracts/Function.sol\":94:207  function soma(uint256 x, uint256 y) public returns(uint256) {\r... */\n      swap3\n      swap2\n      pop\n      pop\n      jump\t// out\n        /* \"contracts/Function.sol\":215:350  function sub(uint256 x, uint256 y) external returns(uint256) {\r... */\n    tag_14:\n        /* \"contracts/Function.sol\":267:274  uint256 */\n      0x00\n        /* \"contracts/Function.sol\":287:296  soma(2,3) */\n      tag_22\n        /* \"contracts/Function.sol\":292:293  2 */\n      0x02\n        /* \"contracts/Function.sol\":294:295  3 */\n      0x03\n        /* \"contracts/Function.sol\":287:291  soma */\n      tag_9\n        /* \"contracts/Function.sol\":287:296  soma(2,3) */\n      jump\t// in\n    tag_22:\n      pop\n        /* \"contracts/Function.sol\":307:319  fnInternal() */\n      tag_23\n        /* \"contracts/Function.sol\":307:317  fnInternal */\n      tag_24\n        /* \"contracts/Function.sol\":307:319  fnInternal() */\n      jump\t// in\n    tag_23:\n        /* \"contracts/Function.sol\":341:342  y */\n      dup2\n        /* \"contracts/Function.sol\":337:338  x */\n      dup4\n        /* \"contracts/Function.sol\":337:342  x - y */\n      tag_25\n      swap2\n      swap1\n      tag_26\n      jump\t// in\n    tag_25:\n        /* \"contracts/Function.sol\":330:342  return x - y */\n      swap1\n      pop\n        /* \"contracts/Function.sol\":215:350  function sub(uint256 x, uint256 y) external returns(uint256) {\r... */\n      swap3\n      swap2\n      pop\n      pop\n      jump\t// out\n        /* \"contracts/Function.sol\":954:1157  function fool() public {\r... */\n    tag_17:\n        /* \"contracts/Function.sol\":988:998  soma(2, 3) */\n      tag_28\n        /* \"contracts/Function.sol\":993:994  2 */\n      0x02\n        /* \"contracts/Function.sol\":996:997  3 */\n      0x03\n        /* \"contracts/Function.sol\":988:992  soma */\n      tag_9\n        /* \"contracts/Function.sol\":988:998  soma(2, 3) */\n      jump\t// in\n    tag_28:\n      pop\n        /* \"contracts/Function.sol\":1071:1083  fnInternal() */\n      tag_29\n        /* \"contracts/Function.sol\":1071:1081  fnInternal */\n      tag_24\n        /* \"contracts/Function.sol\":1071:1083  fnInternal() */\n      jump\t// in\n    tag_29:\n        /* \"contracts/Function.sol\":954:1157  function fool() public {\r... */\n      jump\t// out\n        /* \"contracts/Function.sol\":358:445  function fnInternal() internal {\r... */\n    tag_24:\n        /* \"contracts/Function.sol\":400:411  fnPrivate() */\n      tag_31\n        /* \"contracts/Function.sol\":400:409  fnPrivate */\n      tag_32\n        /* \"contracts/Function.sol\":400:411  fnPrivate() */\n      jump\t// in\n    tag_31:\n        /* \"contracts/Function.sol\":422:431  uint256 x */\n      0x00\n        /* \"contracts/Function.sol\":434:437  100 */\n      0x64\n        /* \"contracts/Function.sol\":422:437  uint256 x = 100 */\n      swap1\n      pop\n        /* \"contracts/Function.sol\":389:445  {\r... */\n      pop\n        /* \"contracts/Function.sol\":358:445  function fnInternal() internal {\r... */\n      jump\t// out\n        /* \"contracts/Function.sol\":453:517  function fnPrivate() private  {\r... */\n    tag_32:\n        /* \"contracts/Function.sol\":494:503  uint256 x */\n      0x00\n        /* \"contracts/Function.sol\":506:509  200 */\n      0xc8\n        /* \"contracts/Function.sol\":494:509  uint256 x = 200 */\n      swap1\n      pop\n        /* \"contracts/Function.sol\":483:517  {\r... */\n      pop\n        /* \"contracts/Function.sol\":453:517  function fnPrivate() private  {\r... */\n      jump\t// out\n        /* \"#utility.yul\":7:146   */\n    tag_35:\n        /* \"#utility.yul\":53:58   */\n      0x00\n        /* \"#utility.yul\":91:97   */\n      dup2\n        /* \"#utility.yul\":78:98   */\n      calldataload\n        /* \"#utility.yul\":69:98   */\n      swap1\n      pop\n        /* \"#utility.yul\":107:140   */\n      tag_37\n        /* \"#utility.yul\":134:139   */\n      dup2\n        /* \"#utility.yul\":107:140   */\n      tag_38\n      jump\t// in\n    tag_37:\n        /* \"#utility.yul\":7:146   */\n      swap3\n      swap2\n      pop\n      pop\n      jump\t// out\n        /* \"#utility.yul\":152:626   */\n    tag_8:\n        /* \"#utility.yul\":220:226   */\n      0x00\n        /* \"#utility.yul\":228:234   */\n      dup1\n        /* \"#utility.yul\":277:279   */\n      0x40\n        /* \"#utility.yul\":265:274   */\n      dup4\n        /* \"#utility.yul\":256:263   */\n      dup6\n        /* \"#utility.yul\":252:275   */\n      sub\n        /* \"#utility.yul\":248:280   */\n      slt\n        /* \"#utility.yul\":245:364   */\n      iszero\n      tag_40\n      jumpi\n        /* \"#utility.yul\":283:362   */\n      tag_41\n      tag_42\n      jump\t// in\n    tag_41:\n        /* \"#utility.yul\":245:364   */\n    tag_40:\n        /* \"#utility.yul\":403:404   */\n      0x00\n        /* \"#utility.yul\":428:481   */\n      tag_43\n        /* \"#utility.yul\":473:480   */\n      dup6\n        /* \"#utility.yul\":464:470   */\n      dup3\n        /* \"#utility.yul\":453:462   */\n      dup7\n        /* \"#utility.yul\":449:471   */\n      add\n        /* \"#utility.yul\":428:481   */\n      tag_35\n      jump\t// in\n    tag_43:\n        /* \"#utility.yul\":418:481   */\n      swap3\n      pop\n        /* \"#utility.yul\":374:491   */\n      pop\n        /* \"#utility.yul\":530:532   */\n      0x20\n        /* \"#utility.yul\":556:609   */\n      tag_44\n        /* \"#utility.yul\":601:608   */\n      dup6\n        /* \"#utility.yul\":592:598   */\n      dup3\n        /* \"#utility.yul\":581:590   */\n      dup7\n        /* \"#utility.yul\":577:599   */\n      add\n        /* \"#utility.yul\":556:609   */\n      tag_35\n      jump\t// in\n    tag_44:\n        /* \"#utility.yul\":546:609   */\n      swap2\n      pop\n        /* \"#utility.yul\":501:619   */\n      pop\n        /* \"#utility.yul\":152:626   */\n      swap3\n      pop\n      swap3\n      swap1\n      pop\n      jump\t// out\n        /* \"#utility.yul\":632:750   */\n    tag_45:\n        /* \"#utility.yul\":719:743   */\n      tag_47\n        /* \"#utility.yul\":737:742   */\n      dup2\n        /* \"#utility.yul\":719:743   */\n      tag_48\n      jump\t// in\n    tag_47:\n        /* \"#utility.yul\":714:717   */\n      dup3\n        /* \"#utility.yul\":707:744   */\n      mstore\n        /* \"#utility.yul\":632:750   */\n      pop\n      pop\n      jump\t// out\n        /* \"#utility.yul\":756:978   */\n    tag_11:\n        /* \"#utility.yul\":849:853   */\n      0x00\n        /* \"#utility.yul\":887:889   */\n      0x20\n        /* \"#utility.yul\":876:885   */\n      dup3\n        /* \"#utility.yul\":872:890   */\n      add\n        /* \"#utility.yul\":864:890   */\n      swap1\n      pop\n        /* \"#utility.yul\":900:971   */\n      tag_50\n        /* \"#utility.yul\":968:969   */\n      0x00\n        /* \"#utility.yul\":957:966   */\n      dup4\n        /* \"#utility.yul\":953:970   */\n      add\n        /* \"#utility.yul\":944:950   */\n      dup5\n        /* \"#utility.yul\":900:971   */\n      tag_45\n      jump\t// in\n    tag_50:\n        /* \"#utility.yul\":756:978   */\n      swap3\n      swap2\n      pop\n      pop\n      jump\t// out\n        /* \"#utility.yul\":1065:1370   */\n    tag_20:\n        /* \"#utility.yul\":1105:1108   */\n      0x00\n        /* \"#utility.yul\":1124:1144   */\n      tag_54\n        /* \"#utility.yul\":1142:1143   */\n      dup3\n        /* \"#utility.yul\":1124:1144   */\n      tag_48\n      jump\t// in\n    tag_54:\n        /* \"#utility.yul\":1119:1144   */\n      swap2\n      pop\n        /* \"#utility.yul\":1158:1178   */\n      tag_55\n        /* \"#utility.yul\":1176:1177   */\n      dup4\n        /* \"#utility.yul\":1158:1178   */\n      tag_48\n      jump\t// in\n    tag_55:\n        /* \"#utility.yul\":1153:1178   */\n      swap3\n      pop\n        /* \"#utility.yul\":1312:1313   */\n      dup3\n        /* \"#utility.yul\":1244:1310   */\n      0xffffffffffffffffffffffffffffffffffffffffffffffffffffffffffffffff\n        /* \"#utility.yul\":1240:1314   */\n      sub\n        /* \"#utility.yul\":1237:1238   */\n      dup3\n        /* \"#utility.yul\":1234:1315   */\n      gt\n        /* \"#utility.yul\":1231:1338   */\n      iszero\n      tag_56\n      jumpi\n        /* \"#utility.yul\":1318:1336   */\n      tag_57\n      tag_58\n      jump\t// in\n    tag_57:\n        /* \"#utility.yul\":1231:1338   */\n    tag_56:\n        /* \"#utility.yul\":1362:1363   */\n      dup3\n        /* \"#utility.yul\":1359:1360   */\n      dup3\n        /* \"#utility.yul\":1355:1364   */\n      add\n        /* \"#utility.yul\":1348:1364   */\n      swap1\n      pop\n        /* \"#utility.yul\":1065:1370   */\n      swap3\n      swap2\n      pop\n      pop\n      jump\t// out\n        /* \"#utility.yul\":1376:1567   */\n    tag_26:\n        /* \"#utility.yul\":1416:1420   */\n      0x00\n        /* \"#utility.yul\":1436:1456   */\n      tag_60\n        /* \"#utility.yul\":1454:1455   */\n      dup3\n        /* \"#utility.yul\":1436:1456   */\n      tag_48\n      jump\t// in\n    tag_60:\n        /* \"#utility.yul\":1431:1456   */\n      swap2\n      pop\n        /* \"#utility.yul\":1470:1490   */\n      tag_61\n        /* \"#utility.yul\":1488:1489   */\n      dup4\n        /* \"#utility.yul\":1470:1490   */\n      tag_48\n      jump\t// in\n    tag_61:\n        /* \"#utility.yul\":1465:1490   */\n      swap3\n      pop\n        /* \"#utility.yul\":1509:1510   */\n      dup3\n        /* \"#utility.yul\":1506:1507   */\n      dup3\n        /* \"#utility.yul\":1503:1511   */\n      lt\n        /* \"#utility.yul\":1500:1534   */\n      iszero\n      tag_62\n      jumpi\n        /* \"#utility.yul\":1514:1532   */\n      tag_63\n      tag_58\n      jump\t// in\n    tag_63:\n        /* \"#utility.yul\":1500:1534   */\n    tag_62:\n        /* \"#utility.yul\":1559:1560   */\n      dup3\n        /* \"#utility.yul\":1556:1557   */\n      dup3\n        /* \"#utility.yul\":1552:1561   */\n      sub\n        /* \"#utility.yul\":1544:1561   */\n      swap1\n      pop\n        /* \"#utility.yul\":1376:1567   */\n      swap3\n      swap2\n      pop\n      pop\n      jump\t// out\n        /* \"#utility.yul\":1573:1650   */\n    tag_48:\n        /* \"#utility.yul\":1610:1617   */\n      0x00\n        /* \"#utility.yul\":1639:1644   */\n      dup2\n        /* \"#utility.yul\":1628:1644   */\n      swap1\n      pop\n        /* \"#utility.yul\":1573:1650   */\n      swap2\n      swap1\n      pop\n      jump\t// out\n        /* \"#utility.yul\":1656:1836   */\n    tag_58:\n        /* \"#utility.yul\":1704:1781   */\n      0x4e487b7100000000000000000000000000000000000000000000000000000000\n        /* \"#utility.yul\":1701:1702   */\n      0x00\n        /* \"#utility.yul\":1694:1782   */\n      mstore\n        /* \"#utility.yul\":1801:1805   */\n      0x11\n        /* \"#utility.yul\":1798:1799   */\n      0x04\n        /* \"#utility.yul\":1791:1806   */\n      mstore\n        /* \"#utility.yul\":1825:1829   */\n      0x24\n        /* \"#utility.yul\":1822:1823   */\n      0x00\n        /* \"#utility.yul\":1815:1830   */\n      revert\n        /* \"#utility.yul\":1965:2082   */\n    tag_42:\n        /* \"#utility.yul\":2074:2075   */\n      0x00\n        /* \"#utility.yul\":2071:2072   */\n      dup1\n        /* \"#utility.yul\":2064:2076   */\n      revert\n        /* \"#utility.yul\":2088:2210   */\n    tag_38:\n        /* \"#utility.yul\":2161:2185   */\n      tag_70\n        /* \"#utility.yul\":2179:2184   */\n      dup2\n        /* \"#utility.yul\":2161:2185   */\n      tag_48\n      jump\t// in\n    tag_70:\n        /* \"#utility.yul\":2154:2159   */\n      dup2\n        /* \"#utility.yul\":2151:2186   */\n      eq\n        /* \"#utility.yul\":2141:2204   */\n      tag_71\n      jumpi\n        /* \"#utility.yul\":2200:2201   */\n      0x00\n        /* \"#utility.yul\":2197:2198   */\n      dup1\n        /* \"#utility.yul\":2190:2202   */\n      revert\n        /* \"#utility.yul\":2141:2204   */\n    tag_71:\n        /* \"#utility.yul\":2088:2210   */\n      pop\n      jump\t// out\n\n    auxdata: 0xa264697066735822122026fb4c7cca0d10816a52e43bb83518f37b534d4dcebdc646dd6a81de9924283b64736f6c63430008070033\n}\n",
				"bytecode": {
					"linkReferences": {},
					"object": "608060405234801561001057600080fd5b506102b6806100206000396000f3fe608060405234801561001057600080fd5b50600436106100415760003560e01c806315c5066314610046578063b67d77c514610076578063f082a3a7146100a6575b600080fd5b610060600480360381019061005b9190610137565b6100b0565b60405161006d9190610186565b60405180910390f35b610090600480360381019061008b9190610137565b6100c6565b60405161009d9190610186565b60405180910390f35b6100ae6100f1565b005b600081836100be91906101a1565b905092915050565b60006100d4600260036100b0565b506100dd610108565b81836100e991906101f7565b905092915050565b6100fd600260036100b0565b50610106610108565b565b610110610119565b60006064905050565b600060c8905050565b60008135905061013181610269565b92915050565b6000806040838503121561014e5761014d610264565b5b600061015c85828601610122565b925050602061016d85828601610122565b9150509250929050565b6101808161022b565b82525050565b600060208201905061019b6000830184610177565b92915050565b60006101ac8261022b565b91506101b78361022b565b9250827fffffffffffffffffffffffffffffffffffffffffffffffffffffffffffffffff038211156101ec576101eb610235565b5b828201905092915050565b60006102028261022b565b915061020d8361022b565b9250828210156102205761021f610235565b5b828203905092915050565b6000819050919050565b7f4e487b7100000000000000000000000000000000000000000000000000000000600052601160045260246000fd5b600080fd5b6102728161022b565b811461027d57600080fd5b5056fea264697066735822122026fb4c7cca0d10816a52e43bb83518f37b534d4dcebdc646dd6a81de9924283b64736f6c63430008070033",
					"opcodes": "PUSH1 0x80 PUSH1 0x40 MSTORE CALLVALUE DUP1 ISZERO PUSH2 0x10 JUMPI PUSH1 0x0 DUP1 REVERT JUMPDEST POP PUSH2 0x2B6 DUP1 PUSH2 0x20 PUSH1 0x0 CODECOPY PUSH1 0x0 RETURN INVALID PUSH1 0x80 PUSH1 0x40 MSTORE CALLVALUE DUP1 ISZERO PUSH2 0x10 JUMPI PUSH1 0x0 DUP1 REVERT JUMPDEST POP PUSH1 0x4 CALLDATASIZE LT PUSH2 0x41 JUMPI PUSH1 0x0 CALLDATALOAD PUSH1 0xE0 SHR DUP1 PUSH4 0x15C50663 EQ PUSH2 0x46 JUMPI DUP1 PUSH4 0xB67D77C5 EQ PUSH2 0x76 JUMPI DUP1 PUSH4 0xF082A3A7 EQ PUSH2 0xA6 JUMPI JUMPDEST PUSH1 0x0 DUP1 REVERT JUMPDEST PUSH2 0x60 PUSH1 0x4 DUP1 CALLDATASIZE SUB DUP2 ADD SWAP1 PUSH2 0x5B SWAP2 SWAP1 PUSH2 0x137 JUMP JUMPDEST PUSH2 0xB0 JUMP JUMPDEST PUSH1 0x40 MLOAD PUSH2 0x6D SWAP2 SWAP1 PUSH2 0x186 JUMP JUMPDEST PUSH1 0x40 MLOAD DUP1 SWAP2 SUB SWAP1 RETURN JUMPDEST PUSH2 0x90 PUSH1 0x4 DUP1 CALLDATASIZE SUB DUP2 ADD SWAP1 PUSH2 0x8B SWAP2 SWAP1 PUSH2 0x137 JUMP JUMPDEST PUSH2 0xC6 JUMP JUMPDEST PUSH1 0x40 MLOAD PUSH2 0x9D SWAP2 SWAP1 PUSH2 0x186 JUMP JUMPDEST PUSH1 0x40 MLOAD DUP1 SWAP2 SUB SWAP1 RETURN JUMPDEST PUSH2 0xAE PUSH2 0xF1 JUMP JUMPDEST STOP JUMPDEST PUSH1 0x0 DUP2 DUP4 PUSH2 0xBE SWAP2 SWAP1 PUSH2 0x1A1 JUMP JUMPDEST SWAP1 POP SWAP3 SWAP2 POP POP JUMP JUMPDEST PUSH1 0x0 PUSH2 0xD4 PUSH1 0x2 PUSH1 0x3 PUSH2 0xB0 JUMP JUMPDEST POP PUSH2 0xDD PUSH2 0x108 JUMP JUMPDEST DUP2 DUP4 PUSH2 0xE9 SWAP2 SWAP1 PUSH2 0x1F7 JUMP JUMPDEST SWAP1 POP SWAP3 SWAP2 POP POP JUMP JUMPDEST PUSH2 0xFD PUSH1 0x2 PUSH1 0x3 PUSH2 0xB0 JUMP JUMPDEST POP PUSH2 0x106 PUSH2 0x108 JUMP JUMPDEST JUMP JUMPDEST PUSH2 0x110 PUSH2 0x119 JUMP JUMPDEST PUSH1 0x0 PUSH1 0x64 SWAP1 POP POP JUMP JUMPDEST PUSH1 0x0 PUSH1 0xC8 SWAP1 POP POP JUMP JUMPDEST PUSH1 0x0 DUP2 CALLDATALOAD SWAP1 POP PUSH2 0x131 DUP2 PUSH2 0x269 JUMP JUMPDEST SWAP3 SWAP2 POP POP JUMP JUMPDEST PUSH1 0x0 DUP1 PUSH1 0x40 DUP4 DUP6 SUB SLT ISZERO PUSH2 0x14E JUMPI PUSH2 0x14D PUSH2 0x264 JUMP JUMPDEST JUMPDEST PUSH1 0x0 PUSH2 0x15C DUP6 DUP3 DUP7 ADD PUSH2 0x122 JUMP JUMPDEST SWAP3 POP POP PUSH1 0x20 PUSH2 0x16D DUP6 DUP3 DUP7 ADD PUSH2 0x122 JUMP JUMPDEST SWAP2 POP POP SWAP3 POP SWAP3 SWAP1 POP JUMP JUMPDEST PUSH2 0x180 DUP2 PUSH2 0x22B JUMP JUMPDEST DUP3 MSTORE POP POP JUMP JUMPDEST PUSH1 0x0 PUSH1 0x20 DUP3 ADD SWAP1 POP PUSH2 0x19B PUSH1 0x0 DUP4 ADD DUP5 PUSH2 0x177 JUMP JUMPDEST SWAP3 SWAP2 POP POP JUMP JUMPDEST PUSH1 0x0 PUSH2 0x1AC DUP3 PUSH2 0x22B JUMP JUMPDEST SWAP2 POP PUSH2 0x1B7 DUP4 PUSH2 0x22B JUMP JUMPDEST SWAP3 POP DUP3 PUSH32 0xFFFFFFFFFFFFFFFFFFFFFFFFFFFFFFFFFFFFFFFFFFFFFFFFFFFFFFFFFFFFFFFF SUB DUP3 GT ISZERO PUSH2 0x1EC JUMPI PUSH2 0x1EB PUSH2 0x235 JUMP JUMPDEST JUMPDEST DUP3 DUP3 ADD SWAP1 POP SWAP3 SWAP2 POP POP JUMP JUMPDEST PUSH1 0x0 PUSH2 0x202 DUP3 PUSH2 0x22B JUMP JUMPDEST SWAP2 POP PUSH2 0x20D DUP4 PUSH2 0x22B JUMP JUMPDEST SWAP3 POP DUP3 DUP3 LT ISZERO PUSH2 0x220 JUMPI PUSH2 0x21F PUSH2 0x235 JUMP JUMPDEST JUMPDEST DUP3 DUP3 SUB SWAP1 POP SWAP3 SWAP2 POP POP JUMP JUMPDEST PUSH1 0x0 DUP2 SWAP1 POP SWAP2 SWAP1 POP JUMP JUMPDEST PUSH32 0x4E487B7100000000000000000000000000000000000000000000000000000000 PUSH1 0x0 MSTORE PUSH1 0x11 PUSH1 0x4 MSTORE PUSH1 0x24 PUSH1 0x0 REVERT JUMPDEST PUSH1 0x0 DUP1 REVERT JUMPDEST PUSH2 0x272 DUP2 PUSH2 0x22B JUMP JUMPDEST DUP2 EQ PUSH2 0x27D JUMPI PUSH1 0x0 DUP1 REVERT JUMPDEST POP JUMP INVALID LOG2 PUSH5 0x6970667358 0x22 SLT KECCAK256 0x26 0xFB 0x4C PUSH29 0xCA0D10816A52E43BB83518F37B534D4DCEBDC646DD6A81DE9924283B64 PUSH20 0x6F6C634300080700330000000000000000000000 "
				},
				"gasEstimates": {
					"creation": {
						"codeDepositCost": "138800",
						"executionCost": "183",
						"totalCost": "138983"
					},
					"external": {
						"fool()": "infinite",
						"soma(uint256,uint256)": "infinite",
						"sub(uint256,uint256)": "infinite"
					}
				},
				"methodIdentifiers": {
					"fool()": "f082a3a7",
					"soma(uint256,uint256)": "15c50663",
					"sub(uint256,uint256)": "b67d77c5"
				}
			},
			"storageLayout": {
				"storage": [],
				"types": null
			},
			"userdoc": {
				"kind": "user",
				"methods": {},
				"version": 1
			}
		}
	}
}