{
	"contracts/OperatorAndIfElse.sol": {
		"OperatorAndIfElse": {
			"abi": [
				{
					"inputs": [],
					"name": "count",
					"outputs": [
						{
							"internalType": "uint256",
							"name": "",
							"type": "uint256"
						}
					],
					"stateMutability": "view",
					"type": "function"
				},
				{
					"inputs": [],
					"name": "decrement",
					"outputs": [],
					"stateMutability": "nonpayable",
					"type": "function"
				},
				{
					"inputs": [
						{
							"internalType": "uint256",
							"name": "x",
							"type": "uint256"
						}
					],
					"name": "foo",
					"outputs": [
						{
							"internalType": "uint256",
							"name": "",
							"type": "uint256"
						}
					],
					"stateMutability": "pure",
					"type": "function"
				},
				{
					"inputs": [],
					"name": "increment",
					"outputs": [],
					"stateMutability": "nonpayable",
					"type": "function"
				},
				{
					"inputs": [],
					"name": "rest",
					"outputs": [
						{
							"internalType": "bool",
							"name": "",
							"type": "bool"
						}
					],
					"stateMutability": "view",
					"type": "function"
				},
				{
					"inputs": [
						{
							"internalType": "uint256",
							"name": "x",
							"type": "uint256"
						}
					],
					"name": "ternary",
					"outputs": [
						{
							"internalType": "uint256",
							"name": "",
							"type": "uint256"
						}
					],
					"stateMutability": "pure",
					"type": "function"
				},
				{
					"inputs": [
						{
							"internalType": "bool",
							"name": "b",
							"type": "bool"
						}
					],
					"name": "ternary2",
					"outputs": [
						{
							"internalType": "uint256",
							"name": "",
							"type": "uint256"
						}
					],
					"stateMutability": "pure",
					"type": "function"
				}
			],
			"devdoc": {
				"kind": "dev",
				"methods": {},
				"version": 1
			},
			"evm": {
				"assembly": "    /* \"contracts/OperatorAndIfElse.sol\":62:732  contract OperatorAndIfElse {... */\n  mstore(0x40, 0x80)\n    /* \"contracts/OperatorAndIfElse.sol\":127:128  0 */\n  0x00\n    /* \"contracts/OperatorAndIfElse.sol\":117:123  10 % 2 */\n  0x00\n    /* \"contracts/OperatorAndIfElse.sol\":117:128  10 % 2 == 0 */\n  eq\n    /* \"contracts/OperatorAndIfElse.sol\":98:128  bool public rest = 10 % 2 == 0 */\n  0x00\n  exp(0x0100, 0x00)\n  dup2\n  sload\n  dup2\n  0xff\n  mul\n  not\n  and\n  swap1\n  dup4\n  iszero\n  iszero\n  mul\n  or\n  swap1\n  sstore\n  pop\n    /* \"contracts/OperatorAndIfElse.sol\":62:732  contract OperatorAndIfElse {... */\n  callvalue\n  dup1\n  iszero\n  tag_1\n  jumpi\n  revert(0x00, 0x00)\ntag_1:\n  pop\n  dataSize(sub_0)\n  dup1\n  dataOffset(sub_0)\n  0x00\n  codecopy\n  0x00\n  return\nstop\n\nsub_0: assembly {\n        /* \"contracts/OperatorAndIfElse.sol\":62:732  contract OperatorAndIfElse {... */\n      mstore(0x40, 0x80)\n      callvalue\n      dup1\n      iszero\n      tag_1\n      jumpi\n      revert(0x00, 0x00)\n    tag_1:\n      pop\n      jumpi(tag_2, lt(calldatasize, 0x04))\n      shr(0xe0, calldataload(0x00))\n      dup1\n      0x55278c5b\n      gt\n      tag_10\n      jumpi\n      dup1\n      0x55278c5b\n      eq\n      tag_6\n      jumpi\n      dup1\n      0xc0ea09d7\n      eq\n      tag_7\n      jumpi\n      dup1\n      0xd09de08a\n      eq\n      tag_8\n      jumpi\n      dup1\n      0xe1991b93\n      eq\n      tag_9\n      jumpi\n      jump(tag_2)\n    tag_10:\n      dup1\n      0x06661abd\n      eq\n      tag_3\n      jumpi\n      dup1\n      0x2baeceb7\n      eq\n      tag_4\n      jumpi\n      dup1\n      0x2fbebd38\n      eq\n      tag_5\n      jumpi\n    tag_2:\n      revert(0x00, 0x00)\n        /* \"contracts/OperatorAndIfElse.sol\":137:157  uint256 public count */\n    tag_3:\n      tag_11\n      tag_12\n      jump\t// in\n    tag_11:\n      mload(0x40)\n      tag_13\n      swap2\n      swap1\n      tag_14\n      jump\t// in\n    tag_13:\n      mload(0x40)\n      dup1\n      swap2\n      sub\n      swap1\n      return\n        /* \"contracts/OperatorAndIfElse.sol\":241:297  function decrement() external {... */\n    tag_4:\n      tag_15\n      tag_16\n      jump\t// in\n    tag_15:\n      stop\n        /* \"contracts/OperatorAndIfElse.sol\":305:517  function foo(uint256 x) external pure returns(uint256) {... */\n    tag_5:\n      tag_17\n      0x04\n      dup1\n      calldatasize\n      sub\n      dup2\n      add\n      swap1\n      tag_18\n      swap2\n      swap1\n      tag_19\n      jump\t// in\n    tag_18:\n      tag_20\n      jump\t// in\n    tag_17:\n      mload(0x40)\n      tag_21\n      swap2\n      swap1\n      tag_14\n      jump\t// in\n    tag_21:\n      mload(0x40)\n      dup1\n      swap2\n      sub\n      swap1\n      return\n        /* \"contracts/OperatorAndIfElse.sol\":525:623  function ternary(uint256 x) external pure returns(uint256) {... */\n    tag_6:\n      tag_22\n      0x04\n      dup1\n      calldatasize\n      sub\n      dup2\n      add\n      swap1\n      tag_23\n      swap2\n      swap1\n      tag_19\n      jump\t// in\n    tag_23:\n      tag_24\n      jump\t// in\n    tag_22:\n      mload(0x40)\n      tag_25\n      swap2\n      swap1\n      tag_14\n      jump\t// in\n    tag_25:\n      mload(0x40)\n      dup1\n      swap2\n      sub\n      swap1\n      return\n        /* \"contracts/OperatorAndIfElse.sol\":98:128  bool public rest = 10 % 2 == 0 */\n    tag_7:\n      tag_26\n      tag_27\n      jump\t// in\n    tag_26:\n      mload(0x40)\n      tag_28\n      swap2\n      swap1\n      tag_29\n      jump\t// in\n    tag_28:\n      mload(0x40)\n      dup1\n      swap2\n      sub\n      swap1\n      return\n        /* \"contracts/OperatorAndIfElse.sol\":179:235  function increment() external {... */\n    tag_8:\n      tag_30\n      tag_31\n      jump\t// in\n    tag_30:\n      stop\n        /* \"contracts/OperatorAndIfElse.sol\":629:729  function ternary2(bool b) external pure returns(uint256) {... */\n    tag_9:\n      tag_32\n      0x04\n      dup1\n      calldatasize\n      sub\n      dup2\n      add\n      swap1\n      tag_33\n      swap2\n      swap1\n      tag_34\n      jump\t// in\n    tag_33:\n      tag_35\n      jump\t// in\n    tag_32:\n      mload(0x40)\n      tag_36\n      swap2\n      swap1\n      tag_14\n      jump\t// in\n    tag_36:\n      mload(0x40)\n      dup1\n      swap2\n      sub\n      swap1\n      return\n        /* \"contracts/OperatorAndIfElse.sol\":137:157  uint256 public count */\n    tag_12:\n      sload(0x01)\n      dup2\n      jump\t// out\n        /* \"contracts/OperatorAndIfElse.sol\":241:297  function decrement() external {... */\n    tag_16:\n        /* \"contracts/OperatorAndIfElse.sol\":282:287  count */\n      0x01\n      0x00\n        /* \"contracts/OperatorAndIfElse.sol\":282:289  count-- */\n      dup2\n      sload\n      dup1\n      swap3\n      swap2\n      swap1\n      tag_38\n      swap1\n      tag_39\n      jump\t// in\n    tag_38:\n      swap2\n      swap1\n      pop\n      sstore\n      pop\n        /* \"contracts/OperatorAndIfElse.sol\":241:297  function decrement() external {... */\n      jump\t// out\n        /* \"contracts/OperatorAndIfElse.sol\":305:517  function foo(uint256 x) external pure returns(uint256) {... */\n    tag_20:\n        /* \"contracts/OperatorAndIfElse.sol\":351:358  uint256 */\n      0x00\n        /* \"contracts/OperatorAndIfElse.sol\":379:381  10 */\n      0x0a\n        /* \"contracts/OperatorAndIfElse.sol\":375:376  x */\n      dup3\n        /* \"contracts/OperatorAndIfElse.sol\":375:381  x < 10 */\n      lt\n        /* \"contracts/OperatorAndIfElse.sol\":371:510  if (x < 10){... */\n      iszero\n      tag_41\n      jumpi\n        /* \"contracts/OperatorAndIfElse.sol\":404:405  1 */\n      0x01\n        /* \"contracts/OperatorAndIfElse.sol\":397:405  return 1 */\n      swap1\n      pop\n      jump(tag_40)\n        /* \"contracts/OperatorAndIfElse.sol\":371:510  if (x < 10){... */\n    tag_41:\n        /* \"contracts/OperatorAndIfElse.sol\":430:432  15 */\n      0x0f\n        /* \"contracts/OperatorAndIfElse.sol\":426:427  x */\n      dup3\n        /* \"contracts/OperatorAndIfElse.sol\":426:432  x > 15 */\n      gt\n        /* \"contracts/OperatorAndIfElse.sol\":423:510  if(x > 15) {... */\n      iszero\n      tag_43\n      jumpi\n        /* \"contracts/OperatorAndIfElse.sol\":456:457  2 */\n      0x02\n        /* \"contracts/OperatorAndIfElse.sol\":449:457  return 2 */\n      swap1\n      pop\n      jump(tag_40)\n        /* \"contracts/OperatorAndIfElse.sol\":423:510  if(x > 15) {... */\n    tag_43:\n        /* \"contracts/OperatorAndIfElse.sol\":497:498  0 */\n      0x00\n        /* \"contracts/OperatorAndIfElse.sol\":490:498  return 0 */\n      swap1\n      pop\n        /* \"contracts/OperatorAndIfElse.sol\":305:517  function foo(uint256 x) external pure returns(uint256) {... */\n    tag_40:\n      swap2\n      swap1\n      pop\n      jump\t// out\n        /* \"contracts/OperatorAndIfElse.sol\":525:623  function ternary(uint256 x) external pure returns(uint256) {... */\n    tag_24:\n        /* \"contracts/OperatorAndIfElse.sol\":575:582  uint256 */\n      0x00\n        /* \"contracts/OperatorAndIfElse.sol\":606:607  5 */\n      0x05\n        /* \"contracts/OperatorAndIfElse.sol\":602:603  x */\n      dup3\n        /* \"contracts/OperatorAndIfElse.sol\":602:607  x < 5 */\n      lt\n        /* \"contracts/OperatorAndIfElse.sol\":602:615  x < 5 ? 1 : 2 */\n      tag_46\n      jumpi\n        /* \"contracts/OperatorAndIfElse.sol\":614:615  2 */\n      0x02\n        /* \"contracts/OperatorAndIfElse.sol\":602:615  x < 5 ? 1 : 2 */\n      jump(tag_47)\n    tag_46:\n        /* \"contracts/OperatorAndIfElse.sol\":610:611  1 */\n      0x01\n        /* \"contracts/OperatorAndIfElse.sol\":602:615  x < 5 ? 1 : 2 */\n    tag_47:\n        /* \"contracts/OperatorAndIfElse.sol\":595:615  return x < 5 ? 1 : 2 */\n      0xff\n      and\n      swap1\n      pop\n        /* \"contracts/OperatorAndIfElse.sol\":525:623  function ternary(uint256 x) external pure returns(uint256) {... */\n      swap2\n      swap1\n      pop\n      jump\t// out\n        /* \"contracts/OperatorAndIfElse.sol\":98:128  bool public rest = 10 % 2 == 0 */\n    tag_27:\n      0x00\n      0x00\n      swap1\n      sload\n      swap1\n      0x0100\n      exp\n      swap1\n      div\n      0xff\n      and\n      dup2\n      jump\t// out\n        /* \"contracts/OperatorAndIfElse.sol\":179:235  function increment() external {... */\n    tag_31:\n        /* \"contracts/OperatorAndIfElse.sol\":220:225  count */\n      0x01\n      0x00\n        /* \"contracts/OperatorAndIfElse.sol\":220:227  count++ */\n      dup2\n      sload\n      dup1\n      swap3\n      swap2\n      swap1\n      tag_49\n      swap1\n      tag_50\n      jump\t// in\n    tag_49:\n      swap2\n      swap1\n      pop\n      sstore\n      pop\n        /* \"contracts/OperatorAndIfElse.sol\":179:235  function increment() external {... */\n      jump\t// out\n        /* \"contracts/OperatorAndIfElse.sol\":629:729  function ternary2(bool b) external pure returns(uint256) {... */\n    tag_35:\n        /* \"contracts/OperatorAndIfElse.sol\":677:684  uint256 */\n      0x00\n        /* \"contracts/OperatorAndIfElse.sol\":711:712  b */\n      dup2\n        /* \"contracts/OperatorAndIfElse.sol\":711:720  b ? 1 : 2 */\n      tag_52\n      jumpi\n        /* \"contracts/OperatorAndIfElse.sol\":719:720  2 */\n      0x02\n        /* \"contracts/OperatorAndIfElse.sol\":711:720  b ? 1 : 2 */\n      jump(tag_53)\n    tag_52:\n        /* \"contracts/OperatorAndIfElse.sol\":715:716  1 */\n      0x01\n        /* \"contracts/OperatorAndIfElse.sol\":711:720  b ? 1 : 2 */\n    tag_53:\n        /* \"contracts/OperatorAndIfElse.sol\":704:707  240 */\n      0xf0\n        /* \"contracts/OperatorAndIfElse.sol\":704:721  240 + (b ? 1 : 2) */\n      tag_54\n      swap2\n      swap1\n      tag_55\n      jump\t// in\n    tag_54:\n        /* \"contracts/OperatorAndIfElse.sol\":697:721  return 240 + (b ? 1 : 2) */\n      0xff\n      and\n      swap1\n      pop\n        /* \"contracts/OperatorAndIfElse.sol\":629:729  function ternary2(bool b) external pure returns(uint256) {... */\n      swap2\n      swap1\n      pop\n      jump\t// out\n        /* \"#utility.yul\":7:84   */\n    tag_56:\n        /* \"#utility.yul\":44:51   */\n      0x00\n        /* \"#utility.yul\":73:78   */\n      dup2\n        /* \"#utility.yul\":62:78   */\n      swap1\n      pop\n        /* \"#utility.yul\":7:84   */\n      swap2\n      swap1\n      pop\n      jump\t// out\n        /* \"#utility.yul\":90:208   */\n    tag_57:\n        /* \"#utility.yul\":177:201   */\n      tag_72\n        /* \"#utility.yul\":195:200   */\n      dup2\n        /* \"#utility.yul\":177:201   */\n      tag_56\n      jump\t// in\n    tag_72:\n        /* \"#utility.yul\":172:175   */\n      dup3\n        /* \"#utility.yul\":165:202   */\n      mstore\n        /* \"#utility.yul\":90:208   */\n      pop\n      pop\n      jump\t// out\n        /* \"#utility.yul\":214:436   */\n    tag_14:\n        /* \"#utility.yul\":307:311   */\n      0x00\n        /* \"#utility.yul\":345:347   */\n      0x20\n        /* \"#utility.yul\":334:343   */\n      dup3\n        /* \"#utility.yul\":330:348   */\n      add\n        /* \"#utility.yul\":322:348   */\n      swap1\n      pop\n        /* \"#utility.yul\":358:429   */\n      tag_74\n        /* \"#utility.yul\":426:427   */\n      0x00\n        /* \"#utility.yul\":415:424   */\n      dup4\n        /* \"#utility.yul\":411:428   */\n      add\n        /* \"#utility.yul\":402:408   */\n      dup5\n        /* \"#utility.yul\":358:429   */\n      tag_57\n      jump\t// in\n    tag_74:\n        /* \"#utility.yul\":214:436   */\n      swap3\n      swap2\n      pop\n      pop\n      jump\t// out\n        /* \"#utility.yul\":523:640   */\n    tag_59:\n        /* \"#utility.yul\":632:633   */\n      0x00\n        /* \"#utility.yul\":629:630   */\n      0x00\n        /* \"#utility.yul\":622:634   */\n      revert\n        /* \"#utility.yul\":769:891   */\n    tag_61:\n        /* \"#utility.yul\":842:866   */\n      tag_79\n        /* \"#utility.yul\":860:865   */\n      dup2\n        /* \"#utility.yul\":842:866   */\n      tag_56\n      jump\t// in\n    tag_79:\n        /* \"#utility.yul\":835:840   */\n      dup2\n        /* \"#utility.yul\":832:867   */\n      eq\n        /* \"#utility.yul\":822:885   */\n      tag_80\n      jumpi\n        /* \"#utility.yul\":881:882   */\n      0x00\n        /* \"#utility.yul\":878:879   */\n      0x00\n        /* \"#utility.yul\":871:883   */\n      revert\n        /* \"#utility.yul\":822:885   */\n    tag_80:\n        /* \"#utility.yul\":769:891   */\n      pop\n      jump\t// out\n        /* \"#utility.yul\":897:1036   */\n    tag_62:\n        /* \"#utility.yul\":943:948   */\n      0x00\n        /* \"#utility.yul\":981:987   */\n      dup2\n        /* \"#utility.yul\":968:988   */\n      calldataload\n        /* \"#utility.yul\":959:988   */\n      swap1\n      pop\n        /* \"#utility.yul\":997:1030   */\n      tag_82\n        /* \"#utility.yul\":1024:1029   */\n      dup2\n        /* \"#utility.yul\":997:1030   */\n      tag_61\n      jump\t// in\n    tag_82:\n        /* \"#utility.yul\":897:1036   */\n      swap3\n      swap2\n      pop\n      pop\n      jump\t// out\n        /* \"#utility.yul\":1042:1371   */\n    tag_19:\n        /* \"#utility.yul\":1101:1107   */\n      0x00\n        /* \"#utility.yul\":1150:1152   */\n      0x20\n        /* \"#utility.yul\":1138:1147   */\n      dup3\n        /* \"#utility.yul\":1129:1136   */\n      dup5\n        /* \"#utility.yul\":1125:1148   */\n      sub\n        /* \"#utility.yul\":1121:1153   */\n      slt\n        /* \"#utility.yul\":1118:1237   */\n      iszero\n      tag_84\n      jumpi\n        /* \"#utility.yul\":1156:1235   */\n      tag_85\n      tag_59\n      jump\t// in\n    tag_85:\n        /* \"#utility.yul\":1118:1237   */\n    tag_84:\n        /* \"#utility.yul\":1276:1277   */\n      0x00\n        /* \"#utility.yul\":1301:1354   */\n      tag_86\n        /* \"#utility.yul\":1346:1353   */\n      dup5\n        /* \"#utility.yul\":1337:1343   */\n      dup3\n        /* \"#utility.yul\":1326:1335   */\n      dup6\n        /* \"#utility.yul\":1322:1344   */\n      add\n        /* \"#utility.yul\":1301:1354   */\n      tag_62\n      jump\t// in\n    tag_86:\n        /* \"#utility.yul\":1291:1354   */\n      swap2\n      pop\n        /* \"#utility.yul\":1247:1364   */\n      pop\n        /* \"#utility.yul\":1042:1371   */\n      swap3\n      swap2\n      pop\n      pop\n      jump\t// out\n        /* \"#utility.yul\":1377:1467   */\n    tag_63:\n        /* \"#utility.yul\":1411:1418   */\n      0x00\n        /* \"#utility.yul\":1454:1459   */\n      dup2\n        /* \"#utility.yul\":1447:1460   */\n      iszero\n        /* \"#utility.yul\":1440:1461   */\n      iszero\n        /* \"#utility.yul\":1429:1461   */\n      swap1\n      pop\n        /* \"#utility.yul\":1377:1467   */\n      swap2\n      swap1\n      pop\n      jump\t// out\n        /* \"#utility.yul\":1473:1582   */\n    tag_64:\n        /* \"#utility.yul\":1554:1575   */\n      tag_89\n        /* \"#utility.yul\":1569:1574   */\n      dup2\n        /* \"#utility.yul\":1554:1575   */\n      tag_63\n      jump\t// in\n    tag_89:\n        /* \"#utility.yul\":1549:1552   */\n      dup3\n        /* \"#utility.yul\":1542:1576   */\n      mstore\n        /* \"#utility.yul\":1473:1582   */\n      pop\n      pop\n      jump\t// out\n        /* \"#utility.yul\":1588:1798   */\n    tag_29:\n        /* \"#utility.yul\":1675:1679   */\n      0x00\n        /* \"#utility.yul\":1713:1715   */\n      0x20\n        /* \"#utility.yul\":1702:1711   */\n      dup3\n        /* \"#utility.yul\":1698:1716   */\n      add\n        /* \"#utility.yul\":1690:1716   */\n      swap1\n      pop\n        /* \"#utility.yul\":1726:1791   */\n      tag_91\n        /* \"#utility.yul\":1788:1789   */\n      0x00\n        /* \"#utility.yul\":1777:1786   */\n      dup4\n        /* \"#utility.yul\":1773:1790   */\n      add\n        /* \"#utility.yul\":1764:1770   */\n      dup5\n        /* \"#utility.yul\":1726:1791   */\n      tag_64\n      jump\t// in\n    tag_91:\n        /* \"#utility.yul\":1588:1798   */\n      swap3\n      swap2\n      pop\n      pop\n      jump\t// out\n        /* \"#utility.yul\":1804:1920   */\n    tag_65:\n        /* \"#utility.yul\":1874:1895   */\n      tag_93\n        /* \"#utility.yul\":1889:1894   */\n      dup2\n        /* \"#utility.yul\":1874:1895   */\n      tag_63\n      jump\t// in\n    tag_93:\n        /* \"#utility.yul\":1867:1872   */\n      dup2\n        /* \"#utility.yul\":1864:1896   */\n      eq\n        /* \"#utility.yul\":1854:1914   */\n      tag_94\n      jumpi\n        /* \"#utility.yul\":1910:1911   */\n      0x00\n        /* \"#utility.yul\":1907:1908   */\n      0x00\n        /* \"#utility.yul\":1900:1912   */\n      revert\n        /* \"#utility.yul\":1854:1914   */\n    tag_94:\n        /* \"#utility.yul\":1804:1920   */\n      pop\n      jump\t// out\n        /* \"#utility.yul\":1926:2059   */\n    tag_66:\n        /* \"#utility.yul\":1969:1974   */\n      0x00\n        /* \"#utility.yul\":2007:2013   */\n      dup2\n        /* \"#utility.yul\":1994:2014   */\n      calldataload\n        /* \"#utility.yul\":1985:2014   */\n      swap1\n      pop\n        /* \"#utility.yul\":2023:2053   */\n      tag_96\n        /* \"#utility.yul\":2047:2052   */\n      dup2\n        /* \"#utility.yul\":2023:2053   */\n      tag_65\n      jump\t// in\n    tag_96:\n        /* \"#utility.yul\":1926:2059   */\n      swap3\n      swap2\n      pop\n      pop\n      jump\t// out\n        /* \"#utility.yul\":2065:2388   */\n    tag_34:\n        /* \"#utility.yul\":2121:2127   */\n      0x00\n        /* \"#utility.yul\":2170:2172   */\n      0x20\n        /* \"#utility.yul\":2158:2167   */\n      dup3\n        /* \"#utility.yul\":2149:2156   */\n      dup5\n        /* \"#utility.yul\":2145:2168   */\n      sub\n        /* \"#utility.yul\":2141:2173   */\n      slt\n        /* \"#utility.yul\":2138:2257   */\n      iszero\n      tag_98\n      jumpi\n        /* \"#utility.yul\":2176:2255   */\n      tag_99\n      tag_59\n      jump\t// in\n    tag_99:\n        /* \"#utility.yul\":2138:2257   */\n    tag_98:\n        /* \"#utility.yul\":2296:2297   */\n      0x00\n        /* \"#utility.yul\":2321:2371   */\n      tag_100\n        /* \"#utility.yul\":2363:2370   */\n      dup5\n        /* \"#utility.yul\":2354:2360   */\n      dup3\n        /* \"#utility.yul\":2343:2352   */\n      dup6\n        /* \"#utility.yul\":2339:2361   */\n      add\n        /* \"#utility.yul\":2321:2371   */\n      tag_66\n      jump\t// in\n    tag_100:\n        /* \"#utility.yul\":2311:2371   */\n      swap2\n      pop\n        /* \"#utility.yul\":2267:2381   */\n      pop\n        /* \"#utility.yul\":2065:2388   */\n      swap3\n      swap2\n      pop\n      pop\n      jump\t// out\n        /* \"#utility.yul\":2394:2574   */\n    tag_67:\n        /* \"#utility.yul\":2442:2519   */\n      0x4e487b7100000000000000000000000000000000000000000000000000000000\n        /* \"#utility.yul\":2439:2440   */\n      0x00\n        /* \"#utility.yul\":2432:2520   */\n      mstore\n        /* \"#utility.yul\":2539:2543   */\n      0x11\n        /* \"#utility.yul\":2536:2537   */\n      0x04\n        /* \"#utility.yul\":2529:2544   */\n      mstore\n        /* \"#utility.yul\":2563:2567   */\n      0x24\n        /* \"#utility.yul\":2560:2561   */\n      0x00\n        /* \"#utility.yul\":2553:2568   */\n      revert\n        /* \"#utility.yul\":2580:2751   */\n    tag_39:\n        /* \"#utility.yul\":2619:2622   */\n      0x00\n        /* \"#utility.yul\":2642:2666   */\n      tag_103\n        /* \"#utility.yul\":2660:2665   */\n      dup3\n        /* \"#utility.yul\":2642:2666   */\n      tag_56\n      jump\t// in\n    tag_103:\n        /* \"#utility.yul\":2633:2666   */\n      swap2\n      pop\n        /* \"#utility.yul\":2688:2692   */\n      0x00\n        /* \"#utility.yul\":2681:2686   */\n      dup3\n        /* \"#utility.yul\":2678:2693   */\n      sub\n        /* \"#utility.yul\":2675:2716   */\n      tag_104\n      jumpi\n        /* \"#utility.yul\":2696:2714   */\n      tag_105\n      tag_67\n      jump\t// in\n    tag_105:\n        /* \"#utility.yul\":2675:2716   */\n    tag_104:\n        /* \"#utility.yul\":2743:2744   */\n      0x01\n        /* \"#utility.yul\":2736:2741   */\n      dup3\n        /* \"#utility.yul\":2732:2745   */\n      sub\n        /* \"#utility.yul\":2725:2745   */\n      swap1\n      pop\n        /* \"#utility.yul\":2580:2751   */\n      swap2\n      swap1\n      pop\n      jump\t// out\n        /* \"#utility.yul\":2757:2990   */\n    tag_50:\n        /* \"#utility.yul\":2796:2799   */\n      0x00\n        /* \"#utility.yul\":2819:2843   */\n      tag_107\n        /* \"#utility.yul\":2837:2842   */\n      dup3\n        /* \"#utility.yul\":2819:2843   */\n      tag_56\n      jump\t// in\n    tag_107:\n        /* \"#utility.yul\":2810:2843   */\n      swap2\n      pop\n        /* \"#utility.yul\":2865:2931   */\n      0xffffffffffffffffffffffffffffffffffffffffffffffffffffffffffffffff\n        /* \"#utility.yul\":2858:2863   */\n      dup3\n        /* \"#utility.yul\":2855:2932   */\n      sub\n        /* \"#utility.yul\":2852:2955   */\n      tag_108\n      jumpi\n        /* \"#utility.yul\":2935:2953   */\n      tag_109\n      tag_67\n      jump\t// in\n    tag_109:\n        /* \"#utility.yul\":2852:2955   */\n    tag_108:\n        /* \"#utility.yul\":2982:2983   */\n      0x01\n        /* \"#utility.yul\":2975:2980   */\n      dup3\n        /* \"#utility.yul\":2971:2984   */\n      add\n        /* \"#utility.yul\":2964:2984   */\n      swap1\n      pop\n        /* \"#utility.yul\":2757:2990   */\n      swap2\n      swap1\n      pop\n      jump\t// out\n        /* \"#utility.yul\":2996:3082   */\n    tag_68:\n        /* \"#utility.yul\":3031:3038   */\n      0x00\n        /* \"#utility.yul\":3071:3075   */\n      0xff\n        /* \"#utility.yul\":3064:3069   */\n      dup3\n        /* \"#utility.yul\":3060:3076   */\n      and\n        /* \"#utility.yul\":3049:3076   */\n      swap1\n      pop\n        /* \"#utility.yul\":2996:3082   */\n      swap2\n      swap1\n      pop\n      jump\t// out\n        /* \"#utility.yul\":3088:3276   */\n    tag_55:\n        /* \"#utility.yul\":3126:3129   */\n      0x00\n        /* \"#utility.yul\":3145:3163   */\n      tag_112\n        /* \"#utility.yul\":3161:3162   */\n      dup3\n        /* \"#utility.yul\":3145:3163   */\n      tag_68\n      jump\t// in\n    tag_112:\n        /* \"#utility.yul\":3140:3163   */\n      swap2\n      pop\n        /* \"#utility.yul\":3177:3195   */\n      tag_113\n        /* \"#utility.yul\":3193:3194   */\n      dup4\n        /* \"#utility.yul\":3177:3195   */\n      tag_68\n      jump\t// in\n    tag_113:\n        /* \"#utility.yul\":3172:3195   */\n      swap3\n      pop\n        /* \"#utility.yul\":3218:3219   */\n      dup3\n        /* \"#utility.yul\":3215:3216   */\n      dup3\n        /* \"#utility.yul\":3211:3220   */\n      add\n        /* \"#utility.yul\":3204:3220   */\n      swap1\n      pop\n        /* \"#utility.yul\":3241:3245   */\n      0xff\n        /* \"#utility.yul\":3236:3239   */\n      dup2\n        /* \"#utility.yul\":3233:3246   */\n      gt\n        /* \"#utility.yul\":3230:3269   */\n      iszero\n      tag_114\n      jumpi\n        /* \"#utility.yul\":3249:3267   */\n      tag_115\n      tag_67\n      jump\t// in\n    tag_115:\n        /* \"#utility.yul\":3230:3269   */\n    tag_114:\n        /* \"#utility.yul\":3088:3276   */\n      swap3\n      swap2\n      pop\n      pop\n      jump\t// out\n\n    auxdata: 0xa264697066735822122091e68c597a0906b5ed7cc88983cf474c6711ed009dcc502cef80a43aa956faa364736f6c634300081e0033\n}\n",
				"bytecode": {
					"linkReferences": {},
					"object": "60806040525f5f145f5f6101000a81548160ff0219169083151502179055503480156028575f5ffd5b5061043c806100365f395ff3fe608060405234801561000f575f5ffd5b506004361061007b575f3560e01c806355278c5b1161005957806355278c5b146100d7578063c0ea09d714610107578063d09de08a14610125578063e1991b931461012f5761007b565b806306661abd1461007f5780632baeceb71461009d5780632fbebd38146100a7575b5f5ffd5b61008761015f565b6040516100949190610231565b60405180910390f35b6100a5610165565b005b6100c160048036038101906100bc9190610278565b61017e565b6040516100ce9190610231565b60405180910390f35b6100f160048036038101906100ec9190610278565b6101ac565b6040516100fe9190610231565b60405180910390f35b61010f6101c9565b60405161011c91906102bd565b60405180910390f35b61012d6101da565b005b61014960048036038101906101449190610300565b6101f3565b6040516101569190610231565b60405180910390f35b60015481565b60015f81548092919061017790610358565b9190505550565b5f600a82101561019157600190506101a7565b600f8211156101a357600290506101a7565b5f90505b919050565b5f600582106101bc5760026101bf565b60015b60ff169050919050565b5f5f9054906101000a900460ff1681565b60015f8154809291906101ec9061037f565b9190505550565b5f81610200576002610203565b60015b60f061020f91906103d2565b60ff169050919050565b5f819050919050565b61022b81610219565b82525050565b5f6020820190506102445f830184610222565b92915050565b5f5ffd5b61025781610219565b8114610261575f5ffd5b50565b5f813590506102728161024e565b92915050565b5f6020828403121561028d5761028c61024a565b5b5f61029a84828501610264565b91505092915050565b5f8115159050919050565b6102b7816102a3565b82525050565b5f6020820190506102d05f8301846102ae565b92915050565b6102df816102a3565b81146102e9575f5ffd5b50565b5f813590506102fa816102d6565b92915050565b5f602082840312156103155761031461024a565b5b5f610322848285016102ec565b91505092915050565b7f4e487b71000000000000000000000000000000000000000000000000000000005f52601160045260245ffd5b5f61036282610219565b91505f82036103745761037361032b565b5b600182039050919050565b5f61038982610219565b91507fffffffffffffffffffffffffffffffffffffffffffffffffffffffffffffffff82036103bb576103ba61032b565b5b600182019050919050565b5f60ff82169050919050565b5f6103dc826103c6565b91506103e7836103c6565b9250828201905060ff811115610400576103ff61032b565b5b9291505056fea264697066735822122091e68c597a0906b5ed7cc88983cf474c6711ed009dcc502cef80a43aa956faa364736f6c634300081e0033",
					"opcodes": "PUSH1 0x80 PUSH1 0x40 MSTORE PUSH0 PUSH0 EQ PUSH0 PUSH0 PUSH2 0x100 EXP DUP2 SLOAD DUP2 PUSH1 0xFF MUL NOT AND SWAP1 DUP4 ISZERO ISZERO MUL OR SWAP1 SSTORE POP CALLVALUE DUP1 ISZERO PUSH1 0x28 JUMPI PUSH0 PUSH0 REVERT JUMPDEST POP PUSH2 0x43C DUP1 PUSH2 0x36 PUSH0 CODECOPY PUSH0 RETURN INVALID PUSH1 0x80 PUSH1 0x40 MSTORE CALLVALUE DUP1 ISZERO PUSH2 0xF JUMPI PUSH0 PUSH0 REVERT JUMPDEST POP PUSH1 0x4 CALLDATASIZE LT PUSH2 0x7B JUMPI PUSH0 CALLDATALOAD PUSH1 0xE0 SHR DUP1 PUSH4 0x55278C5B GT PUSH2 0x59 JUMPI DUP1 PUSH4 0x55278C5B EQ PUSH2 0xD7 JUMPI DUP1 PUSH4 0xC0EA09D7 EQ PUSH2 0x107 JUMPI DUP1 PUSH4 0xD09DE08A EQ PUSH2 0x125 JUMPI DUP1 PUSH4 0xE1991B93 EQ PUSH2 0x12F JUMPI PUSH2 0x7B JUMP JUMPDEST DUP1 PUSH4 0x6661ABD EQ PUSH2 0x7F JUMPI DUP1 PUSH4 0x2BAECEB7 EQ PUSH2 0x9D JUMPI DUP1 PUSH4 0x2FBEBD38 EQ PUSH2 0xA7 JUMPI JUMPDEST PUSH0 PUSH0 REVERT JUMPDEST PUSH2 0x87 PUSH2 0x15F JUMP JUMPDEST PUSH1 0x40 MLOAD PUSH2 0x94 SWAP2 SWAP1 PUSH2 0x231 JUMP JUMPDEST PUSH1 0x40 MLOAD DUP1 SWAP2 SUB SWAP1 RETURN JUMPDEST PUSH2 0xA5 PUSH2 0x165 JUMP JUMPDEST STOP JUMPDEST PUSH2 0xC1 PUSH1 0x4 DUP1 CALLDATASIZE SUB DUP2 ADD SWAP1 PUSH2 0xBC SWAP2 SWAP1 PUSH2 0x278 JUMP JUMPDEST PUSH2 0x17E JUMP JUMPDEST PUSH1 0x40 MLOAD PUSH2 0xCE SWAP2 SWAP1 PUSH2 0x231 JUMP JUMPDEST PUSH1 0x40 MLOAD DUP1 SWAP2 SUB SWAP1 RETURN JUMPDEST PUSH2 0xF1 PUSH1 0x4 DUP1 CALLDATASIZE SUB DUP2 ADD SWAP1 PUSH2 0xEC SWAP2 SWAP1 PUSH2 0x278 JUMP JUMPDEST PUSH2 0x1AC JUMP JUMPDEST PUSH1 0x40 MLOAD PUSH2 0xFE SWAP2 SWAP1 PUSH2 0x231 JUMP JUMPDEST PUSH1 0x40 MLOAD DUP1 SWAP2 SUB SWAP1 RETURN JUMPDEST PUSH2 0x10F PUSH2 0x1C9 JUMP JUMPDEST PUSH1 0x40 MLOAD PUSH2 0x11C SWAP2 SWAP1 PUSH2 0x2BD JUMP JUMPDEST PUSH1 0x40 MLOAD DUP1 SWAP2 SUB SWAP1 RETURN JUMPDEST PUSH2 0x12D PUSH2 0x1DA JUMP JUMPDEST STOP JUMPDEST PUSH2 0x149 PUSH1 0x4 DUP1 CALLDATASIZE SUB DUP2 ADD SWAP1 PUSH2 0x144 SWAP2 SWAP1 PUSH2 0x300 JUMP JUMPDEST PUSH2 0x1F3 JUMP JUMPDEST PUSH1 0x40 MLOAD PUSH2 0x156 SWAP2 SWAP1 PUSH2 0x231 JUMP JUMPDEST PUSH1 0x40 MLOAD DUP1 SWAP2 SUB SWAP1 RETURN JUMPDEST PUSH1 0x1 SLOAD DUP2 JUMP JUMPDEST PUSH1 0x1 PUSH0 DUP2 SLOAD DUP1 SWAP3 SWAP2 SWAP1 PUSH2 0x177 SWAP1 PUSH2 0x358 JUMP JUMPDEST SWAP2 SWAP1 POP SSTORE POP JUMP JUMPDEST PUSH0 PUSH1 0xA DUP3 LT ISZERO PUSH2 0x191 JUMPI PUSH1 0x1 SWAP1 POP PUSH2 0x1A7 JUMP JUMPDEST PUSH1 0xF DUP3 GT ISZERO PUSH2 0x1A3 JUMPI PUSH1 0x2 SWAP1 POP PUSH2 0x1A7 JUMP JUMPDEST PUSH0 SWAP1 POP JUMPDEST SWAP2 SWAP1 POP JUMP JUMPDEST PUSH0 PUSH1 0x5 DUP3 LT PUSH2 0x1BC JUMPI PUSH1 0x2 PUSH2 0x1BF JUMP JUMPDEST PUSH1 0x1 JUMPDEST PUSH1 0xFF AND SWAP1 POP SWAP2 SWAP1 POP JUMP JUMPDEST PUSH0 PUSH0 SWAP1 SLOAD SWAP1 PUSH2 0x100 EXP SWAP1 DIV PUSH1 0xFF AND DUP2 JUMP JUMPDEST PUSH1 0x1 PUSH0 DUP2 SLOAD DUP1 SWAP3 SWAP2 SWAP1 PUSH2 0x1EC SWAP1 PUSH2 0x37F JUMP JUMPDEST SWAP2 SWAP1 POP SSTORE POP JUMP JUMPDEST PUSH0 DUP2 PUSH2 0x200 JUMPI PUSH1 0x2 PUSH2 0x203 JUMP JUMPDEST PUSH1 0x1 JUMPDEST PUSH1 0xF0 PUSH2 0x20F SWAP2 SWAP1 PUSH2 0x3D2 JUMP JUMPDEST PUSH1 0xFF AND SWAP1 POP SWAP2 SWAP1 POP JUMP JUMPDEST PUSH0 DUP2 SWAP1 POP SWAP2 SWAP1 POP JUMP JUMPDEST PUSH2 0x22B DUP2 PUSH2 0x219 JUMP JUMPDEST DUP3 MSTORE POP POP JUMP JUMPDEST PUSH0 PUSH1 0x20 DUP3 ADD SWAP1 POP PUSH2 0x244 PUSH0 DUP4 ADD DUP5 PUSH2 0x222 JUMP JUMPDEST SWAP3 SWAP2 POP POP JUMP JUMPDEST PUSH0 PUSH0 REVERT JUMPDEST PUSH2 0x257 DUP2 PUSH2 0x219 JUMP JUMPDEST DUP2 EQ PUSH2 0x261 JUMPI PUSH0 PUSH0 REVERT JUMPDEST POP JUMP JUMPDEST PUSH0 DUP2 CALLDATALOAD SWAP1 POP PUSH2 0x272 DUP2 PUSH2 0x24E JUMP JUMPDEST SWAP3 SWAP2 POP POP JUMP JUMPDEST PUSH0 PUSH1 0x20 DUP3 DUP5 SUB SLT ISZERO PUSH2 0x28D JUMPI PUSH2 0x28C PUSH2 0x24A JUMP JUMPDEST JUMPDEST PUSH0 PUSH2 0x29A DUP5 DUP3 DUP6 ADD PUSH2 0x264 JUMP JUMPDEST SWAP2 POP POP SWAP3 SWAP2 POP POP JUMP JUMPDEST PUSH0 DUP2 ISZERO ISZERO SWAP1 POP SWAP2 SWAP1 POP JUMP JUMPDEST PUSH2 0x2B7 DUP2 PUSH2 0x2A3 JUMP JUMPDEST DUP3 MSTORE POP POP JUMP JUMPDEST PUSH0 PUSH1 0x20 DUP3 ADD SWAP1 POP PUSH2 0x2D0 PUSH0 DUP4 ADD DUP5 PUSH2 0x2AE JUMP JUMPDEST SWAP3 SWAP2 POP POP JUMP JUMPDEST PUSH2 0x2DF DUP2 PUSH2 0x2A3 JUMP JUMPDEST DUP2 EQ PUSH2 0x2E9 JUMPI PUSH0 PUSH0 REVERT JUMPDEST POP JUMP JUMPDEST PUSH0 DUP2 CALLDATALOAD SWAP1 POP PUSH2 0x2FA DUP2 PUSH2 0x2D6 JUMP JUMPDEST SWAP3 SWAP2 POP POP JUMP JUMPDEST PUSH0 PUSH1 0x20 DUP3 DUP5 SUB SLT ISZERO PUSH2 0x315 JUMPI PUSH2 0x314 PUSH2 0x24A JUMP JUMPDEST JUMPDEST PUSH0 PUSH2 0x322 DUP5 DUP3 DUP6 ADD PUSH2 0x2EC JUMP JUMPDEST SWAP2 POP POP SWAP3 SWAP2 POP POP JUMP JUMPDEST PUSH32 0x4E487B7100000000000000000000000000000000000000000000000000000000 PUSH0 MSTORE PUSH1 0x11 PUSH1 0x4 MSTORE PUSH1 0x24 PUSH0 REVERT JUMPDEST PUSH0 PUSH2 0x362 DUP3 PUSH2 0x219 JUMP JUMPDEST SWAP2 POP PUSH0 DUP3 SUB PUSH2 0x374 JUMPI PUSH2 0x373 PUSH2 0x32B JUMP JUMPDEST JUMPDEST PUSH1 0x1 DUP3 SUB SWAP1 POP SWAP2 SWAP1 POP JUMP JUMPDEST PUSH0 PUSH2 0x389 DUP3 PUSH2 0x219 JUMP JUMPDEST SWAP2 POP PUSH32 0xFFFFFFFFFFFFFFFFFFFFFFFFFFFFFFFFFFFFFFFFFFFFFFFFFFFFFFFFFFFFFFFF DUP3 SUB PUSH2 0x3BB JUMPI PUSH2 0x3BA PUSH2 0x32B JUMP JUMPDEST JUMPDEST PUSH1 0x1 DUP3 ADD SWAP1 POP SWAP2 SWAP1 POP JUMP JUMPDEST PUSH0 PUSH1 0xFF DUP3 AND SWAP1 POP SWAP2 SWAP1 POP JUMP JUMPDEST PUSH0 PUSH2 0x3DC DUP3 PUSH2 0x3C6 JUMP JUMPDEST SWAP2 POP PUSH2 0x3E7 DUP4 PUSH2 0x3C6 JUMP JUMPDEST SWAP3 POP DUP3 DUP3 ADD SWAP1 POP PUSH1 0xFF DUP2 GT ISZERO PUSH2 0x400 JUMPI PUSH2 0x3FF PUSH2 0x32B JUMP JUMPDEST JUMPDEST SWAP3 SWAP2 POP POP JUMP INVALID LOG2 PUSH5 0x6970667358 0x22 SLT KECCAK256 SWAP2 DUPN 0x8C MSIZE PUSH27 0x906B5ED7CC88983CF474C6711ED009DCC502CEF80A43AA956FAA3 PUSH5 0x736F6C6343 STOP ADDMOD 0x1E STOP CALLER "
				},
				"gasEstimates": {
					"creation": {
						"codeDepositCost": "216800",
						"executionCost": "24524",
						"totalCost": "241324"
					},
					"external": {
						"count()": "2426",
						"decrement()": "24519",
						"foo(uint256)": "infinite",
						"increment()": "24541",
						"rest()": "2487",
						"ternary(uint256)": "infinite",
						"ternary2(bool)": "infinite"
					}
				},
				"methodIdentifiers": {
					"count()": "06661abd",
					"decrement()": "2baeceb7",
					"foo(uint256)": "2fbebd38",
					"increment()": "d09de08a",
					"rest()": "c0ea09d7",
					"ternary(uint256)": "55278c5b",
					"ternary2(bool)": "e1991b93"
				}
			},
			"storageLayout": {
				"storage": [
					{
						"astId": 8,
						"contract": "contracts/OperatorAndIfElse.sol:OperatorAndIfElse",
						"label": "rest",
						"offset": 0,
						"slot": "0",
						"type": "t_bool"
					},
					{
						"astId": 10,
						"contract": "contracts/OperatorAndIfElse.sol:OperatorAndIfElse",
						"label": "count",
						"offset": 0,
						"slot": "1",
						"type": "t_uint256"
					}
				],
				"types": {
					"t_bool": {
						"encoding": "inplace",
						"label": "bool",
						"numberOfBytes": "1"
					},
					"t_uint256": {
						"encoding": "inplace",
						"label": "uint256",
						"numberOfBytes": "32"
					}
				}
			},
			"userdoc": {
				"kind": "user",
				"methods": {},
				"version": 1
			}
		}
	}
}