{
	"contracts/Variables.sol": {
		"Variables": {
			"abi": [
				{
					"inputs": [],
					"name": "addr",
					"outputs": [
						{
							"internalType": "address",
							"name": "",
							"type": "address"
						}
					],
					"stateMutability": "view",
					"type": "function"
				},
				{
					"inputs": [],
					"name": "addr2",
					"outputs": [
						{
							"internalType": "address",
							"name": "",
							"type": "address"
						}
					],
					"stateMutability": "view",
					"type": "function"
				},
				{
					"inputs": [],
					"name": "boolean",
					"outputs": [
						{
							"internalType": "bool",
							"name": "",
							"type": "bool"
						}
					],
					"stateMutability": "view",
					"type": "function"
				},
				{
					"inputs": [],
					"name": "interoComNegativo",
					"outputs": [
						{
							"internalType": "int256",
							"name": "",
							"type": "int256"
						}
					],
					"stateMutability": "view",
					"type": "function"
				},
				{
					"inputs": [],
					"name": "maxInt",
					"outputs": [
						{
							"internalType": "int8",
							"name": "",
							"type": "int8"
						}
					],
					"stateMutability": "view",
					"type": "function"
				},
				{
					"inputs": [],
					"name": "minInt",
					"outputs": [
						{
							"internalType": "int8",
							"name": "",
							"type": "int8"
						}
					],
					"stateMutability": "view",
					"type": "function"
				},
				{
					"inputs": [],
					"name": "unInteiro256",
					"outputs": [
						{
							"internalType": "uint256",
							"name": "",
							"type": "uint256"
						}
					],
					"stateMutability": "view",
					"type": "function"
				},
				{
					"inputs": [],
					"name": "unInteiro8",
					"outputs": [
						{
							"internalType": "uint8",
							"name": "",
							"type": "uint8"
						}
					],
					"stateMutability": "view",
					"type": "function"
				},
				{
					"inputs": [],
					"name": "unInteiroAlias",
					"outputs": [
						{
							"internalType": "uint256",
							"name": "",
							"type": "uint256"
						}
					],
					"stateMutability": "view",
					"type": "function"
				}
			],
			"devdoc": {
				"kind": "dev",
				"methods": {},
				"version": 1
			},
			"evm": {
				"assembly": "    /* \"contracts/Variables.sol\":135:690  contract Variables {\r... */\n  mstore(0x40, 0x80)\n    /* \"contracts/Variables.sol\":183:187  true */\n  0x01\n    /* \"contracts/Variables.sol\":161:187  bool public boolean = true */\n  0x00\n  dup1\n  0x0100\n  exp\n  dup2\n  sload\n  dup2\n  0xff\n  mul\n  not\n  and\n  swap1\n  dup4\n  iszero\n  iszero\n  mul\n  or\n  swap1\n  sstore\n  pop\n    /* \"contracts/Variables.sol\":243:246  255 */\n  0xff\n    /* \"contracts/Variables.sol\":217:246  uint8 public unInteiro8 = 255 */\n  0x00\n  exp(0x0100, 0x01)\n  dup2\n  sload\n  dup2\n  0xff\n  mul\n  not\n  and\n  swap1\n  dup4\n  0xff\n  and\n  mul\n  or\n  swap1\n  sstore\n  pop\n    /* \"contracts/Variables.sol\":314:325  12312312312 */\n  0x02dddef9f8\n    /* \"contracts/Variables.sol\":284:325  uint256 public unInteiro256 = 12312312312 */\n  0x01\n  sstore\n    /* \"contracts/Variables.sol\":394:399  12312 */\n  0x3018\n    /* \"contracts/Variables.sol\":365:399  uint public unInteiroAlias = 12312 */\n  0x02\n  sstore\n    /* \"contracts/Variables.sol\":439:442  200 */\n  0xc8\n    /* \"contracts/Variables.sol\":408:442  int public interoComNegativo = 200 */\n  0x03\n  sstore\n    /* \"contracts/Variables.sol\":470:484  type(int8).min */\n  0xffffffffffffffffffffffffffffffffffffffffffffffffffffffffffffff80\n    /* \"contracts/Variables.sol\":449:484  int8 public minInt = type(int8).min */\n  0x04\n  exp(0x0100, 0x00)\n  dup2\n  sload\n  dup2\n  0xff\n  mul\n  not\n  and\n  swap1\n  dup4\n  0x00\n  signextend\n  0xff\n  and\n  mul\n  or\n  swap1\n  sstore\n  pop\n    /* \"contracts/Variables.sol\":512:526  type(int8).max */\n  0x7f\n    /* \"contracts/Variables.sol\":491:526  int8 public maxInt = type(int8).max */\n  0x04\n  exp(0x0100, 0x01)\n  dup2\n  sload\n  dup2\n  0xff\n  mul\n  not\n  and\n  swap1\n  dup4\n  0x00\n  signextend\n  0xff\n  and\n  mul\n  or\n  swap1\n  sstore\n  pop\n    /* \"contracts/Variables.sol\":557:599  0x5B38Da6a701c568545dCfcB03FcB875f56beddC4 */\n  0x5b38da6a701c568545dcfcb03fcb875f56beddc4\n    /* \"contracts/Variables.sol\":535:599  address public addr = 0x5B38Da6a701c568545dCfcB03FcB875f56beddC4 */\n  0x04\n  exp(0x0100, 0x02)\n  dup2\n  sload\n  dup2\n  0xffffffffffffffffffffffffffffffffffffffff\n  mul\n  not\n  and\n  swap1\n  dup4\n  0xffffffffffffffffffffffffffffffffffffffff\n  and\n  mul\n  or\n  swap1\n  sstore\n  pop\n    /* \"contracts/Variables.sol\":135:690  contract Variables {\r... */\n  callvalue\n  dup1\n  iszero\n  tag_1\n  jumpi\n  0x00\n  dup1\n  revert\ntag_1:\n  pop\n  dataSize(sub_0)\n  dup1\n  dataOffset(sub_0)\n  0x00\n  codecopy\n  0x00\n  return\nstop\n\nsub_0: assembly {\n        /* \"contracts/Variables.sol\":135:690  contract Variables {\r... */\n      mstore(0x40, 0x80)\n      callvalue\n      dup1\n      iszero\n      tag_1\n      jumpi\n      0x00\n      dup1\n      revert\n    tag_1:\n      pop\n      jumpi(tag_2, lt(calldatasize, 0x04))\n      shr(0xe0, calldataload(0x00))\n      dup1\n      0x7e4e14cc\n      gt\n      tag_12\n      jumpi\n      dup1\n      0x7e4e14cc\n      eq\n      tag_7\n      jumpi\n      dup1\n      0x8c600e72\n      eq\n      tag_8\n      jumpi\n      dup1\n      0x8de38f98\n      eq\n      tag_9\n      jumpi\n      dup1\n      0x98dd36e5\n      eq\n      tag_10\n      jumpi\n      dup1\n      0xc5b57bdb\n      eq\n      tag_11\n      jumpi\n      jump(tag_2)\n    tag_12:\n      dup1\n      0x64630ad4\n      eq\n      tag_3\n      jumpi\n      dup1\n      0x767800de\n      eq\n      tag_4\n      jumpi\n      dup1\n      0x77fde0fc\n      eq\n      tag_5\n      jumpi\n      dup1\n      0x7a4c2571\n      eq\n      tag_6\n      jumpi\n    tag_2:\n      0x00\n      dup1\n      revert\n        /* \"contracts/Variables.sol\":365:399  uint public unInteiroAlias = 12312 */\n    tag_3:\n      tag_13\n      tag_14\n      jump\t// in\n    tag_13:\n      mload(0x40)\n      tag_15\n      swap2\n      swap1\n      tag_16\n      jump\t// in\n    tag_15:\n      mload(0x40)\n      dup1\n      swap2\n      sub\n      swap1\n      return\n        /* \"contracts/Variables.sol\":535:599  address public addr = 0x5B38Da6a701c568545dCfcB03FcB875f56beddC4 */\n    tag_4:\n      tag_17\n      tag_18\n      jump\t// in\n    tag_17:\n      mload(0x40)\n      tag_19\n      swap2\n      swap1\n      tag_20\n      jump\t// in\n    tag_19:\n      mload(0x40)\n      dup1\n      swap2\n      sub\n      swap1\n      return\n        /* \"contracts/Variables.sol\":408:442  int public interoComNegativo = 200 */\n    tag_5:\n      tag_21\n      tag_22\n      jump\t// in\n    tag_21:\n      mload(0x40)\n      tag_23\n      swap2\n      swap1\n      tag_24\n      jump\t// in\n    tag_23:\n      mload(0x40)\n      dup1\n      swap2\n      sub\n      swap1\n      return\n        /* \"contracts/Variables.sol\":491:526  int8 public maxInt = type(int8).max */\n    tag_6:\n      tag_25\n      tag_26\n      jump\t// in\n    tag_25:\n      mload(0x40)\n      tag_27\n      swap2\n      swap1\n      tag_28\n      jump\t// in\n    tag_27:\n      mload(0x40)\n      dup1\n      swap2\n      sub\n      swap1\n      return\n        /* \"contracts/Variables.sol\":449:484  int8 public minInt = type(int8).min */\n    tag_7:\n      tag_29\n      tag_30\n      jump\t// in\n    tag_29:\n      mload(0x40)\n      tag_31\n      swap2\n      swap1\n      tag_28\n      jump\t// in\n    tag_31:\n      mload(0x40)\n      dup1\n      swap2\n      sub\n      swap1\n      return\n        /* \"contracts/Variables.sol\":284:325  uint256 public unInteiro256 = 12312312312 */\n    tag_8:\n      tag_32\n      tag_33\n      jump\t// in\n    tag_32:\n      mload(0x40)\n      tag_34\n      swap2\n      swap1\n      tag_16\n      jump\t// in\n    tag_34:\n      mload(0x40)\n      dup1\n      swap2\n      sub\n      swap1\n      return\n        /* \"contracts/Variables.sol\":606:626  address public addr2 */\n    tag_9:\n      tag_35\n      tag_36\n      jump\t// in\n    tag_35:\n      mload(0x40)\n      tag_37\n      swap2\n      swap1\n      tag_20\n      jump\t// in\n    tag_37:\n      mload(0x40)\n      dup1\n      swap2\n      sub\n      swap1\n      return\n        /* \"contracts/Variables.sol\":217:246  uint8 public unInteiro8 = 255 */\n    tag_10:\n      tag_38\n      tag_39\n      jump\t// in\n    tag_38:\n      mload(0x40)\n      tag_40\n      swap2\n      swap1\n      tag_41\n      jump\t// in\n    tag_40:\n      mload(0x40)\n      dup1\n      swap2\n      sub\n      swap1\n      return\n        /* \"contracts/Variables.sol\":161:187  bool public boolean = true */\n    tag_11:\n      tag_42\n      tag_43\n      jump\t// in\n    tag_42:\n      mload(0x40)\n      tag_44\n      swap2\n      swap1\n      tag_45\n      jump\t// in\n    tag_44:\n      mload(0x40)\n      dup1\n      swap2\n      sub\n      swap1\n      return\n        /* \"contracts/Variables.sol\":365:399  uint public unInteiroAlias = 12312 */\n    tag_14:\n      sload(0x02)\n      dup2\n      jump\t// out\n        /* \"contracts/Variables.sol\":535:599  address public addr = 0x5B38Da6a701c568545dCfcB03FcB875f56beddC4 */\n    tag_18:\n      0x04\n      0x02\n      swap1\n      sload\n      swap1\n      0x0100\n      exp\n      swap1\n      div\n      0xffffffffffffffffffffffffffffffffffffffff\n      and\n      dup2\n      jump\t// out\n        /* \"contracts/Variables.sol\":408:442  int public interoComNegativo = 200 */\n    tag_22:\n      sload(0x03)\n      dup2\n      jump\t// out\n        /* \"contracts/Variables.sol\":491:526  int8 public maxInt = type(int8).max */\n    tag_26:\n      0x04\n      0x01\n      swap1\n      sload\n      swap1\n      0x0100\n      exp\n      swap1\n      div\n      0x00\n      signextend\n      dup2\n      jump\t// out\n        /* \"contracts/Variables.sol\":449:484  int8 public minInt = type(int8).min */\n    tag_30:\n      0x04\n      0x00\n      swap1\n      sload\n      swap1\n      0x0100\n      exp\n      swap1\n      div\n      0x00\n      signextend\n      dup2\n      jump\t// out\n        /* \"contracts/Variables.sol\":284:325  uint256 public unInteiro256 = 12312312312 */\n    tag_33:\n      sload(0x01)\n      dup2\n      jump\t// out\n        /* \"contracts/Variables.sol\":606:626  address public addr2 */\n    tag_36:\n      0x05\n      0x00\n      swap1\n      sload\n      swap1\n      0x0100\n      exp\n      swap1\n      div\n      0xffffffffffffffffffffffffffffffffffffffff\n      and\n      dup2\n      jump\t// out\n        /* \"contracts/Variables.sol\":217:246  uint8 public unInteiro8 = 255 */\n    tag_39:\n      0x00\n      0x01\n      swap1\n      sload\n      swap1\n      0x0100\n      exp\n      swap1\n      div\n      0xff\n      and\n      dup2\n      jump\t// out\n        /* \"contracts/Variables.sol\":161:187  bool public boolean = true */\n    tag_43:\n      0x00\n      dup1\n      sload\n      swap1\n      0x0100\n      exp\n      swap1\n      div\n      0xff\n      and\n      dup2\n      jump\t// out\n        /* \"#utility.yul\":7:125   */\n    tag_47:\n        /* \"#utility.yul\":94:118   */\n      tag_49\n        /* \"#utility.yul\":112:117   */\n      dup2\n        /* \"#utility.yul\":94:118   */\n      tag_50\n      jump\t// in\n    tag_49:\n        /* \"#utility.yul\":89:92   */\n      dup3\n        /* \"#utility.yul\":82:119   */\n      mstore\n        /* \"#utility.yul\":7:125   */\n      pop\n      pop\n      jump\t// out\n        /* \"#utility.yul\":131:240   */\n    tag_51:\n        /* \"#utility.yul\":212:233   */\n      tag_53\n        /* \"#utility.yul\":227:232   */\n      dup2\n        /* \"#utility.yul\":212:233   */\n      tag_54\n      jump\t// in\n    tag_53:\n        /* \"#utility.yul\":207:210   */\n      dup3\n        /* \"#utility.yul\":200:234   */\n      mstore\n        /* \"#utility.yul\":131:240   */\n      pop\n      pop\n      jump\t// out\n        /* \"#utility.yul\":246:361   */\n    tag_55:\n        /* \"#utility.yul\":331:354   */\n      tag_57\n        /* \"#utility.yul\":348:353   */\n      dup2\n        /* \"#utility.yul\":331:354   */\n      tag_58\n      jump\t// in\n    tag_57:\n        /* \"#utility.yul\":326:329   */\n      dup3\n        /* \"#utility.yul\":319:355   */\n      mstore\n        /* \"#utility.yul\":246:361   */\n      pop\n      pop\n      jump\t// out\n        /* \"#utility.yul\":367:476   */\n    tag_59:\n        /* \"#utility.yul\":448:469   */\n      tag_61\n        /* \"#utility.yul\":463:468   */\n      dup2\n        /* \"#utility.yul\":448:469   */\n      tag_62\n      jump\t// in\n    tag_61:\n        /* \"#utility.yul\":443:446   */\n      dup3\n        /* \"#utility.yul\":436:470   */\n      mstore\n        /* \"#utility.yul\":367:476   */\n      pop\n      pop\n      jump\t// out\n        /* \"#utility.yul\":482:600   */\n    tag_63:\n        /* \"#utility.yul\":569:593   */\n      tag_65\n        /* \"#utility.yul\":587:592   */\n      dup2\n        /* \"#utility.yul\":569:593   */\n      tag_66\n      jump\t// in\n    tag_65:\n        /* \"#utility.yul\":564:567   */\n      dup3\n        /* \"#utility.yul\":557:594   */\n      mstore\n        /* \"#utility.yul\":482:600   */\n      pop\n      pop\n      jump\t// out\n        /* \"#utility.yul\":606:718   */\n    tag_67:\n        /* \"#utility.yul\":689:711   */\n      tag_69\n        /* \"#utility.yul\":705:710   */\n      dup2\n        /* \"#utility.yul\":689:711   */\n      tag_70\n      jump\t// in\n    tag_69:\n        /* \"#utility.yul\":684:687   */\n      dup3\n        /* \"#utility.yul\":677:712   */\n      mstore\n        /* \"#utility.yul\":606:718   */\n      pop\n      pop\n      jump\t// out\n        /* \"#utility.yul\":724:946   */\n    tag_20:\n        /* \"#utility.yul\":817:821   */\n      0x00\n        /* \"#utility.yul\":855:857   */\n      0x20\n        /* \"#utility.yul\":844:853   */\n      dup3\n        /* \"#utility.yul\":840:858   */\n      add\n        /* \"#utility.yul\":832:858   */\n      swap1\n      pop\n        /* \"#utility.yul\":868:939   */\n      tag_72\n        /* \"#utility.yul\":936:937   */\n      0x00\n        /* \"#utility.yul\":925:934   */\n      dup4\n        /* \"#utility.yul\":921:938   */\n      add\n        /* \"#utility.yul\":912:918   */\n      dup5\n        /* \"#utility.yul\":868:939   */\n      tag_47\n      jump\t// in\n    tag_72:\n        /* \"#utility.yul\":724:946   */\n      swap3\n      swap2\n      pop\n      pop\n      jump\t// out\n        /* \"#utility.yul\":952:1162   */\n    tag_45:\n        /* \"#utility.yul\":1039:1043   */\n      0x00\n        /* \"#utility.yul\":1077:1079   */\n      0x20\n        /* \"#utility.yul\":1066:1075   */\n      dup3\n        /* \"#utility.yul\":1062:1080   */\n      add\n        /* \"#utility.yul\":1054:1080   */\n      swap1\n      pop\n        /* \"#utility.yul\":1090:1155   */\n      tag_74\n        /* \"#utility.yul\":1152:1153   */\n      0x00\n        /* \"#utility.yul\":1141:1150   */\n      dup4\n        /* \"#utility.yul\":1137:1154   */\n      add\n        /* \"#utility.yul\":1128:1134   */\n      dup5\n        /* \"#utility.yul\":1090:1155   */\n      tag_51\n      jump\t// in\n    tag_74:\n        /* \"#utility.yul\":952:1162   */\n      swap3\n      swap2\n      pop\n      pop\n      jump\t// out\n        /* \"#utility.yul\":1168:1386   */\n    tag_24:\n        /* \"#utility.yul\":1259:1263   */\n      0x00\n        /* \"#utility.yul\":1297:1299   */\n      0x20\n        /* \"#utility.yul\":1286:1295   */\n      dup3\n        /* \"#utility.yul\":1282:1300   */\n      add\n        /* \"#utility.yul\":1274:1300   */\n      swap1\n      pop\n        /* \"#utility.yul\":1310:1379   */\n      tag_76\n        /* \"#utility.yul\":1376:1377   */\n      0x00\n        /* \"#utility.yul\":1365:1374   */\n      dup4\n        /* \"#utility.yul\":1361:1378   */\n      add\n        /* \"#utility.yul\":1352:1358   */\n      dup5\n        /* \"#utility.yul\":1310:1379   */\n      tag_55\n      jump\t// in\n    tag_76:\n        /* \"#utility.yul\":1168:1386   */\n      swap3\n      swap2\n      pop\n      pop\n      jump\t// out\n        /* \"#utility.yul\":1392:1602   */\n    tag_28:\n        /* \"#utility.yul\":1479:1483   */\n      0x00\n        /* \"#utility.yul\":1517:1519   */\n      0x20\n        /* \"#utility.yul\":1506:1515   */\n      dup3\n        /* \"#utility.yul\":1502:1520   */\n      add\n        /* \"#utility.yul\":1494:1520   */\n      swap1\n      pop\n        /* \"#utility.yul\":1530:1595   */\n      tag_78\n        /* \"#utility.yul\":1592:1593   */\n      0x00\n        /* \"#utility.yul\":1581:1590   */\n      dup4\n        /* \"#utility.yul\":1577:1594   */\n      add\n        /* \"#utility.yul\":1568:1574   */\n      dup5\n        /* \"#utility.yul\":1530:1595   */\n      tag_59\n      jump\t// in\n    tag_78:\n        /* \"#utility.yul\":1392:1602   */\n      swap3\n      swap2\n      pop\n      pop\n      jump\t// out\n        /* \"#utility.yul\":1608:1830   */\n    tag_16:\n        /* \"#utility.yul\":1701:1705   */\n      0x00\n        /* \"#utility.yul\":1739:1741   */\n      0x20\n        /* \"#utility.yul\":1728:1737   */\n      dup3\n        /* \"#utility.yul\":1724:1742   */\n      add\n        /* \"#utility.yul\":1716:1742   */\n      swap1\n      pop\n        /* \"#utility.yul\":1752:1823   */\n      tag_80\n        /* \"#utility.yul\":1820:1821   */\n      0x00\n        /* \"#utility.yul\":1809:1818   */\n      dup4\n        /* \"#utility.yul\":1805:1822   */\n      add\n        /* \"#utility.yul\":1796:1802   */\n      dup5\n        /* \"#utility.yul\":1752:1823   */\n      tag_63\n      jump\t// in\n    tag_80:\n        /* \"#utility.yul\":1608:1830   */\n      swap3\n      swap2\n      pop\n      pop\n      jump\t// out\n        /* \"#utility.yul\":1836:2050   */\n    tag_41:\n        /* \"#utility.yul\":1925:1929   */\n      0x00\n        /* \"#utility.yul\":1963:1965   */\n      0x20\n        /* \"#utility.yul\":1952:1961   */\n      dup3\n        /* \"#utility.yul\":1948:1966   */\n      add\n        /* \"#utility.yul\":1940:1966   */\n      swap1\n      pop\n        /* \"#utility.yul\":1976:2043   */\n      tag_82\n        /* \"#utility.yul\":2040:2041   */\n      0x00\n        /* \"#utility.yul\":2029:2038   */\n      dup4\n        /* \"#utility.yul\":2025:2042   */\n      add\n        /* \"#utility.yul\":2016:2022   */\n      dup5\n        /* \"#utility.yul\":1976:2043   */\n      tag_67\n      jump\t// in\n    tag_82:\n        /* \"#utility.yul\":1836:2050   */\n      swap3\n      swap2\n      pop\n      pop\n      jump\t// out\n        /* \"#utility.yul\":2056:2152   */\n    tag_50:\n        /* \"#utility.yul\":2093:2100   */\n      0x00\n        /* \"#utility.yul\":2122:2146   */\n      tag_84\n        /* \"#utility.yul\":2140:2145   */\n      dup3\n        /* \"#utility.yul\":2122:2146   */\n      tag_85\n      jump\t// in\n    tag_84:\n        /* \"#utility.yul\":2111:2146   */\n      swap1\n      pop\n        /* \"#utility.yul\":2056:2152   */\n      swap2\n      swap1\n      pop\n      jump\t// out\n        /* \"#utility.yul\":2158:2248   */\n    tag_54:\n        /* \"#utility.yul\":2192:2199   */\n      0x00\n        /* \"#utility.yul\":2235:2240   */\n      dup2\n        /* \"#utility.yul\":2228:2241   */\n      iszero\n        /* \"#utility.yul\":2221:2242   */\n      iszero\n        /* \"#utility.yul\":2210:2242   */\n      swap1\n      pop\n        /* \"#utility.yul\":2158:2248   */\n      swap2\n      swap1\n      pop\n      jump\t// out\n        /* \"#utility.yul\":2254:2330   */\n    tag_58:\n        /* \"#utility.yul\":2290:2297   */\n      0x00\n        /* \"#utility.yul\":2319:2324   */\n      dup2\n        /* \"#utility.yul\":2308:2324   */\n      swap1\n      pop\n        /* \"#utility.yul\":2254:2330   */\n      swap2\n      swap1\n      pop\n      jump\t// out\n        /* \"#utility.yul\":2336:2425   */\n    tag_62:\n        /* \"#utility.yul\":2370:2377   */\n      0x00\n        /* \"#utility.yul\":2413:2418   */\n      dup2\n        /* \"#utility.yul\":2410:2411   */\n      0x00\n        /* \"#utility.yul\":2399:2419   */\n      signextend\n        /* \"#utility.yul\":2388:2419   */\n      swap1\n      pop\n        /* \"#utility.yul\":2336:2425   */\n      swap2\n      swap1\n      pop\n      jump\t// out\n        /* \"#utility.yul\":2431:2557   */\n    tag_85:\n        /* \"#utility.yul\":2468:2475   */\n      0x00\n        /* \"#utility.yul\":2508:2550   */\n      0xffffffffffffffffffffffffffffffffffffffff\n        /* \"#utility.yul\":2501:2506   */\n      dup3\n        /* \"#utility.yul\":2497:2551   */\n      and\n        /* \"#utility.yul\":2486:2551   */\n      swap1\n      pop\n        /* \"#utility.yul\":2431:2557   */\n      swap2\n      swap1\n      pop\n      jump\t// out\n        /* \"#utility.yul\":2563:2640   */\n    tag_66:\n        /* \"#utility.yul\":2600:2607   */\n      0x00\n        /* \"#utility.yul\":2629:2634   */\n      dup2\n        /* \"#utility.yul\":2618:2634   */\n      swap1\n      pop\n        /* \"#utility.yul\":2563:2640   */\n      swap2\n      swap1\n      pop\n      jump\t// out\n        /* \"#utility.yul\":2646:2732   */\n    tag_70:\n        /* \"#utility.yul\":2681:2688   */\n      0x00\n        /* \"#utility.yul\":2721:2725   */\n      0xff\n        /* \"#utility.yul\":2714:2719   */\n      dup3\n        /* \"#utility.yul\":2710:2726   */\n      and\n        /* \"#utility.yul\":2699:2726   */\n      swap1\n      pop\n        /* \"#utility.yul\":2646:2732   */\n      swap2\n      swap1\n      pop\n      jump\t// out\n\n    auxdata: 0xa2646970667358221220ec749304f0093c0185c5007e67eee2e6e36bbc1bffdcbd655f41d1381b2704b464736f6c63430008070033\n}\n",
				"bytecode": {
					"linkReferences": {},
					"object": "608060405260016000806101000a81548160ff02191690831515021790555060ff600060016101000a81548160ff021916908360ff1602179055506402dddef9f860015561301860025560c86003557fffffffffffffffffffffffffffffffffffffffffffffffffffffffffffffff80600460006101000a81548160ff021916908360000b60ff160217905550607f600460016101000a81548160ff021916908360000b60ff160217905550735b38da6a701c568545dcfcb03fcb875f56beddc4600460026101000a81548173ffffffffffffffffffffffffffffffffffffffff021916908373ffffffffffffffffffffffffffffffffffffffff16021790555034801561010c57600080fd5b506103ec8061011c6000396000f3fe608060405234801561001057600080fd5b50600436106100935760003560e01c80637e4e14cc116100665780637e4e14cc146101105780638c600e721461012e5780638de38f981461014c57806398dd36e51461016a578063c5b57bdb1461018857610093565b806364630ad414610098578063767800de146100b657806377fde0fc146100d45780637a4c2571146100f2575b600080fd5b6100a06101a6565b6040516100ad9190610314565b60405180910390f35b6100be6101ac565b6040516100cb91906102a8565b60405180910390f35b6100dc6101d2565b6040516100e991906102de565b60405180910390f35b6100fa6101d8565b60405161010791906102f9565b60405180910390f35b6101186101eb565b60405161012591906102f9565b60405180910390f35b6101366101fe565b6040516101439190610314565b60405180910390f35b610154610204565b60405161016191906102a8565b60405180910390f35b61017261022a565b60405161017f919061032f565b60405180910390f35b61019061023d565b60405161019d91906102c3565b60405180910390f35b60025481565b600460029054906101000a900473ffffffffffffffffffffffffffffffffffffffff1681565b60035481565b600460019054906101000a900460000b81565b600460009054906101000a900460000b81565b60015481565b600560009054906101000a900473ffffffffffffffffffffffffffffffffffffffff1681565b600060019054906101000a900460ff1681565b60008054906101000a900460ff1681565b6102578161034a565b82525050565b6102668161035c565b82525050565b61027581610368565b82525050565b61028481610372565b82525050565b6102938161039f565b82525050565b6102a2816103a9565b82525050565b60006020820190506102bd600083018461024e565b92915050565b60006020820190506102d8600083018461025d565b92915050565b60006020820190506102f3600083018461026c565b92915050565b600060208201905061030e600083018461027b565b92915050565b6000602082019050610329600083018461028a565b92915050565b60006020820190506103446000830184610299565b92915050565b60006103558261037f565b9050919050565b60008115159050919050565b6000819050919050565b60008160000b9050919050565b600073ffffffffffffffffffffffffffffffffffffffff82169050919050565b6000819050919050565b600060ff8216905091905056fea2646970667358221220ec749304f0093c0185c5007e67eee2e6e36bbc1bffdcbd655f41d1381b2704b464736f6c63430008070033",
					"opcodes": "PUSH1 0x80 PUSH1 0x40 MSTORE PUSH1 0x1 PUSH1 0x0 DUP1 PUSH2 0x100 EXP DUP2 SLOAD DUP2 PUSH1 0xFF MUL NOT AND SWAP1 DUP4 ISZERO ISZERO MUL OR SWAP1 SSTORE POP PUSH1 0xFF PUSH1 0x0 PUSH1 0x1 PUSH2 0x100 EXP DUP2 SLOAD DUP2 PUSH1 0xFF MUL NOT AND SWAP1 DUP4 PUSH1 0xFF AND MUL OR SWAP1 SSTORE POP PUSH5 0x2DDDEF9F8 PUSH1 0x1 SSTORE PUSH2 0x3018 PUSH1 0x2 SSTORE PUSH1 0xC8 PUSH1 0x3 SSTORE PUSH32 0xFFFFFFFFFFFFFFFFFFFFFFFFFFFFFFFFFFFFFFFFFFFFFFFFFFFFFFFFFFFFFF80 PUSH1 0x4 PUSH1 0x0 PUSH2 0x100 EXP DUP2 SLOAD DUP2 PUSH1 0xFF MUL NOT AND SWAP1 DUP4 PUSH1 0x0 SIGNEXTEND PUSH1 0xFF AND MUL OR SWAP1 SSTORE POP PUSH1 0x7F PUSH1 0x4 PUSH1 0x1 PUSH2 0x100 EXP DUP2 SLOAD DUP2 PUSH1 0xFF MUL NOT AND SWAP1 DUP4 PUSH1 0x0 SIGNEXTEND PUSH1 0xFF AND MUL OR SWAP1 SSTORE POP PUSH20 0x5B38DA6A701C568545DCFCB03FCB875F56BEDDC4 PUSH1 0x4 PUSH1 0x2 PUSH2 0x100 EXP DUP2 SLOAD DUP2 PUSH20 0xFFFFFFFFFFFFFFFFFFFFFFFFFFFFFFFFFFFFFFFF MUL NOT AND SWAP1 DUP4 PUSH20 0xFFFFFFFFFFFFFFFFFFFFFFFFFFFFFFFFFFFFFFFF AND MUL OR SWAP1 SSTORE POP CALLVALUE DUP1 ISZERO PUSH2 0x10C JUMPI PUSH1 0x0 DUP1 REVERT JUMPDEST POP PUSH2 0x3EC DUP1 PUSH2 0x11C PUSH1 0x0 CODECOPY PUSH1 0x0 RETURN INVALID PUSH1 0x80 PUSH1 0x40 MSTORE CALLVALUE DUP1 ISZERO PUSH2 0x10 JUMPI PUSH1 0x0 DUP1 REVERT JUMPDEST POP PUSH1 0x4 CALLDATASIZE LT PUSH2 0x93 JUMPI PUSH1 0x0 CALLDATALOAD PUSH1 0xE0 SHR DUP1 PUSH4 0x7E4E14CC GT PUSH2 0x66 JUMPI DUP1 PUSH4 0x7E4E14CC EQ PUSH2 0x110 JUMPI DUP1 PUSH4 0x8C600E72 EQ PUSH2 0x12E JUMPI DUP1 PUSH4 0x8DE38F98 EQ PUSH2 0x14C JUMPI DUP1 PUSH4 0x98DD36E5 EQ PUSH2 0x16A JUMPI DUP1 PUSH4 0xC5B57BDB EQ PUSH2 0x188 JUMPI PUSH2 0x93 JUMP JUMPDEST DUP1 PUSH4 0x64630AD4 EQ PUSH2 0x98 JUMPI DUP1 PUSH4 0x767800DE EQ PUSH2 0xB6 JUMPI DUP1 PUSH4 0x77FDE0FC EQ PUSH2 0xD4 JUMPI DUP1 PUSH4 0x7A4C2571 EQ PUSH2 0xF2 JUMPI JUMPDEST PUSH1 0x0 DUP1 REVERT JUMPDEST PUSH2 0xA0 PUSH2 0x1A6 JUMP JUMPDEST PUSH1 0x40 MLOAD PUSH2 0xAD SWAP2 SWAP1 PUSH2 0x314 JUMP JUMPDEST PUSH1 0x40 MLOAD DUP1 SWAP2 SUB SWAP1 RETURN JUMPDEST PUSH2 0xBE PUSH2 0x1AC JUMP JUMPDEST PUSH1 0x40 MLOAD PUSH2 0xCB SWAP2 SWAP1 PUSH2 0x2A8 JUMP JUMPDEST PUSH1 0x40 MLOAD DUP1 SWAP2 SUB SWAP1 RETURN JUMPDEST PUSH2 0xDC PUSH2 0x1D2 JUMP JUMPDEST PUSH1 0x40 MLOAD PUSH2 0xE9 SWAP2 SWAP1 PUSH2 0x2DE JUMP JUMPDEST PUSH1 0x40 MLOAD DUP1 SWAP2 SUB SWAP1 RETURN JUMPDEST PUSH2 0xFA PUSH2 0x1D8 JUMP JUMPDEST PUSH1 0x40 MLOAD PUSH2 0x107 SWAP2 SWAP1 PUSH2 0x2F9 JUMP JUMPDEST PUSH1 0x40 MLOAD DUP1 SWAP2 SUB SWAP1 RETURN JUMPDEST PUSH2 0x118 PUSH2 0x1EB JUMP JUMPDEST PUSH1 0x40 MLOAD PUSH2 0x125 SWAP2 SWAP1 PUSH2 0x2F9 JUMP JUMPDEST PUSH1 0x40 MLOAD DUP1 SWAP2 SUB SWAP1 RETURN JUMPDEST PUSH2 0x136 PUSH2 0x1FE JUMP JUMPDEST PUSH1 0x40 MLOAD PUSH2 0x143 SWAP2 SWAP1 PUSH2 0x314 JUMP JUMPDEST PUSH1 0x40 MLOAD DUP1 SWAP2 SUB SWAP1 RETURN JUMPDEST PUSH2 0x154 PUSH2 0x204 JUMP JUMPDEST PUSH1 0x40 MLOAD PUSH2 0x161 SWAP2 SWAP1 PUSH2 0x2A8 JUMP JUMPDEST PUSH1 0x40 MLOAD DUP1 SWAP2 SUB SWAP1 RETURN JUMPDEST PUSH2 0x172 PUSH2 0x22A JUMP JUMPDEST PUSH1 0x40 MLOAD PUSH2 0x17F SWAP2 SWAP1 PUSH2 0x32F JUMP JUMPDEST PUSH1 0x40 MLOAD DUP1 SWAP2 SUB SWAP1 RETURN JUMPDEST PUSH2 0x190 PUSH2 0x23D JUMP JUMPDEST PUSH1 0x40 MLOAD PUSH2 0x19D SWAP2 SWAP1 PUSH2 0x2C3 JUMP JUMPDEST PUSH1 0x40 MLOAD DUP1 SWAP2 SUB SWAP1 RETURN JUMPDEST PUSH1 0x2 SLOAD DUP2 JUMP JUMPDEST PUSH1 0x4 PUSH1 0x2 SWAP1 SLOAD SWAP1 PUSH2 0x100 EXP SWAP1 DIV PUSH20 0xFFFFFFFFFFFFFFFFFFFFFFFFFFFFFFFFFFFFFFFF AND DUP2 JUMP JUMPDEST PUSH1 0x3 SLOAD DUP2 JUMP JUMPDEST PUSH1 0x4 PUSH1 0x1 SWAP1 SLOAD SWAP1 PUSH2 0x100 EXP SWAP1 DIV PUSH1 0x0 SIGNEXTEND DUP2 JUMP JUMPDEST PUSH1 0x4 PUSH1 0x0 SWAP1 SLOAD SWAP1 PUSH2 0x100 EXP SWAP1 DIV PUSH1 0x0 SIGNEXTEND DUP2 JUMP JUMPDEST PUSH1 0x1 SLOAD DUP2 JUMP JUMPDEST PUSH1 0x5 PUSH1 0x0 SWAP1 SLOAD SWAP1 PUSH2 0x100 EXP SWAP1 DIV PUSH20 0xFFFFFFFFFFFFFFFFFFFFFFFFFFFFFFFFFFFFFFFF AND DUP2 JUMP JUMPDEST PUSH1 0x0 PUSH1 0x1 SWAP1 SLOAD SWAP1 PUSH2 0x100 EXP SWAP1 DIV PUSH1 0xFF AND DUP2 JUMP JUMPDEST PUSH1 0x0 DUP1 SLOAD SWAP1 PUSH2 0x100 EXP SWAP1 DIV PUSH1 0xFF AND DUP2 JUMP JUMPDEST PUSH2 0x257 DUP2 PUSH2 0x34A JUMP JUMPDEST DUP3 MSTORE POP POP JUMP JUMPDEST PUSH2 0x266 DUP2 PUSH2 0x35C JUMP JUMPDEST DUP3 MSTORE POP POP JUMP JUMPDEST PUSH2 0x275 DUP2 PUSH2 0x368 JUMP JUMPDEST DUP3 MSTORE POP POP JUMP JUMPDEST PUSH2 0x284 DUP2 PUSH2 0x372 JUMP JUMPDEST DUP3 MSTORE POP POP JUMP JUMPDEST PUSH2 0x293 DUP2 PUSH2 0x39F JUMP JUMPDEST DUP3 MSTORE POP POP JUMP JUMPDEST PUSH2 0x2A2 DUP2 PUSH2 0x3A9 JUMP JUMPDEST DUP3 MSTORE POP POP JUMP JUMPDEST PUSH1 0x0 PUSH1 0x20 DUP3 ADD SWAP1 POP PUSH2 0x2BD PUSH1 0x0 DUP4 ADD DUP5 PUSH2 0x24E JUMP JUMPDEST SWAP3 SWAP2 POP POP JUMP JUMPDEST PUSH1 0x0 PUSH1 0x20 DUP3 ADD SWAP1 POP PUSH2 0x2D8 PUSH1 0x0 DUP4 ADD DUP5 PUSH2 0x25D JUMP JUMPDEST SWAP3 SWAP2 POP POP JUMP JUMPDEST PUSH1 0x0 PUSH1 0x20 DUP3 ADD SWAP1 POP PUSH2 0x2F3 PUSH1 0x0 DUP4 ADD DUP5 PUSH2 0x26C JUMP JUMPDEST SWAP3 SWAP2 POP POP JUMP JUMPDEST PUSH1 0x0 PUSH1 0x20 DUP3 ADD SWAP1 POP PUSH2 0x30E PUSH1 0x0 DUP4 ADD DUP5 PUSH2 0x27B JUMP JUMPDEST SWAP3 SWAP2 POP POP JUMP JUMPDEST PUSH1 0x0 PUSH1 0x20 DUP3 ADD SWAP1 POP PUSH2 0x329 PUSH1 0x0 DUP4 ADD DUP5 PUSH2 0x28A JUMP JUMPDEST SWAP3 SWAP2 POP POP JUMP JUMPDEST PUSH1 0x0 PUSH1 0x20 DUP3 ADD SWAP1 POP PUSH2 0x344 PUSH1 0x0 DUP4 ADD DUP5 PUSH2 0x299 JUMP JUMPDEST SWAP3 SWAP2 POP POP JUMP JUMPDEST PUSH1 0x0 PUSH2 0x355 DUP3 PUSH2 0x37F JUMP JUMPDEST SWAP1 POP SWAP2 SWAP1 POP JUMP JUMPDEST PUSH1 0x0 DUP2 ISZERO ISZERO SWAP1 POP SWAP2 SWAP1 POP JUMP JUMPDEST PUSH1 0x0 DUP2 SWAP1 POP SWAP2 SWAP1 POP JUMP JUMPDEST PUSH1 0x0 DUP2 PUSH1 0x0 SIGNEXTEND SWAP1 POP SWAP2 SWAP1 POP JUMP JUMPDEST PUSH1 0x0 PUSH20 0xFFFFFFFFFFFFFFFFFFFFFFFFFFFFFFFFFFFFFFFF DUP3 AND SWAP1 POP SWAP2 SWAP1 POP JUMP JUMPDEST PUSH1 0x0 DUP2 SWAP1 POP SWAP2 SWAP1 POP JUMP JUMPDEST PUSH1 0x0 PUSH1 0xFF DUP3 AND SWAP1 POP SWAP2 SWAP1 POP JUMP INVALID LOG2 PUSH5 0x6970667358 0x22 SLT KECCAK256 0xEC PUSH21 0x9304F0093C0185C5007E67EEE2E6E36BBC1BFFDCBD PUSH6 0x5F41D1381B27 DIV 0xB4 PUSH5 0x736F6C6343 STOP ADDMOD SMOD STOP CALLER "
				},
				"gasEstimates": {
					"creation": {
						"codeDepositCost": "200800",
						"executionCost": "188064",
						"totalCost": "388864"
					},
					"external": {
						"addr()": "2587",
						"addr2()": "2558",
						"boolean()": "2556",
						"interoComNegativo()": "2474",
						"maxInt()": "2592",
						"minInt()": "2475",
						"unInteiro256()": "2451",
						"unInteiro8()": "2587",
						"unInteiroAlias()": "2430"
					}
				},
				"methodIdentifiers": {
					"addr()": "767800de",
					"addr2()": "8de38f98",
					"boolean()": "c5b57bdb",
					"interoComNegativo()": "77fde0fc",
					"maxInt()": "7a4c2571",
					"minInt()": "7e4e14cc",
					"unInteiro256()": "8c600e72",
					"unInteiro8()": "98dd36e5",
					"unInteiroAlias()": "64630ad4"
				}
			},
			"storageLayout": {
				"storage": [
					{
						"astId": 4,
						"contract": "contracts/Variables.sol:Variables",
						"label": "boolean",
						"offset": 0,
						"slot": "0",
						"type": "t_bool"
					},
					{
						"astId": 7,
						"contract": "contracts/Variables.sol:Variables",
						"label": "unInteiro8",
						"offset": 1,
						"slot": "0",
						"type": "t_uint8"
					},
					{
						"astId": 10,
						"contract": "contracts/Variables.sol:Variables",
						"label": "unInteiro256",
						"offset": 0,
						"slot": "1",
						"type": "t_uint256"
					},
					{
						"astId": 13,
						"contract": "contracts/Variables.sol:Variables",
						"label": "unInteiroAlias",
						"offset": 0,
						"slot": "2",
						"type": "t_uint256"
					},
					{
						"astId": 16,
						"contract": "contracts/Variables.sol:Variables",
						"label": "interoComNegativo",
						"offset": 0,
						"slot": "3",
						"type": "t_int256"
					},
					{
						"astId": 23,
						"contract": "contracts/Variables.sol:Variables",
						"label": "minInt",
						"offset": 0,
						"slot": "4",
						"type": "t_int8"
					},
					{
						"astId": 30,
						"contract": "contracts/Variables.sol:Variables",
						"label": "maxInt",
						"offset": 1,
						"slot": "4",
						"type": "t_int8"
					},
					{
						"astId": 33,
						"contract": "contracts/Variables.sol:Variables",
						"label": "addr",
						"offset": 2,
						"slot": "4",
						"type": "t_address"
					},
					{
						"astId": 35,
						"contract": "contracts/Variables.sol:Variables",
						"label": "addr2",
						"offset": 0,
						"slot": "5",
						"type": "t_address"
					}
				],
				"types": {
					"t_address": {
						"encoding": "inplace",
						"label": "address",
						"numberOfBytes": "20"
					},
					"t_bool": {
						"encoding": "inplace",
						"label": "bool",
						"numberOfBytes": "1"
					},
					"t_int256": {
						"encoding": "inplace",
						"label": "int256",
						"numberOfBytes": "32"
					},
					"t_int8": {
						"encoding": "inplace",
						"label": "int8",
						"numberOfBytes": "1"
					},
					"t_uint256": {
						"encoding": "inplace",
						"label": "uint256",
						"numberOfBytes": "32"
					},
					"t_uint8": {
						"encoding": "inplace",
						"label": "uint8",
						"numberOfBytes": "1"
					}
				}
			},
			"userdoc": {
				"kind": "user",
				"methods": {},
				"version": 1
			}
		}
	}
}