{
	"contracts/OperatorAndIfElse.sol": {
		"OperatorAndIfElse": {
			"abi": [
				{
					"inputs": [],
					"name": "count",
					"outputs": [
						{
							"internalType": "uint256",
							"name": "",
							"type": "uint256"
						}
					],
					"stateMutability": "view",
					"type": "function"
				},
				{
					"inputs": [],
					"name": "decrement",
					"outputs": [],
					"stateMutability": "nonpayable",
					"type": "function"
				},
				{
					"inputs": [
						{
							"internalType": "uint256",
							"name": "x",
							"type": "uint256"
						}
					],
					"name": "foo",
					"outputs": [
						{
							"internalType": "uint256",
							"name": "",
							"type": "uint256"
						}
					],
					"stateMutability": "pure",
					"type": "function"
				},
				{
					"inputs": [],
					"name": "increment",
					"outputs": [],
					"stateMutability": "nonpayable",
					"type": "function"
				},
				{
					"inputs": [],
					"name": "rest",
					"outputs": [
						{
							"internalType": "bool",
							"name": "",
							"type": "bool"
						}
					],
					"stateMutability": "view",
					"type": "function"
				}
			],
			"devdoc": {
				"kind": "dev",
				"methods": {},
				"version": 1
			},
			"evm": {
				"assembly": "    /* \"contracts/OperatorAndIfElse.sol\":62:520  contract OperatorAndIfElse {... */\n  mstore(0x40, 0x80)\n    /* \"contracts/OperatorAndIfElse.sol\":127:128  0 */\n  0x00\n    /* \"contracts/OperatorAndIfElse.sol\":117:123  10 % 2 */\n  0x00\n    /* \"contracts/OperatorAndIfElse.sol\":117:128  10 % 2 == 0 */\n  eq\n    /* \"contracts/OperatorAndIfElse.sol\":98:128  bool public rest = 10 % 2 == 0 */\n  0x00\n  exp(0x0100, 0x00)\n  dup2\n  sload\n  dup2\n  0xff\n  mul\n  not\n  and\n  swap1\n  dup4\n  iszero\n  iszero\n  mul\n  or\n  swap1\n  sstore\n  pop\n    /* \"contracts/OperatorAndIfElse.sol\":62:520  contract OperatorAndIfElse {... */\n  callvalue\n  dup1\n  iszero\n  tag_1\n  jumpi\n  revert(0x00, 0x00)\ntag_1:\n  pop\n  dataSize(sub_0)\n  dup1\n  dataOffset(sub_0)\n  0x00\n  codecopy\n  0x00\n  return\nstop\n\nsub_0: assembly {\n        /* \"contracts/OperatorAndIfElse.sol\":62:520  contract OperatorAndIfElse {... */\n      mstore(0x40, 0x80)\n      callvalue\n      dup1\n      iszero\n      tag_1\n      jumpi\n      revert(0x00, 0x00)\n    tag_1:\n      pop\n      jumpi(tag_2, lt(calldatasize, 0x04))\n      shr(0xe0, calldataload(0x00))\n      dup1\n      0x06661abd\n      eq\n      tag_3\n      jumpi\n      dup1\n      0x2baeceb7\n      eq\n      tag_4\n      jumpi\n      dup1\n      0x2fbebd38\n      eq\n      tag_5\n      jumpi\n      dup1\n      0xc0ea09d7\n      eq\n      tag_6\n      jumpi\n      dup1\n      0xd09de08a\n      eq\n      tag_7\n      jumpi\n    tag_2:\n      revert(0x00, 0x00)\n        /* \"contracts/OperatorAndIfElse.sol\":137:157  uint256 public count */\n    tag_3:\n      tag_8\n      tag_9\n      jump\t// in\n    tag_8:\n      mload(0x40)\n      tag_10\n      swap2\n      swap1\n      tag_11\n      jump\t// in\n    tag_10:\n      mload(0x40)\n      dup1\n      swap2\n      sub\n      swap1\n      return\n        /* \"contracts/OperatorAndIfElse.sol\":241:297  function decrement() external {... */\n    tag_4:\n      tag_12\n      tag_13\n      jump\t// in\n    tag_12:\n      stop\n        /* \"contracts/OperatorAndIfElse.sol\":305:517  function foo(uint256 x) external pure returns(uint256) {... */\n    tag_5:\n      tag_14\n      0x04\n      dup1\n      calldatasize\n      sub\n      dup2\n      add\n      swap1\n      tag_15\n      swap2\n      swap1\n      tag_16\n      jump\t// in\n    tag_15:\n      tag_17\n      jump\t// in\n    tag_14:\n      mload(0x40)\n      tag_18\n      swap2\n      swap1\n      tag_11\n      jump\t// in\n    tag_18:\n      mload(0x40)\n      dup1\n      swap2\n      sub\n      swap1\n      return\n        /* \"contracts/OperatorAndIfElse.sol\":98:128  bool public rest = 10 % 2 == 0 */\n    tag_6:\n      tag_19\n      tag_20\n      jump\t// in\n    tag_19:\n      mload(0x40)\n      tag_21\n      swap2\n      swap1\n      tag_22\n      jump\t// in\n    tag_21:\n      mload(0x40)\n      dup1\n      swap2\n      sub\n      swap1\n      return\n        /* \"contracts/OperatorAndIfElse.sol\":179:235  function increment() external {... */\n    tag_7:\n      tag_23\n      tag_24\n      jump\t// in\n    tag_23:\n      stop\n        /* \"contracts/OperatorAndIfElse.sol\":137:157  uint256 public count */\n    tag_9:\n      sload(0x01)\n      dup2\n      jump\t// out\n        /* \"contracts/OperatorAndIfElse.sol\":241:297  function decrement() external {... */\n    tag_13:\n        /* \"contracts/OperatorAndIfElse.sol\":282:287  count */\n      0x01\n      0x00\n        /* \"contracts/OperatorAndIfElse.sol\":282:289  count-- */\n      dup2\n      sload\n      dup1\n      swap3\n      swap2\n      swap1\n      tag_26\n      swap1\n      tag_27\n      jump\t// in\n    tag_26:\n      swap2\n      swap1\n      pop\n      sstore\n      pop\n        /* \"contracts/OperatorAndIfElse.sol\":241:297  function decrement() external {... */\n      jump\t// out\n        /* \"contracts/OperatorAndIfElse.sol\":305:517  function foo(uint256 x) external pure returns(uint256) {... */\n    tag_17:\n        /* \"contracts/OperatorAndIfElse.sol\":351:358  uint256 */\n      0x00\n        /* \"contracts/OperatorAndIfElse.sol\":379:381  10 */\n      0x0a\n        /* \"contracts/OperatorAndIfElse.sol\":375:376  x */\n      dup3\n        /* \"contracts/OperatorAndIfElse.sol\":375:381  x < 10 */\n      lt\n        /* \"contracts/OperatorAndIfElse.sol\":371:510  if (x < 10){... */\n      iszero\n      tag_29\n      jumpi\n        /* \"contracts/OperatorAndIfElse.sol\":404:405  1 */\n      0x01\n        /* \"contracts/OperatorAndIfElse.sol\":397:405  return 1 */\n      swap1\n      pop\n      jump(tag_28)\n        /* \"contracts/OperatorAndIfElse.sol\":371:510  if (x < 10){... */\n    tag_29:\n        /* \"contracts/OperatorAndIfElse.sol\":430:432  15 */\n      0x0f\n        /* \"contracts/OperatorAndIfElse.sol\":426:427  x */\n      dup3\n        /* \"contracts/OperatorAndIfElse.sol\":426:432  x > 15 */\n      gt\n        /* \"contracts/OperatorAndIfElse.sol\":423:510  if(x > 15) {... */\n      iszero\n      tag_31\n      jumpi\n        /* \"contracts/OperatorAndIfElse.sol\":456:457  2 */\n      0x02\n        /* \"contracts/OperatorAndIfElse.sol\":449:457  return 2 */\n      swap1\n      pop\n      jump(tag_28)\n        /* \"contracts/OperatorAndIfElse.sol\":423:510  if(x > 15) {... */\n    tag_31:\n        /* \"contracts/OperatorAndIfElse.sol\":497:498  0 */\n      0x00\n        /* \"contracts/OperatorAndIfElse.sol\":490:498  return 0 */\n      swap1\n      pop\n        /* \"contracts/OperatorAndIfElse.sol\":305:517  function foo(uint256 x) external pure returns(uint256) {... */\n    tag_28:\n      swap2\n      swap1\n      pop\n      jump\t// out\n        /* \"contracts/OperatorAndIfElse.sol\":98:128  bool public rest = 10 % 2 == 0 */\n    tag_20:\n      0x00\n      0x00\n      swap1\n      sload\n      swap1\n      0x0100\n      exp\n      swap1\n      div\n      0xff\n      and\n      dup2\n      jump\t// out\n        /* \"contracts/OperatorAndIfElse.sol\":179:235  function increment() external {... */\n    tag_24:\n        /* \"contracts/OperatorAndIfElse.sol\":220:225  count */\n      0x01\n      0x00\n        /* \"contracts/OperatorAndIfElse.sol\":220:227  count++ */\n      dup2\n      sload\n      dup1\n      swap3\n      swap2\n      swap1\n      tag_34\n      swap1\n      tag_35\n      jump\t// in\n    tag_34:\n      swap2\n      swap1\n      pop\n      sstore\n      pop\n        /* \"contracts/OperatorAndIfElse.sol\":179:235  function increment() external {... */\n      jump\t// out\n        /* \"#utility.yul\":7:84   */\n    tag_36:\n        /* \"#utility.yul\":44:51   */\n      0x00\n        /* \"#utility.yul\":73:78   */\n      dup2\n        /* \"#utility.yul\":62:78   */\n      swap1\n      pop\n        /* \"#utility.yul\":7:84   */\n      swap2\n      swap1\n      pop\n      jump\t// out\n        /* \"#utility.yul\":90:208   */\n    tag_37:\n        /* \"#utility.yul\":177:201   */\n      tag_49\n        /* \"#utility.yul\":195:200   */\n      dup2\n        /* \"#utility.yul\":177:201   */\n      tag_36\n      jump\t// in\n    tag_49:\n        /* \"#utility.yul\":172:175   */\n      dup3\n        /* \"#utility.yul\":165:202   */\n      mstore\n        /* \"#utility.yul\":90:208   */\n      pop\n      pop\n      jump\t// out\n        /* \"#utility.yul\":214:436   */\n    tag_11:\n        /* \"#utility.yul\":307:311   */\n      0x00\n        /* \"#utility.yul\":345:347   */\n      0x20\n        /* \"#utility.yul\":334:343   */\n      dup3\n        /* \"#utility.yul\":330:348   */\n      add\n        /* \"#utility.yul\":322:348   */\n      swap1\n      pop\n        /* \"#utility.yul\":358:429   */\n      tag_51\n        /* \"#utility.yul\":426:427   */\n      0x00\n        /* \"#utility.yul\":415:424   */\n      dup4\n        /* \"#utility.yul\":411:428   */\n      add\n        /* \"#utility.yul\":402:408   */\n      dup5\n        /* \"#utility.yul\":358:429   */\n      tag_37\n      jump\t// in\n    tag_51:\n        /* \"#utility.yul\":214:436   */\n      swap3\n      swap2\n      pop\n      pop\n      jump\t// out\n        /* \"#utility.yul\":523:640   */\n    tag_39:\n        /* \"#utility.yul\":632:633   */\n      0x00\n        /* \"#utility.yul\":629:630   */\n      0x00\n        /* \"#utility.yul\":622:634   */\n      revert\n        /* \"#utility.yul\":769:891   */\n    tag_41:\n        /* \"#utility.yul\":842:866   */\n      tag_56\n        /* \"#utility.yul\":860:865   */\n      dup2\n        /* \"#utility.yul\":842:866   */\n      tag_36\n      jump\t// in\n    tag_56:\n        /* \"#utility.yul\":835:840   */\n      dup2\n        /* \"#utility.yul\":832:867   */\n      eq\n        /* \"#utility.yul\":822:885   */\n      tag_57\n      jumpi\n        /* \"#utility.yul\":881:882   */\n      0x00\n        /* \"#utility.yul\":878:879   */\n      0x00\n        /* \"#utility.yul\":871:883   */\n      revert\n        /* \"#utility.yul\":822:885   */\n    tag_57:\n        /* \"#utility.yul\":769:891   */\n      pop\n      jump\t// out\n        /* \"#utility.yul\":897:1036   */\n    tag_42:\n        /* \"#utility.yul\":943:948   */\n      0x00\n        /* \"#utility.yul\":981:987   */\n      dup2\n        /* \"#utility.yul\":968:988   */\n      calldataload\n        /* \"#utility.yul\":959:988   */\n      swap1\n      pop\n        /* \"#utility.yul\":997:1030   */\n      tag_59\n        /* \"#utility.yul\":1024:1029   */\n      dup2\n        /* \"#utility.yul\":997:1030   */\n      tag_41\n      jump\t// in\n    tag_59:\n        /* \"#utility.yul\":897:1036   */\n      swap3\n      swap2\n      pop\n      pop\n      jump\t// out\n        /* \"#utility.yul\":1042:1371   */\n    tag_16:\n        /* \"#utility.yul\":1101:1107   */\n      0x00\n        /* \"#utility.yul\":1150:1152   */\n      0x20\n        /* \"#utility.yul\":1138:1147   */\n      dup3\n        /* \"#utility.yul\":1129:1136   */\n      dup5\n        /* \"#utility.yul\":1125:1148   */\n      sub\n        /* \"#utility.yul\":1121:1153   */\n      slt\n        /* \"#utility.yul\":1118:1237   */\n      iszero\n      tag_61\n      jumpi\n        /* \"#utility.yul\":1156:1235   */\n      tag_62\n      tag_39\n      jump\t// in\n    tag_62:\n        /* \"#utility.yul\":1118:1237   */\n    tag_61:\n        /* \"#utility.yul\":1276:1277   */\n      0x00\n        /* \"#utility.yul\":1301:1354   */\n      tag_63\n        /* \"#utility.yul\":1346:1353   */\n      dup5\n        /* \"#utility.yul\":1337:1343   */\n      dup3\n        /* \"#utility.yul\":1326:1335   */\n      dup6\n        /* \"#utility.yul\":1322:1344   */\n      add\n        /* \"#utility.yul\":1301:1354   */\n      tag_42\n      jump\t// in\n    tag_63:\n        /* \"#utility.yul\":1291:1354   */\n      swap2\n      pop\n        /* \"#utility.yul\":1247:1364   */\n      pop\n        /* \"#utility.yul\":1042:1371   */\n      swap3\n      swap2\n      pop\n      pop\n      jump\t// out\n        /* \"#utility.yul\":1377:1467   */\n    tag_43:\n        /* \"#utility.yul\":1411:1418   */\n      0x00\n        /* \"#utility.yul\":1454:1459   */\n      dup2\n        /* \"#utility.yul\":1447:1460   */\n      iszero\n        /* \"#utility.yul\":1440:1461   */\n      iszero\n        /* \"#utility.yul\":1429:1461   */\n      swap1\n      pop\n        /* \"#utility.yul\":1377:1467   */\n      swap2\n      swap1\n      pop\n      jump\t// out\n        /* \"#utility.yul\":1473:1582   */\n    tag_44:\n        /* \"#utility.yul\":1554:1575   */\n      tag_66\n        /* \"#utility.yul\":1569:1574   */\n      dup2\n        /* \"#utility.yul\":1554:1575   */\n      tag_43\n      jump\t// in\n    tag_66:\n        /* \"#utility.yul\":1549:1552   */\n      dup3\n        /* \"#utility.yul\":1542:1576   */\n      mstore\n        /* \"#utility.yul\":1473:1582   */\n      pop\n      pop\n      jump\t// out\n        /* \"#utility.yul\":1588:1798   */\n    tag_22:\n        /* \"#utility.yul\":1675:1679   */\n      0x00\n        /* \"#utility.yul\":1713:1715   */\n      0x20\n        /* \"#utility.yul\":1702:1711   */\n      dup3\n        /* \"#utility.yul\":1698:1716   */\n      add\n        /* \"#utility.yul\":1690:1716   */\n      swap1\n      pop\n        /* \"#utility.yul\":1726:1791   */\n      tag_68\n        /* \"#utility.yul\":1788:1789   */\n      0x00\n        /* \"#utility.yul\":1777:1786   */\n      dup4\n        /* \"#utility.yul\":1773:1790   */\n      add\n        /* \"#utility.yul\":1764:1770   */\n      dup5\n        /* \"#utility.yul\":1726:1791   */\n      tag_44\n      jump\t// in\n    tag_68:\n        /* \"#utility.yul\":1588:1798   */\n      swap3\n      swap2\n      pop\n      pop\n      jump\t// out\n        /* \"#utility.yul\":1804:1984   */\n    tag_45:\n        /* \"#utility.yul\":1852:1929   */\n      0x4e487b7100000000000000000000000000000000000000000000000000000000\n        /* \"#utility.yul\":1849:1850   */\n      0x00\n        /* \"#utility.yul\":1842:1930   */\n      mstore\n        /* \"#utility.yul\":1949:1953   */\n      0x11\n        /* \"#utility.yul\":1946:1947   */\n      0x04\n        /* \"#utility.yul\":1939:1954   */\n      mstore\n        /* \"#utility.yul\":1973:1977   */\n      0x24\n        /* \"#utility.yul\":1970:1971   */\n      0x00\n        /* \"#utility.yul\":1963:1978   */\n      revert\n        /* \"#utility.yul\":1990:2161   */\n    tag_27:\n        /* \"#utility.yul\":2029:2032   */\n      0x00\n        /* \"#utility.yul\":2052:2076   */\n      tag_71\n        /* \"#utility.yul\":2070:2075   */\n      dup3\n        /* \"#utility.yul\":2052:2076   */\n      tag_36\n      jump\t// in\n    tag_71:\n        /* \"#utility.yul\":2043:2076   */\n      swap2\n      pop\n        /* \"#utility.yul\":2098:2102   */\n      0x00\n        /* \"#utility.yul\":2091:2096   */\n      dup3\n        /* \"#utility.yul\":2088:2103   */\n      sub\n        /* \"#utility.yul\":2085:2126   */\n      tag_72\n      jumpi\n        /* \"#utility.yul\":2106:2124   */\n      tag_73\n      tag_45\n      jump\t// in\n    tag_73:\n        /* \"#utility.yul\":2085:2126   */\n    tag_72:\n        /* \"#utility.yul\":2153:2154   */\n      0x01\n        /* \"#utility.yul\":2146:2151   */\n      dup3\n        /* \"#utility.yul\":2142:2155   */\n      sub\n        /* \"#utility.yul\":2135:2155   */\n      swap1\n      pop\n        /* \"#utility.yul\":1990:2161   */\n      swap2\n      swap1\n      pop\n      jump\t// out\n        /* \"#utility.yul\":2167:2400   */\n    tag_35:\n        /* \"#utility.yul\":2206:2209   */\n      0x00\n        /* \"#utility.yul\":2229:2253   */\n      tag_75\n        /* \"#utility.yul\":2247:2252   */\n      dup3\n        /* \"#utility.yul\":2229:2253   */\n      tag_36\n      jump\t// in\n    tag_75:\n        /* \"#utility.yul\":2220:2253   */\n      swap2\n      pop\n        /* \"#utility.yul\":2275:2341   */\n      0xffffffffffffffffffffffffffffffffffffffffffffffffffffffffffffffff\n        /* \"#utility.yul\":2268:2273   */\n      dup3\n        /* \"#utility.yul\":2265:2342   */\n      sub\n        /* \"#utility.yul\":2262:2365   */\n      tag_76\n      jumpi\n        /* \"#utility.yul\":2345:2363   */\n      tag_77\n      tag_45\n      jump\t// in\n    tag_77:\n        /* \"#utility.yul\":2262:2365   */\n    tag_76:\n        /* \"#utility.yul\":2392:2393   */\n      0x01\n        /* \"#utility.yul\":2385:2390   */\n      dup3\n        /* \"#utility.yul\":2381:2394   */\n      add\n        /* \"#utility.yul\":2374:2394   */\n      swap1\n      pop\n        /* \"#utility.yul\":2167:2400   */\n      swap2\n      swap1\n      pop\n      jump\t// out\n\n    auxdata: 0xa26469706673582212208afa46d1ad3f6fabf4e610cfc6ade83878c2888e60a40901b190f7c3cc28e7ee64736f6c634300081e0033\n}\n",
				"bytecode": {
					"linkReferences": {},
					"object": "60806040525f5f145f5f6101000a81548160ff0219169083151502179055503480156028575f5ffd5b506102de806100365f395ff3fe608060405234801561000f575f5ffd5b5060043610610055575f3560e01c806306661abd146100595780632baeceb7146100775780632fbebd3814610081578063c0ea09d7146100b1578063d09de08a146100cf575b5f5ffd5b6100616100d9565b60405161006e9190610168565b60405180910390f35b61007f6100df565b005b61009b600480360381019061009691906101af565b6100f8565b6040516100a89190610168565b60405180910390f35b6100b9610126565b6040516100c691906101f4565b60405180910390f35b6100d7610137565b005b60015481565b60015f8154809291906100f19061023a565b9190505550565b5f600a82101561010b5760019050610121565b600f82111561011d5760029050610121565b5f90505b919050565b5f5f9054906101000a900460ff1681565b60015f81548092919061014990610261565b9190505550565b5f819050919050565b61016281610150565b82525050565b5f60208201905061017b5f830184610159565b92915050565b5f5ffd5b61018e81610150565b8114610198575f5ffd5b50565b5f813590506101a981610185565b92915050565b5f602082840312156101c4576101c3610181565b5b5f6101d18482850161019b565b91505092915050565b5f8115159050919050565b6101ee816101da565b82525050565b5f6020820190506102075f8301846101e5565b92915050565b7f4e487b71000000000000000000000000000000000000000000000000000000005f52601160045260245ffd5b5f61024482610150565b91505f82036102565761025561020d565b5b600182039050919050565b5f61026b82610150565b91507fffffffffffffffffffffffffffffffffffffffffffffffffffffffffffffffff820361029d5761029c61020d565b5b60018201905091905056fea26469706673582212208afa46d1ad3f6fabf4e610cfc6ade83878c2888e60a40901b190f7c3cc28e7ee64736f6c634300081e0033",
					"opcodes": "PUSH1 0x80 PUSH1 0x40 MSTORE PUSH0 PUSH0 EQ PUSH0 PUSH0 PUSH2 0x100 EXP DUP2 SLOAD DUP2 PUSH1 0xFF MUL NOT AND SWAP1 DUP4 ISZERO ISZERO MUL OR SWAP1 SSTORE POP CALLVALUE DUP1 ISZERO PUSH1 0x28 JUMPI PUSH0 PUSH0 REVERT JUMPDEST POP PUSH2 0x2DE DUP1 PUSH2 0x36 PUSH0 CODECOPY PUSH0 RETURN INVALID PUSH1 0x80 PUSH1 0x40 MSTORE CALLVALUE DUP1 ISZERO PUSH2 0xF JUMPI PUSH0 PUSH0 REVERT JUMPDEST POP PUSH1 0x4 CALLDATASIZE LT PUSH2 0x55 JUMPI PUSH0 CALLDATALOAD PUSH1 0xE0 SHR DUP1 PUSH4 0x6661ABD EQ PUSH2 0x59 JUMPI DUP1 PUSH4 0x2BAECEB7 EQ PUSH2 0x77 JUMPI DUP1 PUSH4 0x2FBEBD38 EQ PUSH2 0x81 JUMPI DUP1 PUSH4 0xC0EA09D7 EQ PUSH2 0xB1 JUMPI DUP1 PUSH4 0xD09DE08A EQ PUSH2 0xCF JUMPI JUMPDEST PUSH0 PUSH0 REVERT JUMPDEST PUSH2 0x61 PUSH2 0xD9 JUMP JUMPDEST PUSH1 0x40 MLOAD PUSH2 0x6E SWAP2 SWAP1 PUSH2 0x168 JUMP JUMPDEST PUSH1 0x40 MLOAD DUP1 SWAP2 SUB SWAP1 RETURN JUMPDEST PUSH2 0x7F PUSH2 0xDF JUMP JUMPDEST STOP JUMPDEST PUSH2 0x9B PUSH1 0x4 DUP1 CALLDATASIZE SUB DUP2 ADD SWAP1 PUSH2 0x96 SWAP2 SWAP1 PUSH2 0x1AF JUMP JUMPDEST PUSH2 0xF8 JUMP JUMPDEST PUSH1 0x40 MLOAD PUSH2 0xA8 SWAP2 SWAP1 PUSH2 0x168 JUMP JUMPDEST PUSH1 0x40 MLOAD DUP1 SWAP2 SUB SWAP1 RETURN JUMPDEST PUSH2 0xB9 PUSH2 0x126 JUMP JUMPDEST PUSH1 0x40 MLOAD PUSH2 0xC6 SWAP2 SWAP1 PUSH2 0x1F4 JUMP JUMPDEST PUSH1 0x40 MLOAD DUP1 SWAP2 SUB SWAP1 RETURN JUMPDEST PUSH2 0xD7 PUSH2 0x137 JUMP JUMPDEST STOP JUMPDEST PUSH1 0x1 SLOAD DUP2 JUMP JUMPDEST PUSH1 0x1 PUSH0 DUP2 SLOAD DUP1 SWAP3 SWAP2 SWAP1 PUSH2 0xF1 SWAP1 PUSH2 0x23A JUMP JUMPDEST SWAP2 SWAP1 POP SSTORE POP JUMP JUMPDEST PUSH0 PUSH1 0xA DUP3 LT ISZERO PUSH2 0x10B JUMPI PUSH1 0x1 SWAP1 POP PUSH2 0x121 JUMP JUMPDEST PUSH1 0xF DUP3 GT ISZERO PUSH2 0x11D JUMPI PUSH1 0x2 SWAP1 POP PUSH2 0x121 JUMP JUMPDEST PUSH0 SWAP1 POP JUMPDEST SWAP2 SWAP1 POP JUMP JUMPDEST PUSH0 PUSH0 SWAP1 SLOAD SWAP1 PUSH2 0x100 EXP SWAP1 DIV PUSH1 0xFF AND DUP2 JUMP JUMPDEST PUSH1 0x1 PUSH0 DUP2 SLOAD DUP1 SWAP3 SWAP2 SWAP1 PUSH2 0x149 SWAP1 PUSH2 0x261 JUMP JUMPDEST SWAP2 SWAP1 POP SSTORE POP JUMP JUMPDEST PUSH0 DUP2 SWAP1 POP SWAP2 SWAP1 POP JUMP JUMPDEST PUSH2 0x162 DUP2 PUSH2 0x150 JUMP JUMPDEST DUP3 MSTORE POP POP JUMP JUMPDEST PUSH0 PUSH1 0x20 DUP3 ADD SWAP1 POP PUSH2 0x17B PUSH0 DUP4 ADD DUP5 PUSH2 0x159 JUMP JUMPDEST SWAP3 SWAP2 POP POP JUMP JUMPDEST PUSH0 PUSH0 REVERT JUMPDEST PUSH2 0x18E DUP2 PUSH2 0x150 JUMP JUMPDEST DUP2 EQ PUSH2 0x198 JUMPI PUSH0 PUSH0 REVERT JUMPDEST POP JUMP JUMPDEST PUSH0 DUP2 CALLDATALOAD SWAP1 POP PUSH2 0x1A9 DUP2 PUSH2 0x185 JUMP JUMPDEST SWAP3 SWAP2 POP POP JUMP JUMPDEST PUSH0 PUSH1 0x20 DUP3 DUP5 SUB SLT ISZERO PUSH2 0x1C4 JUMPI PUSH2 0x1C3 PUSH2 0x181 JUMP JUMPDEST JUMPDEST PUSH0 PUSH2 0x1D1 DUP5 DUP3 DUP6 ADD PUSH2 0x19B JUMP JUMPDEST SWAP2 POP POP SWAP3 SWAP2 POP POP JUMP JUMPDEST PUSH0 DUP2 ISZERO ISZERO SWAP1 POP SWAP2 SWAP1 POP JUMP JUMPDEST PUSH2 0x1EE DUP2 PUSH2 0x1DA JUMP JUMPDEST DUP3 MSTORE POP POP JUMP JUMPDEST PUSH0 PUSH1 0x20 DUP3 ADD SWAP1 POP PUSH2 0x207 PUSH0 DUP4 ADD DUP5 PUSH2 0x1E5 JUMP JUMPDEST SWAP3 SWAP2 POP POP JUMP JUMPDEST PUSH32 0x4E487B7100000000000000000000000000000000000000000000000000000000 PUSH0 MSTORE PUSH1 0x11 PUSH1 0x4 MSTORE PUSH1 0x24 PUSH0 REVERT JUMPDEST PUSH0 PUSH2 0x244 DUP3 PUSH2 0x150 JUMP JUMPDEST SWAP2 POP PUSH0 DUP3 SUB PUSH2 0x256 JUMPI PUSH2 0x255 PUSH2 0x20D JUMP JUMPDEST JUMPDEST PUSH1 0x1 DUP3 SUB SWAP1 POP SWAP2 SWAP1 POP JUMP JUMPDEST PUSH0 PUSH2 0x26B DUP3 PUSH2 0x150 JUMP JUMPDEST SWAP2 POP PUSH32 0xFFFFFFFFFFFFFFFFFFFFFFFFFFFFFFFFFFFFFFFFFFFFFFFFFFFFFFFFFFFFFFFF DUP3 SUB PUSH2 0x29D JUMPI PUSH2 0x29C PUSH2 0x20D JUMP JUMPDEST JUMPDEST PUSH1 0x1 DUP3 ADD SWAP1 POP SWAP2 SWAP1 POP JUMP INVALID LOG2 PUSH5 0x6970667358 0x22 SLT KECCAK256 DUP11 STATICCALL CHAINID DATALOADN 0xAD3F PUSH16 0xABF4E610CFC6ADE83878C2888E60A409 ADD 0xB1 SWAP1 0xF7 0xC3 0xCC 0x28 SWAPN 0xEE PUSH5 0x736F6C6343 STOP ADDMOD 0x1E STOP CALLER "
				},
				"gasEstimates": {
					"creation": {
						"codeDepositCost": "146800",
						"executionCost": "24457",
						"totalCost": "171257"
					},
					"external": {
						"count()": "2403",
						"decrement()": "24496",
						"foo(uint256)": "infinite",
						"increment()": "24563",
						"rest()": "2509"
					}
				},
				"methodIdentifiers": {
					"count()": "06661abd",
					"decrement()": "2baeceb7",
					"foo(uint256)": "2fbebd38",
					"increment()": "d09de08a",
					"rest()": "c0ea09d7"
				}
			},
			"storageLayout": {
				"storage": [
					{
						"astId": 8,
						"contract": "contracts/OperatorAndIfElse.sol:OperatorAndIfElse",
						"label": "rest",
						"offset": 0,
						"slot": "0",
						"type": "t_bool"
					},
					{
						"astId": 10,
						"contract": "contracts/OperatorAndIfElse.sol:OperatorAndIfElse",
						"label": "count",
						"offset": 0,
						"slot": "1",
						"type": "t_uint256"
					}
				],
				"types": {
					"t_bool": {
						"encoding": "inplace",
						"label": "bool",
						"numberOfBytes": "1"
					},
					"t_uint256": {
						"encoding": "inplace",
						"label": "uint256",
						"numberOfBytes": "32"
					}
				}
			},
			"userdoc": {
				"kind": "user",
				"methods": {},
				"version": 1
			}
		}
	}
}