{
	"contracts/FunctionsReturns.sol": {
		"FunctionReturns": {
			"abi": [
				{
					"inputs": [],
					"name": "returnMany",
					"outputs": [
						{
							"internalType": "uint256",
							"name": "",
							"type": "uint256"
						},
						{
							"internalType": "bool",
							"name": "",
							"type": "bool"
						},
						{
							"internalType": "string",
							"name": "",
							"type": "string"
						}
					],
					"stateMutability": "pure",
					"type": "function"
				}
			],
			"devdoc": {
				"kind": "dev",
				"methods": {},
				"version": 1
			},
			"evm": {
				"assembly": "    /* \"contracts/FunctionsReturns.sol\":62:207  contract FunctionReturns {... */\n  mstore(0x40, 0x80)\n  callvalue\n  dup1\n  iszero\n  tag_1\n  jumpi\n  revert(0x00, 0x00)\ntag_1:\n  pop\n  dataSize(sub_0)\n  dup1\n  dataOffset(sub_0)\n  0x00\n  codecopy\n  0x00\n  return\nstop\n\nsub_0: assembly {\n        /* \"contracts/FunctionsReturns.sol\":62:207  contract FunctionReturns {... */\n      mstore(0x40, 0x80)\n      callvalue\n      dup1\n      iszero\n      tag_1\n      jumpi\n      revert(0x00, 0x00)\n    tag_1:\n      pop\n      jumpi(tag_2, lt(calldatasize, 0x04))\n      shr(0xe0, calldataload(0x00))\n      dup1\n      0x86887544\n      eq\n      tag_3\n      jumpi\n    tag_2:\n      revert(0x00, 0x00)\n        /* \"contracts/FunctionsReturns.sol\":94:204  function returnMany() public pure returns(uint, bool, string memory) {... */\n    tag_3:\n      tag_4\n      tag_5\n      jump\t// in\n    tag_4:\n      mload(0x40)\n      tag_6\n      swap4\n      swap3\n      swap2\n      swap1\n      tag_7\n      jump\t// in\n    tag_6:\n      mload(0x40)\n      dup1\n      swap2\n      sub\n      swap1\n      return\n    tag_5:\n        /* \"contracts/FunctionsReturns.sol\":136:140  uint */\n      0x00\n        /* \"contracts/FunctionsReturns.sol\":142:146  bool */\n      0x00\n        /* \"contracts/FunctionsReturns.sol\":148:161  string memory */\n      0x60\n        /* \"contracts/FunctionsReturns.sol\":182:183  2 */\n      0x02\n        /* \"contracts/FunctionsReturns.sol\":185:189  true */\n      0x01\n        /* \"contracts/FunctionsReturns.sol\":174:196  return (2, true, \"Hi\") */\n      mload(0x40)\n      dup1\n      0x40\n      add\n      0x40\n      mstore\n      dup1\n      0x02\n      dup2\n      mstore\n      0x20\n      add\n      0x4869000000000000000000000000000000000000000000000000000000000000\n      dup2\n      mstore\n      pop\n      swap3\n      pop\n      swap3\n      pop\n      swap3\n      pop\n        /* \"contracts/FunctionsReturns.sol\":94:204  function returnMany() public pure returns(uint, bool, string memory) {... */\n      swap1\n      swap2\n      swap3\n      jump\t// out\n        /* \"#utility.yul\":7:84   */\n    tag_9:\n        /* \"#utility.yul\":44:51   */\n      0x00\n        /* \"#utility.yul\":73:78   */\n      dup2\n        /* \"#utility.yul\":62:78   */\n      swap1\n      pop\n        /* \"#utility.yul\":7:84   */\n      swap2\n      swap1\n      pop\n      jump\t// out\n        /* \"#utility.yul\":90:208   */\n    tag_10:\n        /* \"#utility.yul\":177:201   */\n      tag_21\n        /* \"#utility.yul\":195:200   */\n      dup2\n        /* \"#utility.yul\":177:201   */\n      tag_9\n      jump\t// in\n    tag_21:\n        /* \"#utility.yul\":172:175   */\n      dup3\n        /* \"#utility.yul\":165:202   */\n      mstore\n        /* \"#utility.yul\":90:208   */\n      pop\n      pop\n      jump\t// out\n        /* \"#utility.yul\":214:304   */\n    tag_11:\n        /* \"#utility.yul\":248:255   */\n      0x00\n        /* \"#utility.yul\":291:296   */\n      dup2\n        /* \"#utility.yul\":284:297   */\n      iszero\n        /* \"#utility.yul\":277:298   */\n      iszero\n        /* \"#utility.yul\":266:298   */\n      swap1\n      pop\n        /* \"#utility.yul\":214:304   */\n      swap2\n      swap1\n      pop\n      jump\t// out\n        /* \"#utility.yul\":310:419   */\n    tag_12:\n        /* \"#utility.yul\":391:412   */\n      tag_24\n        /* \"#utility.yul\":406:411   */\n      dup2\n        /* \"#utility.yul\":391:412   */\n      tag_11\n      jump\t// in\n    tag_24:\n        /* \"#utility.yul\":386:389   */\n      dup3\n        /* \"#utility.yul\":379:413   */\n      mstore\n        /* \"#utility.yul\":310:419   */\n      pop\n      pop\n      jump\t// out\n        /* \"#utility.yul\":425:524   */\n    tag_13:\n        /* \"#utility.yul\":477:483   */\n      0x00\n        /* \"#utility.yul\":511:516   */\n      dup2\n        /* \"#utility.yul\":505:517   */\n      mload\n        /* \"#utility.yul\":495:517   */\n      swap1\n      pop\n        /* \"#utility.yul\":425:524   */\n      swap2\n      swap1\n      pop\n      jump\t// out\n        /* \"#utility.yul\":530:699   */\n    tag_14:\n        /* \"#utility.yul\":614:625   */\n      0x00\n        /* \"#utility.yul\":648:654   */\n      dup3\n        /* \"#utility.yul\":643:646   */\n      dup3\n        /* \"#utility.yul\":636:655   */\n      mstore\n        /* \"#utility.yul\":688:692   */\n      0x20\n        /* \"#utility.yul\":683:686   */\n      dup3\n        /* \"#utility.yul\":679:693   */\n      add\n        /* \"#utility.yul\":664:693   */\n      swap1\n      pop\n        /* \"#utility.yul\":530:699   */\n      swap3\n      swap2\n      pop\n      pop\n      jump\t// out\n        /* \"#utility.yul\":705:844   */\n    tag_15:\n        /* \"#utility.yul\":794:800   */\n      dup3\n        /* \"#utility.yul\":789:792   */\n      dup2\n        /* \"#utility.yul\":784:787   */\n      dup4\n        /* \"#utility.yul\":778:801   */\n      mcopy\n        /* \"#utility.yul\":835:836   */\n      0x00\n        /* \"#utility.yul\":826:832   */\n      dup4\n        /* \"#utility.yul\":821:824   */\n      dup4\n        /* \"#utility.yul\":817:833   */\n      add\n        /* \"#utility.yul\":810:837   */\n      mstore\n        /* \"#utility.yul\":705:844   */\n      pop\n      pop\n      pop\n      jump\t// out\n        /* \"#utility.yul\":850:952   */\n    tag_16:\n        /* \"#utility.yul\":891:897   */\n      0x00\n        /* \"#utility.yul\":942:944   */\n      0x1f\n        /* \"#utility.yul\":938:945   */\n      not\n        /* \"#utility.yul\":933:935   */\n      0x1f\n        /* \"#utility.yul\":926:931   */\n      dup4\n        /* \"#utility.yul\":922:936   */\n      add\n        /* \"#utility.yul\":918:946   */\n      and\n        /* \"#utility.yul\":908:946   */\n      swap1\n      pop\n        /* \"#utility.yul\":850:952   */\n      swap2\n      swap1\n      pop\n      jump\t// out\n        /* \"#utility.yul\":958:1335   */\n    tag_17:\n        /* \"#utility.yul\":1046:1049   */\n      0x00\n        /* \"#utility.yul\":1074:1113   */\n      tag_30\n        /* \"#utility.yul\":1107:1112   */\n      dup3\n        /* \"#utility.yul\":1074:1113   */\n      tag_13\n      jump\t// in\n    tag_30:\n        /* \"#utility.yul\":1129:1200   */\n      tag_31\n        /* \"#utility.yul\":1193:1199   */\n      dup2\n        /* \"#utility.yul\":1188:1191   */\n      dup6\n        /* \"#utility.yul\":1129:1200   */\n      tag_14\n      jump\t// in\n    tag_31:\n        /* \"#utility.yul\":1122:1200   */\n      swap4\n      pop\n        /* \"#utility.yul\":1209:1274   */\n      tag_32\n        /* \"#utility.yul\":1267:1273   */\n      dup2\n        /* \"#utility.yul\":1262:1265   */\n      dup6\n        /* \"#utility.yul\":1255:1259   */\n      0x20\n        /* \"#utility.yul\":1248:1253   */\n      dup7\n        /* \"#utility.yul\":1244:1260   */\n      add\n        /* \"#utility.yul\":1209:1274   */\n      tag_15\n      jump\t// in\n    tag_32:\n        /* \"#utility.yul\":1299:1328   */\n      tag_33\n        /* \"#utility.yul\":1321:1327   */\n      dup2\n        /* \"#utility.yul\":1299:1328   */\n      tag_16\n      jump\t// in\n    tag_33:\n        /* \"#utility.yul\":1294:1297   */\n      dup5\n        /* \"#utility.yul\":1290:1329   */\n      add\n        /* \"#utility.yul\":1283:1329   */\n      swap2\n      pop\n        /* \"#utility.yul\":1050:1335   */\n      pop\n        /* \"#utility.yul\":958:1335   */\n      swap3\n      swap2\n      pop\n      pop\n      jump\t// out\n        /* \"#utility.yul\":1341:1862   */\n    tag_7:\n        /* \"#utility.yul\":1504:1508   */\n      0x00\n        /* \"#utility.yul\":1542:1544   */\n      0x60\n        /* \"#utility.yul\":1531:1540   */\n      dup3\n        /* \"#utility.yul\":1527:1545   */\n      add\n        /* \"#utility.yul\":1519:1545   */\n      swap1\n      pop\n        /* \"#utility.yul\":1555:1626   */\n      tag_35\n        /* \"#utility.yul\":1623:1624   */\n      0x00\n        /* \"#utility.yul\":1612:1621   */\n      dup4\n        /* \"#utility.yul\":1608:1625   */\n      add\n        /* \"#utility.yul\":1599:1605   */\n      dup7\n        /* \"#utility.yul\":1555:1626   */\n      tag_10\n      jump\t// in\n    tag_35:\n        /* \"#utility.yul\":1636:1702   */\n      tag_36\n        /* \"#utility.yul\":1698:1700   */\n      0x20\n        /* \"#utility.yul\":1687:1696   */\n      dup4\n        /* \"#utility.yul\":1683:1701   */\n      add\n        /* \"#utility.yul\":1674:1680   */\n      dup6\n        /* \"#utility.yul\":1636:1702   */\n      tag_12\n      jump\t// in\n    tag_36:\n        /* \"#utility.yul\":1749:1758   */\n      dup2\n        /* \"#utility.yul\":1743:1747   */\n      dup2\n        /* \"#utility.yul\":1739:1759   */\n      sub\n        /* \"#utility.yul\":1734:1736   */\n      0x40\n        /* \"#utility.yul\":1723:1732   */\n      dup4\n        /* \"#utility.yul\":1719:1737   */\n      add\n        /* \"#utility.yul\":1712:1760   */\n      mstore\n        /* \"#utility.yul\":1777:1855   */\n      tag_37\n        /* \"#utility.yul\":1850:1854   */\n      dup2\n        /* \"#utility.yul\":1841:1847   */\n      dup5\n        /* \"#utility.yul\":1777:1855   */\n      tag_17\n      jump\t// in\n    tag_37:\n        /* \"#utility.yul\":1769:1855   */\n      swap1\n      pop\n        /* \"#utility.yul\":1341:1862   */\n      swap5\n      swap4\n      pop\n      pop\n      pop\n      pop\n      jump\t// out\n\n    auxdata: 0xa2646970667358221220cb847e18ca379dc3a247583ac6a5b4194db458bb1431b43b690d5f6054bca8d564736f6c634300081e0033\n}\n",
				"bytecode": {
					"linkReferences": {},
					"object": "6080604052348015600e575f5ffd5b506101aa8061001c5f395ff3fe608060405234801561000f575f5ffd5b5060043610610029575f3560e01c8063868875441461002d575b5f5ffd5b61003561004d565b60405161004493929190610138565b60405180910390f35b5f5f6060600260016040518060400160405280600281526020017f4869000000000000000000000000000000000000000000000000000000000000815250925092509250909192565b5f819050919050565b6100a881610096565b82525050565b5f8115159050919050565b6100c2816100ae565b82525050565b5f81519050919050565b5f82825260208201905092915050565b8281835e5f83830152505050565b5f601f19601f8301169050919050565b5f61010a826100c8565b61011481856100d2565b93506101248185602086016100e2565b61012d816100f0565b840191505092915050565b5f60608201905061014b5f83018661009f565b61015860208301856100b9565b818103604083015261016a8184610100565b905094935050505056fea2646970667358221220cb847e18ca379dc3a247583ac6a5b4194db458bb1431b43b690d5f6054bca8d564736f6c634300081e0033",
					"opcodes": "PUSH1 0x80 PUSH1 0x40 MSTORE CALLVALUE DUP1 ISZERO PUSH1 0xE JUMPI PUSH0 PUSH0 REVERT JUMPDEST POP PUSH2 0x1AA DUP1 PUSH2 0x1C PUSH0 CODECOPY PUSH0 RETURN INVALID PUSH1 0x80 PUSH1 0x40 MSTORE CALLVALUE DUP1 ISZERO PUSH2 0xF JUMPI PUSH0 PUSH0 REVERT JUMPDEST POP PUSH1 0x4 CALLDATASIZE LT PUSH2 0x29 JUMPI PUSH0 CALLDATALOAD PUSH1 0xE0 SHR DUP1 PUSH4 0x86887544 EQ PUSH2 0x2D JUMPI JUMPDEST PUSH0 PUSH0 REVERT JUMPDEST PUSH2 0x35 PUSH2 0x4D JUMP JUMPDEST PUSH1 0x40 MLOAD PUSH2 0x44 SWAP4 SWAP3 SWAP2 SWAP1 PUSH2 0x138 JUMP JUMPDEST PUSH1 0x40 MLOAD DUP1 SWAP2 SUB SWAP1 RETURN JUMPDEST PUSH0 PUSH0 PUSH1 0x60 PUSH1 0x2 PUSH1 0x1 PUSH1 0x40 MLOAD DUP1 PUSH1 0x40 ADD PUSH1 0x40 MSTORE DUP1 PUSH1 0x2 DUP2 MSTORE PUSH1 0x20 ADD PUSH32 0x4869000000000000000000000000000000000000000000000000000000000000 DUP2 MSTORE POP SWAP3 POP SWAP3 POP SWAP3 POP SWAP1 SWAP2 SWAP3 JUMP JUMPDEST PUSH0 DUP2 SWAP1 POP SWAP2 SWAP1 POP JUMP JUMPDEST PUSH2 0xA8 DUP2 PUSH2 0x96 JUMP JUMPDEST DUP3 MSTORE POP POP JUMP JUMPDEST PUSH0 DUP2 ISZERO ISZERO SWAP1 POP SWAP2 SWAP1 POP JUMP JUMPDEST PUSH2 0xC2 DUP2 PUSH2 0xAE JUMP JUMPDEST DUP3 MSTORE POP POP JUMP JUMPDEST PUSH0 DUP2 MLOAD SWAP1 POP SWAP2 SWAP1 POP JUMP JUMPDEST PUSH0 DUP3 DUP3 MSTORE PUSH1 0x20 DUP3 ADD SWAP1 POP SWAP3 SWAP2 POP POP JUMP JUMPDEST DUP3 DUP2 DUP4 MCOPY PUSH0 DUP4 DUP4 ADD MSTORE POP POP POP JUMP JUMPDEST PUSH0 PUSH1 0x1F NOT PUSH1 0x1F DUP4 ADD AND SWAP1 POP SWAP2 SWAP1 POP JUMP JUMPDEST PUSH0 PUSH2 0x10A DUP3 PUSH2 0xC8 JUMP JUMPDEST PUSH2 0x114 DUP2 DUP6 PUSH2 0xD2 JUMP JUMPDEST SWAP4 POP PUSH2 0x124 DUP2 DUP6 PUSH1 0x20 DUP7 ADD PUSH2 0xE2 JUMP JUMPDEST PUSH2 0x12D DUP2 PUSH2 0xF0 JUMP JUMPDEST DUP5 ADD SWAP2 POP POP SWAP3 SWAP2 POP POP JUMP JUMPDEST PUSH0 PUSH1 0x60 DUP3 ADD SWAP1 POP PUSH2 0x14B PUSH0 DUP4 ADD DUP7 PUSH2 0x9F JUMP JUMPDEST PUSH2 0x158 PUSH1 0x20 DUP4 ADD DUP6 PUSH2 0xB9 JUMP JUMPDEST DUP2 DUP2 SUB PUSH1 0x40 DUP4 ADD MSTORE PUSH2 0x16A DUP2 DUP5 PUSH2 0x100 JUMP JUMPDEST SWAP1 POP SWAP5 SWAP4 POP POP POP POP JUMP INVALID LOG2 PUSH5 0x6970667358 0x22 SLT KECCAK256 0xCB DUP5 PUSH31 0x18CA379DC3A247583AC6A5B4194DB458BB1431B43B690D5F6054BCA8D56473 PUSH16 0x6C634300081E00330000000000000000 "
				},
				"gasEstimates": {
					"creation": {
						"codeDepositCost": "85200",
						"executionCost": "133",
						"totalCost": "85333"
					},
					"external": {
						"returnMany()": "infinite"
					}
				},
				"methodIdentifiers": {
					"returnMany()": "86887544"
				}
			},
			"storageLayout": {
				"storage": [],
				"types": null
			},
			"userdoc": {
				"kind": "user",
				"methods": {},
				"version": 1
			}
		}
	}
}