{
	"contracts/FunctionsReturns.sol": {
		"FunctionReturns": {
			"abi": [
				{
					"inputs": [],
					"name": "destructing",
					"outputs": [],
					"stateMutability": "pure",
					"type": "function"
				},
				{
					"inputs": [],
					"name": "returnAssigned",
					"outputs": [
						{
							"internalType": "uint256",
							"name": "a",
							"type": "uint256"
						},
						{
							"internalType": "bool",
							"name": "b",
							"type": "bool"
						}
					],
					"stateMutability": "pure",
					"type": "function"
				},
				{
					"inputs": [],
					"name": "returnMany",
					"outputs": [
						{
							"internalType": "uint256",
							"name": "",
							"type": "uint256"
						},
						{
							"internalType": "bool",
							"name": "",
							"type": "bool"
						},
						{
							"internalType": "string",
							"name": "",
							"type": "string"
						}
					],
					"stateMutability": "pure",
					"type": "function"
				},
				{
					"inputs": [],
					"name": "returnNamed",
					"outputs": [
						{
							"internalType": "uint256",
							"name": "a",
							"type": "uint256"
						},
						{
							"internalType": "bool",
							"name": "b",
							"type": "bool"
						}
					],
					"stateMutability": "pure",
					"type": "function"
				}
			],
			"devdoc": {
				"kind": "dev",
				"methods": {},
				"version": 1
			},
			"evm": {
				"assembly": "    /* \"contracts/FunctionsReturns.sol\":62:615  contract FunctionReturns {... */\n  mstore(0x40, 0x80)\n  callvalue\n  dup1\n  iszero\n  tag_1\n  jumpi\n  revert(0x00, 0x00)\ntag_1:\n  pop\n  dataSize(sub_0)\n  dup1\n  dataOffset(sub_0)\n  0x00\n  codecopy\n  0x00\n  return\nstop\n\nsub_0: assembly {\n        /* \"contracts/FunctionsReturns.sol\":62:615  contract FunctionReturns {... */\n      mstore(0x40, 0x80)\n      callvalue\n      dup1\n      iszero\n      tag_1\n      jumpi\n      revert(0x00, 0x00)\n    tag_1:\n      pop\n      jumpi(tag_2, lt(calldatasize, 0x04))\n      shr(0xe0, calldataload(0x00))\n      dup1\n      0x3dece511\n      eq\n      tag_3\n      jumpi\n      dup1\n      0x86887544\n      eq\n      tag_4\n      jumpi\n      dup1\n      0x8aa64a39\n      eq\n      tag_5\n      jumpi\n      dup1\n      0xb7f08306\n      eq\n      tag_6\n      jumpi\n    tag_2:\n      revert(0x00, 0x00)\n        /* \"contracts/FunctionsReturns.sol\":210:304  function returnNamed() public pure returns(uint a, bool b) {... */\n    tag_3:\n      tag_7\n      tag_8\n      jump\t// in\n    tag_7:\n      mload(0x40)\n      tag_9\n      swap3\n      swap2\n      swap1\n      tag_10\n      jump\t// in\n    tag_9:\n      mload(0x40)\n      dup1\n      swap2\n      sub\n      swap1\n      return\n        /* \"contracts/FunctionsReturns.sol\":94:204  function returnMany() public pure returns(uint, bool, string memory) {... */\n    tag_4:\n      tag_11\n      tag_12\n      jump\t// in\n    tag_11:\n      mload(0x40)\n      tag_13\n      swap4\n      swap3\n      swap2\n      swap1\n      tag_14\n      jump\t// in\n    tag_13:\n      mload(0x40)\n      dup1\n      swap2\n      sub\n      swap1\n      return\n        /* \"contracts/FunctionsReturns.sol\":310:416  function returnAssigned() public pure returns(uint a, bool b) {... */\n    tag_5:\n      tag_15\n      tag_16\n      jump\t// in\n    tag_15:\n      mload(0x40)\n      tag_17\n      swap3\n      swap2\n      swap1\n      tag_10\n      jump\t// in\n    tag_17:\n      mload(0x40)\n      dup1\n      swap2\n      sub\n      swap1\n      return\n        /* \"contracts/FunctionsReturns.sol\":424:612  function destructing() public pure {... */\n    tag_6:\n      tag_18\n      tag_19\n      jump\t// in\n    tag_18:\n      stop\n        /* \"contracts/FunctionsReturns.sol\":210:304  function returnNamed() public pure returns(uint a, bool b) {... */\n    tag_8:\n        /* \"contracts/FunctionsReturns.sol\":253:259  uint a */\n      0x00\n        /* \"contracts/FunctionsReturns.sol\":261:267  bool b */\n      0x00\n        /* \"contracts/FunctionsReturns.sol\":288:289  2 */\n      0x02\n        /* \"contracts/FunctionsReturns.sol\":291:295  true */\n      0x01\n        /* \"contracts/FunctionsReturns.sol\":280:296  return (2, true) */\n      swap2\n      pop\n      swap2\n      pop\n        /* \"contracts/FunctionsReturns.sol\":210:304  function returnNamed() public pure returns(uint a, bool b) {... */\n      swap1\n      swap2\n      jump\t// out\n        /* \"contracts/FunctionsReturns.sol\":94:204  function returnMany() public pure returns(uint, bool, string memory) {... */\n    tag_12:\n        /* \"contracts/FunctionsReturns.sol\":136:140  uint */\n      0x00\n        /* \"contracts/FunctionsReturns.sol\":142:146  bool */\n      0x00\n        /* \"contracts/FunctionsReturns.sol\":148:161  string memory */\n      0x60\n        /* \"contracts/FunctionsReturns.sol\":182:183  2 */\n      0x02\n        /* \"contracts/FunctionsReturns.sol\":185:189  true */\n      0x01\n        /* \"contracts/FunctionsReturns.sol\":174:196  return (2, true, \"Hi\") */\n      mload(0x40)\n      dup1\n      0x40\n      add\n      0x40\n      mstore\n      dup1\n      0x02\n      dup2\n      mstore\n      0x20\n      add\n      0x4869000000000000000000000000000000000000000000000000000000000000\n      dup2\n      mstore\n      pop\n      swap3\n      pop\n      swap3\n      pop\n      swap3\n      pop\n        /* \"contracts/FunctionsReturns.sol\":94:204  function returnMany() public pure returns(uint, bool, string memory) {... */\n      swap1\n      swap2\n      swap3\n      jump\t// out\n        /* \"contracts/FunctionsReturns.sol\":310:416  function returnAssigned() public pure returns(uint a, bool b) {... */\n    tag_16:\n        /* \"contracts/FunctionsReturns.sol\":356:362  uint a */\n      0x00\n        /* \"contracts/FunctionsReturns.sol\":364:370  bool b */\n      0x00\n        /* \"contracts/FunctionsReturns.sol\":387:389  10 */\n      0x0a\n        /* \"contracts/FunctionsReturns.sol\":383:389  a = 10 */\n      swap2\n      pop\n        /* \"contracts/FunctionsReturns.sol\":404:408  true */\n      0x01\n        /* \"contracts/FunctionsReturns.sol\":400:408  b = true */\n      swap1\n      pop\n        /* \"contracts/FunctionsReturns.sol\":310:416  function returnAssigned() public pure returns(uint a, bool b) {... */\n      swap1\n      swap2\n      jump\t// out\n        /* \"contracts/FunctionsReturns.sol\":424:612  function destructing() public pure {... */\n    tag_19:\n        /* \"contracts/FunctionsReturns.sol\":471:477  uint a */\n      0x00\n        /* \"contracts/FunctionsReturns.sol\":479:485  bool b */\n      0x00\n        /* \"contracts/FunctionsReturns.sol\":487:502  string memory s */\n      0x00\n        /* \"contracts/FunctionsReturns.sol\":506:518  returnMany() */\n      tag_24\n        /* \"contracts/FunctionsReturns.sol\":506:516  returnMany */\n      tag_12\n        /* \"contracts/FunctionsReturns.sol\":506:518  returnMany() */\n      jump\t// in\n    tag_24:\n        /* \"contracts/FunctionsReturns.sol\":470:518  (uint a, bool b, string memory s) = returnMany() */\n      swap3\n      pop\n      swap3\n      pop\n      swap3\n      pop\n        /* \"contracts/FunctionsReturns.sol\":533:549  string memory s2 */\n      0x00\n        /* \"contracts/FunctionsReturns.sol\":553:565  returnMany() */\n      tag_25\n        /* \"contracts/FunctionsReturns.sol\":553:563  returnMany */\n      tag_12\n        /* \"contracts/FunctionsReturns.sol\":553:565  returnMany() */\n      jump\t// in\n    tag_25:\n        /* \"contracts/FunctionsReturns.sol\":529:565  (,, string memory s2) = returnMany() */\n      swap3\n      pop\n      pop\n      pop\n        /* \"contracts/FunctionsReturns.sol\":578:585  bool b2 */\n      0x00\n        /* \"contracts/FunctionsReturns.sol\":590:602  returnMany() */\n      tag_26\n        /* \"contracts/FunctionsReturns.sol\":590:600  returnMany */\n      tag_12\n        /* \"contracts/FunctionsReturns.sol\":590:602  returnMany() */\n      jump\t// in\n    tag_26:\n        /* \"contracts/FunctionsReturns.sol\":576:602  (,bool b2,) = returnMany() */\n      pop\n      swap2\n      pop\n      pop\n        /* \"contracts/FunctionsReturns.sol\":459:612  {... */\n      pop\n      pop\n      pop\n      pop\n      pop\n        /* \"contracts/FunctionsReturns.sol\":424:612  function destructing() public pure {... */\n      jump\t// out\n        /* \"#utility.yul\":7:84   */\n    tag_27:\n        /* \"#utility.yul\":44:51   */\n      0x00\n        /* \"#utility.yul\":73:78   */\n      dup2\n        /* \"#utility.yul\":62:78   */\n      swap1\n      pop\n        /* \"#utility.yul\":7:84   */\n      swap2\n      swap1\n      pop\n      jump\t// out\n        /* \"#utility.yul\":90:208   */\n    tag_28:\n        /* \"#utility.yul\":177:201   */\n      tag_39\n        /* \"#utility.yul\":195:200   */\n      dup2\n        /* \"#utility.yul\":177:201   */\n      tag_27\n      jump\t// in\n    tag_39:\n        /* \"#utility.yul\":172:175   */\n      dup3\n        /* \"#utility.yul\":165:202   */\n      mstore\n        /* \"#utility.yul\":90:208   */\n      pop\n      pop\n      jump\t// out\n        /* \"#utility.yul\":214:304   */\n    tag_29:\n        /* \"#utility.yul\":248:255   */\n      0x00\n        /* \"#utility.yul\":291:296   */\n      dup2\n        /* \"#utility.yul\":284:297   */\n      iszero\n        /* \"#utility.yul\":277:298   */\n      iszero\n        /* \"#utility.yul\":266:298   */\n      swap1\n      pop\n        /* \"#utility.yul\":214:304   */\n      swap2\n      swap1\n      pop\n      jump\t// out\n        /* \"#utility.yul\":310:419   */\n    tag_30:\n        /* \"#utility.yul\":391:412   */\n      tag_42\n        /* \"#utility.yul\":406:411   */\n      dup2\n        /* \"#utility.yul\":391:412   */\n      tag_29\n      jump\t// in\n    tag_42:\n        /* \"#utility.yul\":386:389   */\n      dup3\n        /* \"#utility.yul\":379:413   */\n      mstore\n        /* \"#utility.yul\":310:419   */\n      pop\n      pop\n      jump\t// out\n        /* \"#utility.yul\":425:745   */\n    tag_10:\n        /* \"#utility.yul\":540:544   */\n      0x00\n        /* \"#utility.yul\":578:580   */\n      0x40\n        /* \"#utility.yul\":567:576   */\n      dup3\n        /* \"#utility.yul\":563:581   */\n      add\n        /* \"#utility.yul\":555:581   */\n      swap1\n      pop\n        /* \"#utility.yul\":591:662   */\n      tag_44\n        /* \"#utility.yul\":659:660   */\n      0x00\n        /* \"#utility.yul\":648:657   */\n      dup4\n        /* \"#utility.yul\":644:661   */\n      add\n        /* \"#utility.yul\":635:641   */\n      dup6\n        /* \"#utility.yul\":591:662   */\n      tag_28\n      jump\t// in\n    tag_44:\n        /* \"#utility.yul\":672:738   */\n      tag_45\n        /* \"#utility.yul\":734:736   */\n      0x20\n        /* \"#utility.yul\":723:732   */\n      dup4\n        /* \"#utility.yul\":719:737   */\n      add\n        /* \"#utility.yul\":710:716   */\n      dup5\n        /* \"#utility.yul\":672:738   */\n      tag_30\n      jump\t// in\n    tag_45:\n        /* \"#utility.yul\":425:745   */\n      swap4\n      swap3\n      pop\n      pop\n      pop\n      jump\t// out\n        /* \"#utility.yul\":751:850   */\n    tag_31:\n        /* \"#utility.yul\":803:809   */\n      0x00\n        /* \"#utility.yul\":837:842   */\n      dup2\n        /* \"#utility.yul\":831:843   */\n      mload\n        /* \"#utility.yul\":821:843   */\n      swap1\n      pop\n        /* \"#utility.yul\":751:850   */\n      swap2\n      swap1\n      pop\n      jump\t// out\n        /* \"#utility.yul\":856:1025   */\n    tag_32:\n        /* \"#utility.yul\":940:951   */\n      0x00\n        /* \"#utility.yul\":974:980   */\n      dup3\n        /* \"#utility.yul\":969:972   */\n      dup3\n        /* \"#utility.yul\":962:981   */\n      mstore\n        /* \"#utility.yul\":1014:1018   */\n      0x20\n        /* \"#utility.yul\":1009:1012   */\n      dup3\n        /* \"#utility.yul\":1005:1019   */\n      add\n        /* \"#utility.yul\":990:1019   */\n      swap1\n      pop\n        /* \"#utility.yul\":856:1025   */\n      swap3\n      swap2\n      pop\n      pop\n      jump\t// out\n        /* \"#utility.yul\":1031:1170   */\n    tag_33:\n        /* \"#utility.yul\":1120:1126   */\n      dup3\n        /* \"#utility.yul\":1115:1118   */\n      dup2\n        /* \"#utility.yul\":1110:1113   */\n      dup4\n        /* \"#utility.yul\":1104:1127   */\n      mcopy\n        /* \"#utility.yul\":1161:1162   */\n      0x00\n        /* \"#utility.yul\":1152:1158   */\n      dup4\n        /* \"#utility.yul\":1147:1150   */\n      dup4\n        /* \"#utility.yul\":1143:1159   */\n      add\n        /* \"#utility.yul\":1136:1163   */\n      mstore\n        /* \"#utility.yul\":1031:1170   */\n      pop\n      pop\n      pop\n      jump\t// out\n        /* \"#utility.yul\":1176:1278   */\n    tag_34:\n        /* \"#utility.yul\":1217:1223   */\n      0x00\n        /* \"#utility.yul\":1268:1270   */\n      0x1f\n        /* \"#utility.yul\":1264:1271   */\n      not\n        /* \"#utility.yul\":1259:1261   */\n      0x1f\n        /* \"#utility.yul\":1252:1257   */\n      dup4\n        /* \"#utility.yul\":1248:1262   */\n      add\n        /* \"#utility.yul\":1244:1272   */\n      and\n        /* \"#utility.yul\":1234:1272   */\n      swap1\n      pop\n        /* \"#utility.yul\":1176:1278   */\n      swap2\n      swap1\n      pop\n      jump\t// out\n        /* \"#utility.yul\":1284:1661   */\n    tag_35:\n        /* \"#utility.yul\":1372:1375   */\n      0x00\n        /* \"#utility.yul\":1400:1439   */\n      tag_51\n        /* \"#utility.yul\":1433:1438   */\n      dup3\n        /* \"#utility.yul\":1400:1439   */\n      tag_31\n      jump\t// in\n    tag_51:\n        /* \"#utility.yul\":1455:1526   */\n      tag_52\n        /* \"#utility.yul\":1519:1525   */\n      dup2\n        /* \"#utility.yul\":1514:1517   */\n      dup6\n        /* \"#utility.yul\":1455:1526   */\n      tag_32\n      jump\t// in\n    tag_52:\n        /* \"#utility.yul\":1448:1526   */\n      swap4\n      pop\n        /* \"#utility.yul\":1535:1600   */\n      tag_53\n        /* \"#utility.yul\":1593:1599   */\n      dup2\n        /* \"#utility.yul\":1588:1591   */\n      dup6\n        /* \"#utility.yul\":1581:1585   */\n      0x20\n        /* \"#utility.yul\":1574:1579   */\n      dup7\n        /* \"#utility.yul\":1570:1586   */\n      add\n        /* \"#utility.yul\":1535:1600   */\n      tag_33\n      jump\t// in\n    tag_53:\n        /* \"#utility.yul\":1625:1654   */\n      tag_54\n        /* \"#utility.yul\":1647:1653   */\n      dup2\n        /* \"#utility.yul\":1625:1654   */\n      tag_34\n      jump\t// in\n    tag_54:\n        /* \"#utility.yul\":1620:1623   */\n      dup5\n        /* \"#utility.yul\":1616:1655   */\n      add\n        /* \"#utility.yul\":1609:1655   */\n      swap2\n      pop\n        /* \"#utility.yul\":1376:1661   */\n      pop\n        /* \"#utility.yul\":1284:1661   */\n      swap3\n      swap2\n      pop\n      pop\n      jump\t// out\n        /* \"#utility.yul\":1667:2188   */\n    tag_14:\n        /* \"#utility.yul\":1830:1834   */\n      0x00\n        /* \"#utility.yul\":1868:1870   */\n      0x60\n        /* \"#utility.yul\":1857:1866   */\n      dup3\n        /* \"#utility.yul\":1853:1871   */\n      add\n        /* \"#utility.yul\":1845:1871   */\n      swap1\n      pop\n        /* \"#utility.yul\":1881:1952   */\n      tag_56\n        /* \"#utility.yul\":1949:1950   */\n      0x00\n        /* \"#utility.yul\":1938:1947   */\n      dup4\n        /* \"#utility.yul\":1934:1951   */\n      add\n        /* \"#utility.yul\":1925:1931   */\n      dup7\n        /* \"#utility.yul\":1881:1952   */\n      tag_28\n      jump\t// in\n    tag_56:\n        /* \"#utility.yul\":1962:2028   */\n      tag_57\n        /* \"#utility.yul\":2024:2026   */\n      0x20\n        /* \"#utility.yul\":2013:2022   */\n      dup4\n        /* \"#utility.yul\":2009:2027   */\n      add\n        /* \"#utility.yul\":2000:2006   */\n      dup6\n        /* \"#utility.yul\":1962:2028   */\n      tag_30\n      jump\t// in\n    tag_57:\n        /* \"#utility.yul\":2075:2084   */\n      dup2\n        /* \"#utility.yul\":2069:2073   */\n      dup2\n        /* \"#utility.yul\":2065:2085   */\n      sub\n        /* \"#utility.yul\":2060:2062   */\n      0x40\n        /* \"#utility.yul\":2049:2058   */\n      dup4\n        /* \"#utility.yul\":2045:2063   */\n      add\n        /* \"#utility.yul\":2038:2086   */\n      mstore\n        /* \"#utility.yul\":2103:2181   */\n      tag_58\n        /* \"#utility.yul\":2176:2180   */\n      dup2\n        /* \"#utility.yul\":2167:2173   */\n      dup5\n        /* \"#utility.yul\":2103:2181   */\n      tag_35\n      jump\t// in\n    tag_58:\n        /* \"#utility.yul\":2095:2181   */\n      swap1\n      pop\n        /* \"#utility.yul\":1667:2188   */\n      swap5\n      swap4\n      pop\n      pop\n      pop\n      pop\n      jump\t// out\n\n    auxdata: 0xa26469706673582212205d3376c4d650dd5421285b236dfc8e2d63c7cb4d3107b9c66dded2c576a43ef464736f6c634300081e0033\n}\n",
				"bytecode": {
					"linkReferences": {},
					"object": "6080604052348015600e575f5ffd5b506102888061001c5f395ff3fe608060405234801561000f575f5ffd5b506004361061004a575f3560e01c80633dece5111461004e578063868875441461006d5780638aa64a391461008d578063b7f08306146100ac575b5f5ffd5b6100566100b6565b60405161006492919061017f565b60405180910390f35b6100756100c4565b60405161008493929190610216565b60405180910390f35b61009561010d565b6040516100a392919061017f565b60405180910390f35b6100b461011b565b005b5f5f60026001915091509091565b5f5f6060600260016040518060400160405280600281526020017f4869000000000000000000000000000000000000000000000000000000000000815250925092509250909192565b5f5f600a9150600190509091565b5f5f5f6101266100c4565b9250925092505f6101356100c4565b925050505f6101426100c4565b509150505050505050565b5f819050919050565b61015f8161014d565b82525050565b5f8115159050919050565b61017981610165565b82525050565b5f6040820190506101925f830185610156565b61019f6020830184610170565b9392505050565b5f81519050919050565b5f82825260208201905092915050565b8281835e5f83830152505050565b5f601f19601f8301169050919050565b5f6101e8826101a6565b6101f281856101b0565b93506102028185602086016101c0565b61020b816101ce565b840191505092915050565b5f6060820190506102295f830186610156565b6102366020830185610170565b818103604083015261024881846101de565b905094935050505056fea26469706673582212205d3376c4d650dd5421285b236dfc8e2d63c7cb4d3107b9c66dded2c576a43ef464736f6c634300081e0033",
					"opcodes": "PUSH1 0x80 PUSH1 0x40 MSTORE CALLVALUE DUP1 ISZERO PUSH1 0xE JUMPI PUSH0 PUSH0 REVERT JUMPDEST POP PUSH2 0x288 DUP1 PUSH2 0x1C PUSH0 CODECOPY PUSH0 RETURN INVALID PUSH1 0x80 PUSH1 0x40 MSTORE CALLVALUE DUP1 ISZERO PUSH2 0xF JUMPI PUSH0 PUSH0 REVERT JUMPDEST POP PUSH1 0x4 CALLDATASIZE LT PUSH2 0x4A JUMPI PUSH0 CALLDATALOAD PUSH1 0xE0 SHR DUP1 PUSH4 0x3DECE511 EQ PUSH2 0x4E JUMPI DUP1 PUSH4 0x86887544 EQ PUSH2 0x6D JUMPI DUP1 PUSH4 0x8AA64A39 EQ PUSH2 0x8D JUMPI DUP1 PUSH4 0xB7F08306 EQ PUSH2 0xAC JUMPI JUMPDEST PUSH0 PUSH0 REVERT JUMPDEST PUSH2 0x56 PUSH2 0xB6 JUMP JUMPDEST PUSH1 0x40 MLOAD PUSH2 0x64 SWAP3 SWAP2 SWAP1 PUSH2 0x17F JUMP JUMPDEST PUSH1 0x40 MLOAD DUP1 SWAP2 SUB SWAP1 RETURN JUMPDEST PUSH2 0x75 PUSH2 0xC4 JUMP JUMPDEST PUSH1 0x40 MLOAD PUSH2 0x84 SWAP4 SWAP3 SWAP2 SWAP1 PUSH2 0x216 JUMP JUMPDEST PUSH1 0x40 MLOAD DUP1 SWAP2 SUB SWAP1 RETURN JUMPDEST PUSH2 0x95 PUSH2 0x10D JUMP JUMPDEST PUSH1 0x40 MLOAD PUSH2 0xA3 SWAP3 SWAP2 SWAP1 PUSH2 0x17F JUMP JUMPDEST PUSH1 0x40 MLOAD DUP1 SWAP2 SUB SWAP1 RETURN JUMPDEST PUSH2 0xB4 PUSH2 0x11B JUMP JUMPDEST STOP JUMPDEST PUSH0 PUSH0 PUSH1 0x2 PUSH1 0x1 SWAP2 POP SWAP2 POP SWAP1 SWAP2 JUMP JUMPDEST PUSH0 PUSH0 PUSH1 0x60 PUSH1 0x2 PUSH1 0x1 PUSH1 0x40 MLOAD DUP1 PUSH1 0x40 ADD PUSH1 0x40 MSTORE DUP1 PUSH1 0x2 DUP2 MSTORE PUSH1 0x20 ADD PUSH32 0x4869000000000000000000000000000000000000000000000000000000000000 DUP2 MSTORE POP SWAP3 POP SWAP3 POP SWAP3 POP SWAP1 SWAP2 SWAP3 JUMP JUMPDEST PUSH0 PUSH0 PUSH1 0xA SWAP2 POP PUSH1 0x1 SWAP1 POP SWAP1 SWAP2 JUMP JUMPDEST PUSH0 PUSH0 PUSH0 PUSH2 0x126 PUSH2 0xC4 JUMP JUMPDEST SWAP3 POP SWAP3 POP SWAP3 POP PUSH0 PUSH2 0x135 PUSH2 0xC4 JUMP JUMPDEST SWAP3 POP POP POP PUSH0 PUSH2 0x142 PUSH2 0xC4 JUMP JUMPDEST POP SWAP2 POP POP POP POP POP POP POP JUMP JUMPDEST PUSH0 DUP2 SWAP1 POP SWAP2 SWAP1 POP JUMP JUMPDEST PUSH2 0x15F DUP2 PUSH2 0x14D JUMP JUMPDEST DUP3 MSTORE POP POP JUMP JUMPDEST PUSH0 DUP2 ISZERO ISZERO SWAP1 POP SWAP2 SWAP1 POP JUMP JUMPDEST PUSH2 0x179 DUP2 PUSH2 0x165 JUMP JUMPDEST DUP3 MSTORE POP POP JUMP JUMPDEST PUSH0 PUSH1 0x40 DUP3 ADD SWAP1 POP PUSH2 0x192 PUSH0 DUP4 ADD DUP6 PUSH2 0x156 JUMP JUMPDEST PUSH2 0x19F PUSH1 0x20 DUP4 ADD DUP5 PUSH2 0x170 JUMP JUMPDEST SWAP4 SWAP3 POP POP POP JUMP JUMPDEST PUSH0 DUP2 MLOAD SWAP1 POP SWAP2 SWAP1 POP JUMP JUMPDEST PUSH0 DUP3 DUP3 MSTORE PUSH1 0x20 DUP3 ADD SWAP1 POP SWAP3 SWAP2 POP POP JUMP JUMPDEST DUP3 DUP2 DUP4 MCOPY PUSH0 DUP4 DUP4 ADD MSTORE POP POP POP JUMP JUMPDEST PUSH0 PUSH1 0x1F NOT PUSH1 0x1F DUP4 ADD AND SWAP1 POP SWAP2 SWAP1 POP JUMP JUMPDEST PUSH0 PUSH2 0x1E8 DUP3 PUSH2 0x1A6 JUMP JUMPDEST PUSH2 0x1F2 DUP2 DUP6 PUSH2 0x1B0 JUMP JUMPDEST SWAP4 POP PUSH2 0x202 DUP2 DUP6 PUSH1 0x20 DUP7 ADD PUSH2 0x1C0 JUMP JUMPDEST PUSH2 0x20B DUP2 PUSH2 0x1CE JUMP JUMPDEST DUP5 ADD SWAP2 POP POP SWAP3 SWAP2 POP POP JUMP JUMPDEST PUSH0 PUSH1 0x60 DUP3 ADD SWAP1 POP PUSH2 0x229 PUSH0 DUP4 ADD DUP7 PUSH2 0x156 JUMP JUMPDEST PUSH2 0x236 PUSH1 0x20 DUP4 ADD DUP6 PUSH2 0x170 JUMP JUMPDEST DUP2 DUP2 SUB PUSH1 0x40 DUP4 ADD MSTORE PUSH2 0x248 DUP2 DUP5 PUSH2 0x1DE JUMP JUMPDEST SWAP1 POP SWAP5 SWAP4 POP POP POP POP JUMP INVALID LOG2 PUSH5 0x6970667358 0x22 SLT KECCAK256 TSTORE CALLER PUSH23 0xC4D650DD5421285B236DFC8E2D63C7CB4D3107B9C66DDE 0xD2 0xC5 PUSH23 0xA43EF464736F6C634300081E0033000000000000000000 "
				},
				"gasEstimates": {
					"creation": {
						"codeDepositCost": "129600",
						"executionCost": "175",
						"totalCost": "129775"
					},
					"external": {
						"destructing()": "infinite",
						"returnAssigned()": "472",
						"returnMany()": "infinite",
						"returnNamed()": "428"
					}
				},
				"methodIdentifiers": {
					"destructing()": "b7f08306",
					"returnAssigned()": "8aa64a39",
					"returnMany()": "86887544",
					"returnNamed()": "3dece511"
				}
			},
			"storageLayout": {
				"storage": [],
				"types": null
			},
			"userdoc": {
				"kind": "user",
				"methods": {},
				"version": 1
			}
		}
	}
}