{
	"data": {
		"bytecode": {
			"linkReferences": {},
			"object": "60806040526040516100109061007e565b604051809103906000f08015801561002c573d6000803e3d6000fd5b506000806101000a81548173ffffffffffffffffffffffffffffffffffffffff021916908373ffffffffffffffffffffffffffffffffffffffff16021790555034801561007857600080fd5b5061008b565b6102768061038983390190565b6102ef8061009a6000396000f3fe608060405234801561001057600080fd5b506004361061002b5760003560e01c8063c298557814610030575b600080fd5b61003861003a565b005b60008054906101000a900473ffffffffffffffffffffffffffffffffffffffff1673ffffffffffffffffffffffffffffffffffffffff166315c50663600260036040518363ffffffff1660e01b8152600401610097929190610234565b602060405180830381600087803b1580156100b157600080fd5b505af11580156100c5573d6000803e3d6000fd5b505050506040513d601f19601f820116820180604052508101906100e991906101b1565b5060008054906101000a900473ffffffffffffffffffffffffffffffffffffffff1673ffffffffffffffffffffffffffffffffffffffff1663b67d77c5600260016040518363ffffffff1660e01b815260040161014792919061020b565b602060405180830381600087803b15801561016157600080fd5b505af1158015610175573d6000803e3d6000fd5b505050506040513d601f19601f8201168201806040525081019061019991906101b1565b50565b6000815190506101ab816102a2565b92915050565b6000602082840312156101c7576101c661029d565b5b60006101d58482850161019c565b91505092915050565b6101e781610267565b82525050565b6101f681610279565b82525050565b6102058161028b565b82525050565b600060408201905061022060008301856101ed565b61022d60208301846101de565b9392505050565b600060408201905061024960008301856101ed565b61025660208301846101fc565b9392505050565b6000819050919050565b60006102728261025d565b9050919050565b60006102848261025d565b9050919050565b60006102968261025d565b9050919050565b600080fd5b6102ab8161025d565b81146102b657600080fd5b5056fea264697066735822122044096b3116695951c4276a5ee8dade3c781991ee53f8a9bf0f4d38620eb34d7464736f6c63430008070033608060405234801561001057600080fd5b50610256806100206000396000f3fe608060405234801561001057600080fd5b50600436106100365760003560e01c806315c506631461003b578063b67d77c51461006b575b600080fd5b6100556004803603810190610050919061010b565b61009b565b604051610062919061015a565b60405180910390f35b6100856004803603810190610080919061010b565b6100b1565b604051610092919061015a565b60405180910390f35b600081836100a99190610175565b905092915050565b60006100bf6002600361009b565b506100c86100dc565b81836100d49190610175565b905092915050565b6100e46100ed565b60006064905050565b600060c8905050565b60008135905061010581610209565b92915050565b6000806040838503121561012257610121610204565b5b6000610130858286016100f6565b9250506020610141858286016100f6565b9150509250929050565b610154816101cb565b82525050565b600060208201905061016f600083018461014b565b92915050565b6000610180826101cb565b915061018b836101cb565b9250827fffffffffffffffffffffffffffffffffffffffffffffffffffffffffffffffff038211156101c0576101bf6101d5565b5b828201905092915050565b6000819050919050565b7f4e487b7100000000000000000000000000000000000000000000000000000000600052601160045260246000fd5b600080fd5b610212816101cb565b811461021d57600080fd5b5056fea264697066735822122086bf9a04a14c9986af0c34f84df312595bded849ea31d5334ea7c98cf633a08c64736f6c63430008070033",
			"opcodes": "PUSH1 0x80 PUSH1 0x40 MSTORE PUSH1 0x40 MLOAD PUSH2 0x10 SWAP1 PUSH2 0x7E JUMP JUMPDEST PUSH1 0x40 MLOAD DUP1 SWAP2 SUB SWAP1 PUSH1 0x0 CREATE DUP1 ISZERO DUP1 ISZERO PUSH2 0x2C JUMPI RETURNDATASIZE PUSH1 0x0 DUP1 RETURNDATACOPY RETURNDATASIZE PUSH1 0x0 REVERT JUMPDEST POP PUSH1 0x0 DUP1 PUSH2 0x100 EXP DUP2 SLOAD DUP2 PUSH20 0xFFFFFFFFFFFFFFFFFFFFFFFFFFFFFFFFFFFFFFFF MUL NOT AND SWAP1 DUP4 PUSH20 0xFFFFFFFFFFFFFFFFFFFFFFFFFFFFFFFFFFFFFFFF AND MUL OR SWAP1 SSTORE POP CALLVALUE DUP1 ISZERO PUSH2 0x78 JUMPI PUSH1 0x0 DUP1 REVERT JUMPDEST POP PUSH2 0x8B JUMP JUMPDEST PUSH2 0x276 DUP1 PUSH2 0x389 DUP4 CODECOPY ADD SWAP1 JUMP JUMPDEST PUSH2 0x2EF DUP1 PUSH2 0x9A PUSH1 0x0 CODECOPY PUSH1 0x0 RETURN INVALID PUSH1 0x80 PUSH1 0x40 MSTORE CALLVALUE DUP1 ISZERO PUSH2 0x10 JUMPI PUSH1 0x0 DUP1 REVERT JUMPDEST POP PUSH1 0x4 CALLDATASIZE LT PUSH2 0x2B JUMPI PUSH1 0x0 CALLDATALOAD PUSH1 0xE0 SHR DUP1 PUSH4 0xC2985578 EQ PUSH2 0x30 JUMPI JUMPDEST PUSH1 0x0 DUP1 REVERT JUMPDEST PUSH2 0x38 PUSH2 0x3A JUMP JUMPDEST STOP JUMPDEST PUSH1 0x0 DUP1 SLOAD SWAP1 PUSH2 0x100 EXP SWAP1 DIV PUSH20 0xFFFFFFFFFFFFFFFFFFFFFFFFFFFFFFFFFFFFFFFF AND PUSH20 0xFFFFFFFFFFFFFFFFFFFFFFFFFFFFFFFFFFFFFFFF AND PUSH4 0x15C50663 PUSH1 0x2 PUSH1 0x3 PUSH1 0x40 MLOAD DUP4 PUSH4 0xFFFFFFFF AND PUSH1 0xE0 SHL DUP2 MSTORE PUSH1 0x4 ADD PUSH2 0x97 SWAP3 SWAP2 SWAP1 PUSH2 0x234 JUMP JUMPDEST PUSH1 0x20 PUSH1 0x40 MLOAD DUP1 DUP4 SUB DUP2 PUSH1 0x0 DUP8 DUP1 EXTCODESIZE ISZERO DUP1 ISZERO PUSH2 0xB1 JUMPI PUSH1 0x0 DUP1 REVERT JUMPDEST POP GAS CALL ISZERO DUP1 ISZERO PUSH2 0xC5 JUMPI RETURNDATASIZE PUSH1 0x0 DUP1 RETURNDATACOPY RETURNDATASIZE PUSH1 0x0 REVERT JUMPDEST POP POP POP POP PUSH1 0x40 MLOAD RETURNDATASIZE PUSH1 0x1F NOT PUSH1 0x1F DUP3 ADD AND DUP3 ADD DUP1 PUSH1 0x40 MSTORE POP DUP2 ADD SWAP1 PUSH2 0xE9 SWAP2 SWAP1 PUSH2 0x1B1 JUMP JUMPDEST POP PUSH1 0x0 DUP1 SLOAD SWAP1 PUSH2 0x100 EXP SWAP1 DIV PUSH20 0xFFFFFFFFFFFFFFFFFFFFFFFFFFFFFFFFFFFFFFFF AND PUSH20 0xFFFFFFFFFFFFFFFFFFFFFFFFFFFFFFFFFFFFFFFF AND PUSH4 0xB67D77C5 PUSH1 0x2 PUSH1 0x1 PUSH1 0x40 MLOAD DUP4 PUSH4 0xFFFFFFFF AND PUSH1 0xE0 SHL DUP2 MSTORE PUSH1 0x4 ADD PUSH2 0x147 SWAP3 SWAP2 SWAP1 PUSH2 0x20B JUMP JUMPDEST PUSH1 0x20 PUSH1 0x40 MLOAD DUP1 DUP4 SUB DUP2 PUSH1 0x0 DUP8 DUP1 EXTCODESIZE ISZERO DUP1 ISZERO PUSH2 0x161 JUMPI PUSH1 0x0 DUP1 REVERT JUMPDEST POP GAS CALL ISZERO DUP1 ISZERO PUSH2 0x175 JUMPI RETURNDATASIZE PUSH1 0x0 DUP1 RETURNDATACOPY RETURNDATASIZE PUSH1 0x0 REVERT JUMPDEST POP POP POP POP PUSH1 0x40 MLOAD RETURNDATASIZE PUSH1 0x1F NOT PUSH1 0x1F DUP3 ADD AND DUP3 ADD DUP1 PUSH1 0x40 MSTORE POP DUP2 ADD SWAP1 PUSH2 0x199 SWAP2 SWAP1 PUSH2 0x1B1 JUMP JUMPDEST POP JUMP JUMPDEST PUSH1 0x0 DUP2 MLOAD SWAP1 POP PUSH2 0x1AB DUP2 PUSH2 0x2A2 JUMP JUMPDEST SWAP3 SWAP2 POP POP JUMP JUMPDEST PUSH1 0x0 PUSH1 0x20 DUP3 DUP5 SUB SLT ISZERO PUSH2 0x1C7 JUMPI PUSH2 0x1C6 PUSH2 0x29D JUMP JUMPDEST JUMPDEST PUSH1 0x0 PUSH2 0x1D5 DUP5 DUP3 DUP6 ADD PUSH2 0x19C JUMP JUMPDEST SWAP2 POP POP SWAP3 SWAP2 POP POP JUMP JUMPDEST PUSH2 0x1E7 DUP2 PUSH2 0x267 JUMP JUMPDEST DUP3 MSTORE POP POP JUMP JUMPDEST PUSH2 0x1F6 DUP2 PUSH2 0x279 JUMP JUMPDEST DUP3 MSTORE POP POP JUMP JUMPDEST PUSH2 0x205 DUP2 PUSH2 0x28B JUMP JUMPDEST DUP3 MSTORE POP POP JUMP JUMPDEST PUSH1 0x0 PUSH1 0x40 DUP3 ADD SWAP1 POP PUSH2 0x220 PUSH1 0x0 DUP4 ADD DUP6 PUSH2 0x1ED JUMP JUMPDEST PUSH2 0x22D PUSH1 0x20 DUP4 ADD DUP5 PUSH2 0x1DE JUMP JUMPDEST SWAP4 SWAP3 POP POP POP JUMP JUMPDEST PUSH1 0x0 PUSH1 0x40 DUP3 ADD SWAP1 POP PUSH2 0x249 PUSH1 0x0 DUP4 ADD DUP6 PUSH2 0x1ED JUMP JUMPDEST PUSH2 0x256 PUSH1 0x20 DUP4 ADD DUP5 PUSH2 0x1FC JUMP JUMPDEST SWAP4 SWAP3 POP POP POP JUMP JUMPDEST PUSH1 0x0 DUP2 SWAP1 POP SWAP2 SWAP1 POP JUMP JUMPDEST PUSH1 0x0 PUSH2 0x272 DUP3 PUSH2 0x25D JUMP JUMPDEST SWAP1 POP SWAP2 SWAP1 POP JUMP JUMPDEST PUSH1 0x0 PUSH2 0x284 DUP3 PUSH2 0x25D JUMP JUMPDEST SWAP1 POP SWAP2 SWAP1 POP JUMP JUMPDEST PUSH1 0x0 PUSH2 0x296 DUP3 PUSH2 0x25D JUMP JUMPDEST SWAP1 POP SWAP2 SWAP1 POP JUMP JUMPDEST PUSH1 0x0 DUP1 REVERT JUMPDEST PUSH2 0x2AB DUP2 PUSH2 0x25D JUMP JUMPDEST DUP2 EQ PUSH2 0x2B6 JUMPI PUSH1 0x0 DUP1 REVERT JUMPDEST POP JUMP INVALID LOG2 PUSH5 0x6970667358 0x22 SLT KECCAK256 DIFFICULTY MULMOD PUSH12 0x3116695951C4276A5EE8DADE EXTCODECOPY PUSH25 0x1991EE53F8A9BF0F4D38620EB34D7464736F6C634300080700 CALLER PUSH1 0x80 PUSH1 0x40 MSTORE CALLVALUE DUP1 ISZERO PUSH2 0x10 JUMPI PUSH1 0x0 DUP1 REVERT JUMPDEST POP PUSH2 0x256 DUP1 PUSH2 0x20 PUSH1 0x0 CODECOPY PUSH1 0x0 RETURN INVALID PUSH1 0x80 PUSH1 0x40 MSTORE CALLVALUE DUP1 ISZERO PUSH2 0x10 JUMPI PUSH1 0x0 DUP1 REVERT JUMPDEST POP PUSH1 0x4 CALLDATASIZE LT PUSH2 0x36 JUMPI PUSH1 0x0 CALLDATALOAD PUSH1 0xE0 SHR DUP1 PUSH4 0x15C50663 EQ PUSH2 0x3B JUMPI DUP1 PUSH4 0xB67D77C5 EQ PUSH2 0x6B JUMPI JUMPDEST PUSH1 0x0 DUP1 REVERT JUMPDEST PUSH2 0x55 PUSH1 0x4 DUP1 CALLDATASIZE SUB DUP2 ADD SWAP1 PUSH2 0x50 SWAP2 SWAP1 PUSH2 0x10B JUMP JUMPDEST PUSH2 0x9B JUMP JUMPDEST PUSH1 0x40 MLOAD PUSH2 0x62 SWAP2 SWAP1 PUSH2 0x15A JUMP JUMPDEST PUSH1 0x40 MLOAD DUP1 SWAP2 SUB SWAP1 RETURN JUMPDEST PUSH2 0x85 PUSH1 0x4 DUP1 CALLDATASIZE SUB DUP2 ADD SWAP1 PUSH2 0x80 SWAP2 SWAP1 PUSH2 0x10B JUMP JUMPDEST PUSH2 0xB1 JUMP JUMPDEST PUSH1 0x40 MLOAD PUSH2 0x92 SWAP2 SWAP1 PUSH2 0x15A JUMP JUMPDEST PUSH1 0x40 MLOAD DUP1 SWAP2 SUB SWAP1 RETURN JUMPDEST PUSH1 0x0 DUP2 DUP4 PUSH2 0xA9 SWAP2 SWAP1 PUSH2 0x175 JUMP JUMPDEST SWAP1 POP SWAP3 SWAP2 POP POP JUMP JUMPDEST PUSH1 0x0 PUSH2 0xBF PUSH1 0x2 PUSH1 0x3 PUSH2 0x9B JUMP JUMPDEST POP PUSH2 0xC8 PUSH2 0xDC JUMP JUMPDEST DUP2 DUP4 PUSH2 0xD4 SWAP2 SWAP1 PUSH2 0x175 JUMP JUMPDEST SWAP1 POP SWAP3 SWAP2 POP POP JUMP JUMPDEST PUSH2 0xE4 PUSH2 0xED JUMP JUMPDEST PUSH1 0x0 PUSH1 0x64 SWAP1 POP POP JUMP JUMPDEST PUSH1 0x0 PUSH1 0xC8 SWAP1 POP POP JUMP JUMPDEST PUSH1 0x0 DUP2 CALLDATALOAD SWAP1 POP PUSH2 0x105 DUP2 PUSH2 0x209 JUMP JUMPDEST SWAP3 SWAP2 POP POP JUMP JUMPDEST PUSH1 0x0 DUP1 PUSH1 0x40 DUP4 DUP6 SUB SLT ISZERO PUSH2 0x122 JUMPI PUSH2 0x121 PUSH2 0x204 JUMP JUMPDEST JUMPDEST PUSH1 0x0 PUSH2 0x130 DUP6 DUP3 DUP7 ADD PUSH2 0xF6 JUMP JUMPDEST SWAP3 POP POP PUSH1 0x20 PUSH2 0x141 DUP6 DUP3 DUP7 ADD PUSH2 0xF6 JUMP JUMPDEST SWAP2 POP POP SWAP3 POP SWAP3 SWAP1 POP JUMP JUMPDEST PUSH2 0x154 DUP2 PUSH2 0x1CB JUMP JUMPDEST DUP3 MSTORE POP POP JUMP JUMPDEST PUSH1 0x0 PUSH1 0x20 DUP3 ADD SWAP1 POP PUSH2 0x16F PUSH1 0x0 DUP4 ADD DUP5 PUSH2 0x14B JUMP JUMPDEST SWAP3 SWAP2 POP POP JUMP JUMPDEST PUSH1 0x0 PUSH2 0x180 DUP3 PUSH2 0x1CB JUMP JUMPDEST SWAP2 POP PUSH2 0x18B DUP4 PUSH2 0x1CB JUMP JUMPDEST SWAP3 POP DUP3 PUSH32 0xFFFFFFFFFFFFFFFFFFFFFFFFFFFFFFFFFFFFFFFFFFFFFFFFFFFFFFFFFFFFFFFF SUB DUP3 GT ISZERO PUSH2 0x1C0 JUMPI PUSH2 0x1BF PUSH2 0x1D5 JUMP JUMPDEST JUMPDEST DUP3 DUP3 ADD SWAP1 POP SWAP3 SWAP2 POP POP JUMP JUMPDEST PUSH1 0x0 DUP2 SWAP1 POP SWAP2 SWAP1 POP JUMP JUMPDEST PUSH32 0x4E487B7100000000000000000000000000000000000000000000000000000000 PUSH1 0x0 MSTORE PUSH1 0x11 PUSH1 0x4 MSTORE PUSH1 0x24 PUSH1 0x0 REVERT JUMPDEST PUSH1 0x0 DUP1 REVERT JUMPDEST PUSH2 0x212 DUP2 PUSH2 0x1CB JUMP JUMPDEST DUP2 EQ PUSH2 0x21D JUMPI PUSH1 0x0 DUP1 REVERT JUMPDEST POP JUMP INVALID LOG2 PUSH5 0x6970667358 0x22 SLT KECCAK256 DUP7 0xBF SWAP11 DIV LOG1 0x4C SWAP10 DUP7 0xAF 0xC CALLVALUE 0xF8 0x4D RETURN SLT MSIZE JUMPDEST 0xDE 0xD8 0x49 0xEA BALANCE 0xD5 CALLER 0x4E 0xA7 0xC9 DUP13 0xF6 CALLER LOG0 DUP13 PUSH5 0x736F6C6343 STOP ADDMOD SMOD STOP CALLER "
		},
		"gasEstimates": {
			"creation": {
				"codeDepositCost": "150200",
				"executionCost": "infinite",
				"totalCost": "infinite"
			},
			"external": {
				"foo()": "infinite"
			}
		},
		"methodIdentifiers": {
			"foo()": "c2985578"
		}
	},
	"abi": [
		{
			"inputs": [],
			"name": "foo",
			"outputs": [],
			"stateMutability": "nonpayable",
			"type": "function"
		}
	]
}