{
	"data": {
		"bytecode": {
			"linkReferences": {},
			"object": "6080604052348015600e575f5ffd5b506104148061001c5f395ff3fe608060405234801561000f575f5ffd5b5060043610610034575f3560e01c80633a792393146100385780637de0785314610056575b5f5ffd5b610040610086565b60405161004d919061011f565b60405180910390f35b610070600480360381019061006b91906102c3565b6100b8565b60405161007d919061011f565b60405180910390f35b5f5f5b600a8110156100b45760018261009f9190610337565b915080806100ac9061036a565b915050610089565b5090565b5f5f5f5f90505b83518110156100fd578381815181106100db576100da6103b1565b5b6020026020010151826100ee9190610337565b915080806001019150506100bf565b5080915050919050565b5f819050919050565b61011981610107565b82525050565b5f6020820190506101325f830184610110565b92915050565b5f604051905090565b5f5ffd5b5f5ffd5b5f5ffd5b5f601f19601f8301169050919050565b7f4e487b71000000000000000000000000000000000000000000000000000000005f52604160045260245ffd5b6101938261014d565b810181811067ffffffffffffffff821117156101b2576101b161015d565b5b80604052505050565b5f6101c4610138565b90506101d0828261018a565b919050565b5f67ffffffffffffffff8211156101ef576101ee61015d565b5b602082029050602081019050919050565b5f5ffd5b61020d81610107565b8114610217575f5ffd5b50565b5f8135905061022881610204565b92915050565b5f61024061023b846101d5565b6101bb565b9050808382526020820190506020840283018581111561026357610262610200565b5b835b8181101561028c5780610278888261021a565b845260208401935050602081019050610265565b5050509392505050565b5f82601f8301126102aa576102a9610149565b5b81356102ba84826020860161022e565b91505092915050565b5f602082840312156102d8576102d7610141565b5b5f82013567ffffffffffffffff8111156102f5576102f4610145565b5b61030184828501610296565b91505092915050565b7f4e487b71000000000000000000000000000000000000000000000000000000005f52601160045260245ffd5b5f61034182610107565b915061034c83610107565b92508282019050808211156103645761036361030a565b5b92915050565b5f61037482610107565b91507fffffffffffffffffffffffffffffffffffffffffffffffffffffffffffffffff82036103a6576103a561030a565b5b600182019050919050565b7f4e487b71000000000000000000000000000000000000000000000000000000005f52603260045260245ffdfea26469706673582212205aab9892a072a455fee74921b3fd8ddb523e8f73024b970c11a458400484c3e364736f6c634300081e0033",
			"opcodes": "PUSH1 0x80 PUSH1 0x40 MSTORE CALLVALUE DUP1 ISZERO PUSH1 0xE JUMPI PUSH0 PUSH0 REVERT JUMPDEST POP PUSH2 0x414 DUP1 PUSH2 0x1C PUSH0 CODECOPY PUSH0 RETURN INVALID PUSH1 0x80 PUSH1 0x40 MSTORE CALLVALUE DUP1 ISZERO PUSH2 0xF JUMPI PUSH0 PUSH0 REVERT JUMPDEST POP PUSH1 0x4 CALLDATASIZE LT PUSH2 0x34 JUMPI PUSH0 CALLDATALOAD PUSH1 0xE0 SHR DUP1 PUSH4 0x3A792393 EQ PUSH2 0x38 JUMPI DUP1 PUSH4 0x7DE07853 EQ PUSH2 0x56 JUMPI JUMPDEST PUSH0 PUSH0 REVERT JUMPDEST PUSH2 0x40 PUSH2 0x86 JUMP JUMPDEST PUSH1 0x40 MLOAD PUSH2 0x4D SWAP2 SWAP1 PUSH2 0x11F JUMP JUMPDEST PUSH1 0x40 MLOAD DUP1 SWAP2 SUB SWAP1 RETURN JUMPDEST PUSH2 0x70 PUSH1 0x4 DUP1 CALLDATASIZE SUB DUP2 ADD SWAP1 PUSH2 0x6B SWAP2 SWAP1 PUSH2 0x2C3 JUMP JUMPDEST PUSH2 0xB8 JUMP JUMPDEST PUSH1 0x40 MLOAD PUSH2 0x7D SWAP2 SWAP1 PUSH2 0x11F JUMP JUMPDEST PUSH1 0x40 MLOAD DUP1 SWAP2 SUB SWAP1 RETURN JUMPDEST PUSH0 PUSH0 JUMPDEST PUSH1 0xA DUP2 LT ISZERO PUSH2 0xB4 JUMPI PUSH1 0x1 DUP3 PUSH2 0x9F SWAP2 SWAP1 PUSH2 0x337 JUMP JUMPDEST SWAP2 POP DUP1 DUP1 PUSH2 0xAC SWAP1 PUSH2 0x36A JUMP JUMPDEST SWAP2 POP POP PUSH2 0x89 JUMP JUMPDEST POP SWAP1 JUMP JUMPDEST PUSH0 PUSH0 PUSH0 PUSH0 SWAP1 POP JUMPDEST DUP4 MLOAD DUP2 LT ISZERO PUSH2 0xFD JUMPI DUP4 DUP2 DUP2 MLOAD DUP2 LT PUSH2 0xDB JUMPI PUSH2 0xDA PUSH2 0x3B1 JUMP JUMPDEST JUMPDEST PUSH1 0x20 MUL PUSH1 0x20 ADD ADD MLOAD DUP3 PUSH2 0xEE SWAP2 SWAP1 PUSH2 0x337 JUMP JUMPDEST SWAP2 POP DUP1 DUP1 PUSH1 0x1 ADD SWAP2 POP POP PUSH2 0xBF JUMP JUMPDEST POP DUP1 SWAP2 POP POP SWAP2 SWAP1 POP JUMP JUMPDEST PUSH0 DUP2 SWAP1 POP SWAP2 SWAP1 POP JUMP JUMPDEST PUSH2 0x119 DUP2 PUSH2 0x107 JUMP JUMPDEST DUP3 MSTORE POP POP JUMP JUMPDEST PUSH0 PUSH1 0x20 DUP3 ADD SWAP1 POP PUSH2 0x132 PUSH0 DUP4 ADD DUP5 PUSH2 0x110 JUMP JUMPDEST SWAP3 SWAP2 POP POP JUMP JUMPDEST PUSH0 PUSH1 0x40 MLOAD SWAP1 POP SWAP1 JUMP JUMPDEST PUSH0 PUSH0 REVERT JUMPDEST PUSH0 PUSH0 REVERT JUMPDEST PUSH0 PUSH0 REVERT JUMPDEST PUSH0 PUSH1 0x1F NOT PUSH1 0x1F DUP4 ADD AND SWAP1 POP SWAP2 SWAP1 POP JUMP JUMPDEST PUSH32 0x4E487B7100000000000000000000000000000000000000000000000000000000 PUSH0 MSTORE PUSH1 0x41 PUSH1 0x4 MSTORE PUSH1 0x24 PUSH0 REVERT JUMPDEST PUSH2 0x193 DUP3 PUSH2 0x14D JUMP JUMPDEST DUP2 ADD DUP2 DUP2 LT PUSH8 0xFFFFFFFFFFFFFFFF DUP3 GT OR ISZERO PUSH2 0x1B2 JUMPI PUSH2 0x1B1 PUSH2 0x15D JUMP JUMPDEST JUMPDEST DUP1 PUSH1 0x40 MSTORE POP POP POP JUMP JUMPDEST PUSH0 PUSH2 0x1C4 PUSH2 0x138 JUMP JUMPDEST SWAP1 POP PUSH2 0x1D0 DUP3 DUP3 PUSH2 0x18A JUMP JUMPDEST SWAP2 SWAP1 POP JUMP JUMPDEST PUSH0 PUSH8 0xFFFFFFFFFFFFFFFF DUP3 GT ISZERO PUSH2 0x1EF JUMPI PUSH2 0x1EE PUSH2 0x15D JUMP JUMPDEST JUMPDEST PUSH1 0x20 DUP3 MUL SWAP1 POP PUSH1 0x20 DUP2 ADD SWAP1 POP SWAP2 SWAP1 POP JUMP JUMPDEST PUSH0 PUSH0 REVERT JUMPDEST PUSH2 0x20D DUP2 PUSH2 0x107 JUMP JUMPDEST DUP2 EQ PUSH2 0x217 JUMPI PUSH0 PUSH0 REVERT JUMPDEST POP JUMP JUMPDEST PUSH0 DUP2 CALLDATALOAD SWAP1 POP PUSH2 0x228 DUP2 PUSH2 0x204 JUMP JUMPDEST SWAP3 SWAP2 POP POP JUMP JUMPDEST PUSH0 PUSH2 0x240 PUSH2 0x23B DUP5 PUSH2 0x1D5 JUMP JUMPDEST PUSH2 0x1BB JUMP JUMPDEST SWAP1 POP DUP1 DUP4 DUP3 MSTORE PUSH1 0x20 DUP3 ADD SWAP1 POP PUSH1 0x20 DUP5 MUL DUP4 ADD DUP6 DUP2 GT ISZERO PUSH2 0x263 JUMPI PUSH2 0x262 PUSH2 0x200 JUMP JUMPDEST JUMPDEST DUP4 JUMPDEST DUP2 DUP2 LT ISZERO PUSH2 0x28C JUMPI DUP1 PUSH2 0x278 DUP9 DUP3 PUSH2 0x21A JUMP JUMPDEST DUP5 MSTORE PUSH1 0x20 DUP5 ADD SWAP4 POP POP PUSH1 0x20 DUP2 ADD SWAP1 POP PUSH2 0x265 JUMP JUMPDEST POP POP POP SWAP4 SWAP3 POP POP POP JUMP JUMPDEST PUSH0 DUP3 PUSH1 0x1F DUP4 ADD SLT PUSH2 0x2AA JUMPI PUSH2 0x2A9 PUSH2 0x149 JUMP JUMPDEST JUMPDEST DUP2 CALLDATALOAD PUSH2 0x2BA DUP5 DUP3 PUSH1 0x20 DUP7 ADD PUSH2 0x22E JUMP JUMPDEST SWAP2 POP POP SWAP3 SWAP2 POP POP JUMP JUMPDEST PUSH0 PUSH1 0x20 DUP3 DUP5 SUB SLT ISZERO PUSH2 0x2D8 JUMPI PUSH2 0x2D7 PUSH2 0x141 JUMP JUMPDEST JUMPDEST PUSH0 DUP3 ADD CALLDATALOAD PUSH8 0xFFFFFFFFFFFFFFFF DUP2 GT ISZERO PUSH2 0x2F5 JUMPI PUSH2 0x2F4 PUSH2 0x145 JUMP JUMPDEST JUMPDEST PUSH2 0x301 DUP5 DUP3 DUP6 ADD PUSH2 0x296 JUMP JUMPDEST SWAP2 POP POP SWAP3 SWAP2 POP POP JUMP JUMPDEST PUSH32 0x4E487B7100000000000000000000000000000000000000000000000000000000 PUSH0 MSTORE PUSH1 0x11 PUSH1 0x4 MSTORE PUSH1 0x24 PUSH0 REVERT JUMPDEST PUSH0 PUSH2 0x341 DUP3 PUSH2 0x107 JUMP JUMPDEST SWAP2 POP PUSH2 0x34C DUP4 PUSH2 0x107 JUMP JUMPDEST SWAP3 POP DUP3 DUP3 ADD SWAP1 POP DUP1 DUP3 GT ISZERO PUSH2 0x364 JUMPI PUSH2 0x363 PUSH2 0x30A JUMP JUMPDEST JUMPDEST SWAP3 SWAP2 POP POP JUMP JUMPDEST PUSH0 PUSH2 0x374 DUP3 PUSH2 0x107 JUMP JUMPDEST SWAP2 POP PUSH32 0xFFFFFFFFFFFFFFFFFFFFFFFFFFFFFFFFFFFFFFFFFFFFFFFFFFFFFFFFFFFFFFFF DUP3 SUB PUSH2 0x3A6 JUMPI PUSH2 0x3A5 PUSH2 0x30A JUMP JUMPDEST JUMPDEST PUSH1 0x1 DUP3 ADD SWAP1 POP SWAP2 SWAP1 POP JUMP JUMPDEST PUSH32 0x4E487B7100000000000000000000000000000000000000000000000000000000 PUSH0 MSTORE PUSH1 0x32 PUSH1 0x4 MSTORE PUSH1 0x24 PUSH0 REVERT INVALID LOG2 PUSH5 0x6970667358 0x22 SLT KECCAK256 GAS 0xAB SWAP9 SWAP3 LOG0 PUSH19 0xA455FEE74921B3FD8DDB523E8F73024B970C11 LOG4 PC BLOCKHASH DIV DUP5 0xC3 CALLF 0x6473 PUSH16 0x6C634300081E00330000000000000000 "
		},
		"gasEstimates": {
			"creation": {
				"codeDepositCost": "208800",
				"executionCost": "249",
				"totalCost": "209049"
			},
			"external": {
				"loopFor(uint256[])": "infinite",
				"loopWhile()": "infinite"
			}
		},
		"methodIdentifiers": {
			"loopFor(uint256[])": "7de07853",
			"loopWhile()": "3a792393"
		}
	},
	"abi": [
		{
			"inputs": [
				{
					"internalType": "uint256[]",
					"name": "array",
					"type": "uint256[]"
				}
			],
			"name": "loopFor",
			"outputs": [
				{
					"internalType": "uint256",
					"name": "",
					"type": "uint256"
				}
			],
			"stateMutability": "pure",
			"type": "function"
		},
		{
			"inputs": [],
			"name": "loopWhile",
			"outputs": [
				{
					"internalType": "uint256",
					"name": "sum",
					"type": "uint256"
				}
			],
			"stateMutability": "pure",
			"type": "function"
		}
	]
}