{
	"data": {
		"bytecode": {
			"linkReferences": {},
			"object": "6080604052348015600e575f5ffd5b506102418061001c5f395ff3fe608060405234801561000f575f5ffd5b506004361061003f575f3560e01c80633dece5111461004357806386887544146100625780638aa64a3914610082575b5f5ffd5b61004b6100a1565b604051610059929190610138565b60405180910390f35b61006a6100af565b604051610079939291906101cf565b60405180910390f35b61008a6100f8565b604051610098929190610138565b60405180910390f35b5f5f60026001915091509091565b5f5f6060600260016040518060400160405280600281526020017f4869000000000000000000000000000000000000000000000000000000000000815250925092509250909192565b5f5f600a9150600190509091565b5f819050919050565b61011881610106565b82525050565b5f8115159050919050565b6101328161011e565b82525050565b5f60408201905061014b5f83018561010f565b6101586020830184610129565b9392505050565b5f81519050919050565b5f82825260208201905092915050565b8281835e5f83830152505050565b5f601f19601f8301169050919050565b5f6101a18261015f565b6101ab8185610169565b93506101bb818560208601610179565b6101c481610187565b840191505092915050565b5f6060820190506101e25f83018661010f565b6101ef6020830185610129565b81810360408301526102018184610197565b905094935050505056fea2646970667358221220b030060cc29b8bdb6395b241856bbf6c53036fe907301e1a1429f7ebeddbc31f64736f6c634300081e0033",
			"opcodes": "PUSH1 0x80 PUSH1 0x40 MSTORE CALLVALUE DUP1 ISZERO PUSH1 0xE JUMPI PUSH0 PUSH0 REVERT JUMPDEST POP PUSH2 0x241 DUP1 PUSH2 0x1C PUSH0 CODECOPY PUSH0 RETURN INVALID PUSH1 0x80 PUSH1 0x40 MSTORE CALLVALUE DUP1 ISZERO PUSH2 0xF JUMPI PUSH0 PUSH0 REVERT JUMPDEST POP PUSH1 0x4 CALLDATASIZE LT PUSH2 0x3F JUMPI PUSH0 CALLDATALOAD PUSH1 0xE0 SHR DUP1 PUSH4 0x3DECE511 EQ PUSH2 0x43 JUMPI DUP1 PUSH4 0x86887544 EQ PUSH2 0x62 JUMPI DUP1 PUSH4 0x8AA64A39 EQ PUSH2 0x82 JUMPI JUMPDEST PUSH0 PUSH0 REVERT JUMPDEST PUSH2 0x4B PUSH2 0xA1 JUMP JUMPDEST PUSH1 0x40 MLOAD PUSH2 0x59 SWAP3 SWAP2 SWAP1 PUSH2 0x138 JUMP JUMPDEST PUSH1 0x40 MLOAD DUP1 SWAP2 SUB SWAP1 RETURN JUMPDEST PUSH2 0x6A PUSH2 0xAF JUMP JUMPDEST PUSH1 0x40 MLOAD PUSH2 0x79 SWAP4 SWAP3 SWAP2 SWAP1 PUSH2 0x1CF JUMP JUMPDEST PUSH1 0x40 MLOAD DUP1 SWAP2 SUB SWAP1 RETURN JUMPDEST PUSH2 0x8A PUSH2 0xF8 JUMP JUMPDEST PUSH1 0x40 MLOAD PUSH2 0x98 SWAP3 SWAP2 SWAP1 PUSH2 0x138 JUMP JUMPDEST PUSH1 0x40 MLOAD DUP1 SWAP2 SUB SWAP1 RETURN JUMPDEST PUSH0 PUSH0 PUSH1 0x2 PUSH1 0x1 SWAP2 POP SWAP2 POP SWAP1 SWAP2 JUMP JUMPDEST PUSH0 PUSH0 PUSH1 0x60 PUSH1 0x2 PUSH1 0x1 PUSH1 0x40 MLOAD DUP1 PUSH1 0x40 ADD PUSH1 0x40 MSTORE DUP1 PUSH1 0x2 DUP2 MSTORE PUSH1 0x20 ADD PUSH32 0x4869000000000000000000000000000000000000000000000000000000000000 DUP2 MSTORE POP SWAP3 POP SWAP3 POP SWAP3 POP SWAP1 SWAP2 SWAP3 JUMP JUMPDEST PUSH0 PUSH0 PUSH1 0xA SWAP2 POP PUSH1 0x1 SWAP1 POP SWAP1 SWAP2 JUMP JUMPDEST PUSH0 DUP2 SWAP1 POP SWAP2 SWAP1 POP JUMP JUMPDEST PUSH2 0x118 DUP2 PUSH2 0x106 JUMP JUMPDEST DUP3 MSTORE POP POP JUMP JUMPDEST PUSH0 DUP2 ISZERO ISZERO SWAP1 POP SWAP2 SWAP1 POP JUMP JUMPDEST PUSH2 0x132 DUP2 PUSH2 0x11E JUMP JUMPDEST DUP3 MSTORE POP POP JUMP JUMPDEST PUSH0 PUSH1 0x40 DUP3 ADD SWAP1 POP PUSH2 0x14B PUSH0 DUP4 ADD DUP6 PUSH2 0x10F JUMP JUMPDEST PUSH2 0x158 PUSH1 0x20 DUP4 ADD DUP5 PUSH2 0x129 JUMP JUMPDEST SWAP4 SWAP3 POP POP POP JUMP JUMPDEST PUSH0 DUP2 MLOAD SWAP1 POP SWAP2 SWAP1 POP JUMP JUMPDEST PUSH0 DUP3 DUP3 MSTORE PUSH1 0x20 DUP3 ADD SWAP1 POP SWAP3 SWAP2 POP POP JUMP JUMPDEST DUP3 DUP2 DUP4 MCOPY PUSH0 DUP4 DUP4 ADD MSTORE POP POP POP JUMP JUMPDEST PUSH0 PUSH1 0x1F NOT PUSH1 0x1F DUP4 ADD AND SWAP1 POP SWAP2 SWAP1 POP JUMP JUMPDEST PUSH0 PUSH2 0x1A1 DUP3 PUSH2 0x15F JUMP JUMPDEST PUSH2 0x1AB DUP2 DUP6 PUSH2 0x169 JUMP JUMPDEST SWAP4 POP PUSH2 0x1BB DUP2 DUP6 PUSH1 0x20 DUP7 ADD PUSH2 0x179 JUMP JUMPDEST PUSH2 0x1C4 DUP2 PUSH2 0x187 JUMP JUMPDEST DUP5 ADD SWAP2 POP POP SWAP3 SWAP2 POP POP JUMP JUMPDEST PUSH0 PUSH1 0x60 DUP3 ADD SWAP1 POP PUSH2 0x1E2 PUSH0 DUP4 ADD DUP7 PUSH2 0x10F JUMP JUMPDEST PUSH2 0x1EF PUSH1 0x20 DUP4 ADD DUP6 PUSH2 0x129 JUMP JUMPDEST DUP2 DUP2 SUB PUSH1 0x40 DUP4 ADD MSTORE PUSH2 0x201 DUP2 DUP5 PUSH2 0x197 JUMP JUMPDEST SWAP1 POP SWAP5 SWAP4 POP POP POP POP JUMP INVALID LOG2 PUSH5 0x6970667358 0x22 SLT KECCAK256 0xB0 ADDRESS MOD 0xC 0xC2 SWAP12 DUP12 0xDB PUSH4 0x95B24185 PUSH12 0xBF6C53036FE907301E1A1429 0xF7 0xEB 0xED 0xDB 0xC3 0x1F PUSH5 0x736F6C6343 STOP ADDMOD 0x1E STOP CALLER "
		},
		"gasEstimates": {
			"creation": {
				"codeDepositCost": "115400",
				"executionCost": "163",
				"totalCost": "115563"
			},
			"external": {
				"returnAssigned()": "472",
				"returnMany()": "infinite",
				"returnNamed()": "428"
			}
		},
		"methodIdentifiers": {
			"returnAssigned()": "8aa64a39",
			"returnMany()": "86887544",
			"returnNamed()": "3dece511"
		}
	},
	"abi": [
		{
			"inputs": [],
			"name": "returnAssigned",
			"outputs": [
				{
					"internalType": "uint256",
					"name": "a",
					"type": "uint256"
				},
				{
					"internalType": "bool",
					"name": "b",
					"type": "bool"
				}
			],
			"stateMutability": "pure",
			"type": "function"
		},
		{
			"inputs": [],
			"name": "returnMany",
			"outputs": [
				{
					"internalType": "uint256",
					"name": "",
					"type": "uint256"
				},
				{
					"internalType": "bool",
					"name": "",
					"type": "bool"
				},
				{
					"internalType": "string",
					"name": "",
					"type": "string"
				}
			],
			"stateMutability": "pure",
			"type": "function"
		},
		{
			"inputs": [],
			"name": "returnNamed",
			"outputs": [
				{
					"internalType": "uint256",
					"name": "a",
					"type": "uint256"
				},
				{
					"internalType": "bool",
					"name": "b",
					"type": "bool"
				}
			],
			"stateMutability": "pure",
			"type": "function"
		}
	]
}